:020000040000FA
:1050000002630902582EFFFFFFFFFFFFFFFFFFFFB4
:10501000FFFFFF025F52FFFFFFFFFFFFFFFFFFFFEA
:10502000FFFFFFFFFFFFFFFFFFFFFF025FF4FFFF38
:10503000FFFFFF025FA6FFFFFFFFFFFFFFFFFFFF76
:10504000FFFFFFFFFFFFFFFFFFFFFFFFFFFFFFFF70
:10505000FFFFFF02577CFFFFFFFFFFFFFFFFFFFF88
:10506000FFFFFFFFFFFFFFFFFFFFFFFFFFFFFFFF50
:10507000FFFFFFFFFFFFFFFFFFFFFFFFFFFFFFFF40
:10508000FFFFFF0257BDFFFFFFFFFFFFFFFFFFFF17
:10509000DC77FFFF010101010503010F10FEFFDBBB
:1050A0006BDB6BDB6BDB6B916A8B6ADB6B6B7B00A7
:1050B0000000002F7C000000000C0000000C00012C
:1050C0000008000000100000002000000040000068
:1050D0000080000000000100000002000000040049
:1050E0000000080000001000000020000000400048
:1050F0000000800000000001000000020000000429
:10510000020206FF0101004C0C000000A70CE8039E
:1051100064006400B80102020008000005020701F3
:10512000051E02051E020A0A03B80B02803E010298
:105130000332000100210A1401E00100B0423BAA41
:10514000B83F0000003F8C906339AA0CA33A00944A
:105150001E3C8042633DCFFE753E1572313F00001C
:10516000803FF304353F8096184B3031323334356D
:105170003637383941424344454600286E756C6CD9
:1051800020706F696E7465722900303132333435A6
:1051900036373839616263646566003F3F3F00001F
:1051A00000807FF9021550B743BA5100002041003A
:1051B000E7DB2E0000A040000080BF2292D43EDD3D
:1051C0009B2A3F04000040FFFF7F7FFFFF7FFF011E
:1051D0000080341872313F126328604612631960F0
:1051E0003DE9687008F618F618F618F6227480671C
:1051F000F712520B090909748067F72212631960CC
:105200001D1263287005191919801A1261F5701F93
:10521000126209C37003E667331919194007181899
:10522000182208080874FFF618F618F618F6221265
:10523000620960171263B6702192F01263BF701991
:10524000501720F014080808090909E7F61819E7AB
:10525000F61819E7F61819E7F6221263BF60E6E8B8
:1052600069701F0808E62480F608E436F618547FB3
:10527000B47F0CE654806007F6E418F618F622189E
:105280001822E9C6CC08C6CD08C6CE08C6CFC0E0F5
:10529000E8C0E0EAC0E0EBC0E009E9F809E7FA0994
:1052A000E7FBE6F918E6F8C3EC98ED99EE9AEBC245
:1052B000E7F5F0EFC2E795F0500E600CEBCFFBEA9C
:1052C000CEFAE9CDF9E8CCF8EAA2E7D2E7FAEB3377
:1052D000FB13F5F0EEA2E7D2E7FEEF33FFC5F013C4
:1052E000A2E730E601B313C5F0C3C0E0C0F07F0011
:1052F000C39BFB605E9418600F401D14601AD0E0E1
:1053000023F9D0E0F80253DD8AF0E9486003D2F0D7
:10531000E4AFF0FAF9F8803BEB30E40D89F0EA6095
:1053200003D2F0E4AFF0F9CAF8EB30E30D88F0EF08
:105330006002D2F0AFF0E4CAC9F8EB54076014FB86
:10534000C3EA13FAE913F9E813F8EF135002D2E0B5
:10535000FFDBEDD0E0C0E030E739C3E49FFFF5F0BC
:10536000EC98FC42F0ED99FD42F0EE9AFE42F0D04E
:10537000E0F9D0E0F8E5F0607AE923F9EE20E742C1
:10538000D8028067C3EF33FFEC33FCED33FDEE331F
:10539000FE80EAEC28FCED39FDEE3AFED0E023F980
:1053A000D0E0F84002801BC3EE13FEED13FDEC13BA
:1053B000FCEF135002D2E0FF08B800067F7F74FFB5
:1053C000802EEF3350178CF020F00260100CBC00E0
:1053D0000C0DBD00080EBE000408E860DFE933E8EC
:1053E00013FFEE2313FE4F4D4C8008E95480FFE479
:1053F000FEFDFCEE33EF33F47004FCFD7E80D0E064
:10540000FBD0E0FAD0E0F8D0E0CFC618CEC618CD79
:10541000C618CCC6F9221263197004181818221283
:105420006328700D74FFF61819F61819F61819F696
:1054300022E7548066F61263BF700F1263B670F0F5
:1054400014F608F608F608F680D11263B6700CF66A
:1054500008F608768008E6447F80EC12620C700C37
:105460001261F860BFE65480F6E480BB1261F87008
:105470000519191980A5E869700C763F187680180F
:10548000F618F6E8F922E6CDC0E018ECC0E0E63305
:10549000CD33CDD313F6E719FCE7191933CC33C359
:1054A000947F400ECD9D502408E65480F6E418F613
:1054B000800FF4043D14501408E6447FF6187680FB
:1054C000E418F618F6D0E0FCD0E0FD22CCD313CCE3
:1054D000FD18E4C6CBC0E018E4C6CAC0E00808ED79
:1054E00008C633E613F618E433C675F003C3CA974B
:1054F000CA09CB97CB199C40047D08802EBD0003C0
:105500000255BF16B6FF050606081618C3CA33CAE9
:10551000CB33CB33CA27CA09CB37CB193CC37D0861
:10552000803E187D0820E75CC633C6CA33CACB3339
:10553000CB33DDF1D5F0EB30E77BCA97CA09CB97C7
:105540004ACB199C406F4B7025E620E021806618FD
:105550007D08C3CA97CA09CB97CB199CD3C633C65B
:10556000CA33CACB33CB3350C9DDE7D5F0E1D3E43E
:10557000C636C608C636C608C636C608C636C618F3
:1055800018188031C3CA97CA09CB97CB199CB3406E
:1055900097C633C6CA33CACB33CB33DD34D5F02EEE
:1055A000C6A2E0C640C8CA27CA09CB37194A70BE8E
:1055B000CB3CB480B90808E63308E633601F1818FE
:1055C00018D0E0FAD0E0FBD0E0FCD0E0FD22187D5E
:1055D00008CA27CA09CB37CB193CD3808013F618E9
:1055E000E4B67F11F618B6FF0EF618C60470D2089E
:1055F00008768080CAF618F618F680C5001263197E
:10560000604F1263286012E7548066F61261F570ED
:10561000111263B6703B090909F4F618F618F6186A
:10562000F62212620970151263BF08080860EAE6E4
:10563000447FF618768018E4F618F6221263BF60ED
:10564000161263B67012E4F608F608F608E65480FF
:10565000F609090918181822EAC0E0EBC0E0ECC00E
:10566000E0EDC0E0E687F0A4FBACF008E687F0A42C
:105670002CFCE435F0FA1809E687F0A42C4B600204
:105680007401CA35F0FCE433FB09E687F0D2F7A4D5
:105690002CCB35F0FC1908E687F0A42BCC35F0FBB9
:1056A000E433FD0819E687F0D2E7A42C4ACB35F0A5
:1056B000CD3400FC09E687F0D2E7A42DCC35F0FD0F
:1056C000E433FA0918E687F0D2F7A42CCD35F0CAF6
:1056D0003400FC08E687F0D2E7D2F7A42ACC35F0F4
:1056E0007A7E20E70B0ACB33CBCD33CDCC33CC3312
:1056F000CB3350147004ED30E00ED2F1E4CD3DCD4B
:10570000CC3CCC3B5005DA05C2F1EB547FC63308E4
:10571000E63392F0FBE73309E733C39A502D2B7041
:10572000190C0D4C4D70151806E608C333700D208A
:10573000F10AA2F013F6E418800B4024E4F630F0EE
:1057400002768018F618F618F68024D33B14501011
:1057500074FFA2F013F6187680E418F618F6800F9E
:10576000A2F013F618E63303F618ECF618EDF6D0AF
:10577000E0FDD0E0FCD0E0FBD0E0FA22C0E074F223
:10578000125B56A2AFE433FED2AF85A708AFA1EFFC
:10579000550854106008126EED75A1EF8013EFA24A
:1057A000E092F0E508A2E082F05006126F9575A134
:1057B000FEEEF8EEA2E092AF7F01025BB5C0E074AE
:1057C000F2125B56A2AFE433FFD2AF9061A4E0FEC9
:1057D000759B00E5915E540860087591F7126F3B68
:1057E0008026E5915E541060087591EF126F41803C
:1057F00017E591A2E092F0EEA2E082F0500A9061EB
:10580000A4E0C2E0F012707F9061A3E0FEE5E95EE3
:105810005404600E12705575E9FB906193E0A2E6A6
:1058200040F2EFF8EFA2E092AF7F01025BB5C0E07B
:1058300074F2125B56A2AFE433FED2AF9061A5E0E2
:10584000FFE5BF5F5404600675BFFB127097EEF86A
:10585000EEA2E092AF7F01025BB5C3E498F8E49951
:10586000F912589B8026C3E49AFAE49BFBE920E7EF
:10587000E912589BE498F8E499F922C3E498F8E413
:1058800099F912589BE498F8E499F9C3E49AFAE478
:105890009BFB22EB20E7CFE920E7E0B90010BB003B
:1058A00008E88AF084F8AAF022E4FBC8FA22EB7038
:1058B000227B10C833C8C933C9335007C39AC3DB2E
:1058C000F280069A50012ADBEAC833F4C8C933F4DF
:1058D000C9FA2275F008E4C833C8C933C933C99A74
:1058E000C99B5004C92AC93BD5F0ECFBC833F4C8A6
:1058F000E4C9FA2212593420F01430E72B74FFFC6B
:10590000FBFA747F8022E4FCFBFA7480801AB48076
:1059100008BC00F2BB00EF800F50EBF9E4C39AFA29
:10592000E49BFBE49CFCE499C6CC18C6CB18C6CA21
:1059300018C6F922E4C9C608CAC608CBC6D33303C1
:1059400008CCC63392F0C3947F402E94184019C9F6
:10595000B90704CACBCC225025C309CA33CACB33FA
:10596000CBCC33CC33D9F422F4600DC9CCC313CBE8
:1059700013CBCA13CAD9F6CC22E4FCFBFA2214FCDE
:10598000FBFA22080808EAC0E0EBC0E086F0E7A4D2
:10599000FA180986F0E7A42AFA180986F0E7A42A7B
:1059A000FA180986F0E7A42AFA1986F0E7A4FBE5BD
:1059B000F02AFA190886F0E7A42BFBE5F03AFA1969
:1059C0000886F0E7A42BFBE5F03AFA18180986F0F0
:1059D000E7A4C5F02BFBE43AFA1908E7C5F0C6A422
:1059E00026F6E5F03BFBE43AFA1886F0E7A4F6E584
:1059F000F00826F6E43B08F6E43A08F6D0E0FBD0DF
:105A0000E0FA22080808E630E71112621D125A1B5C
:105A1000080808C64480C618181822181818E9790A
:105A20009EC608CAC608CBC608CCC6C370207996E5
:105A3000CACBCC7019798ECBCC70137986CC700E12
:105A4000F9802ACA33CACB33CBCC33CC331930E7F5
:105A5000F2CCCBCA3350147004EA30E00DE4CA3AF9
:105A6000CACB3BCBCC3CCC500209C3E913C6CC1803
:105A70002313C6CB18C6CA18C6F922E4CFC0E0E487
:105A8000CEC0E0E4CDC0E0E4CCC0E075F020E62676
:105A9000F608E633F608E633F608E633F618181883
:105AA000EC33FCED33FDEE33FEEF33FFC3EC97092F
:105AB000ED9709EE9709EF97191919400FFFEC9729
:105AC000FC09ED97FD09EE97FE191906D5F0BFEC1C
:105AD000F709EDF709EEF709EFF7191919D0E0FC0E
:105AE000D0E0FDD0E0FED0E0FF222518C582C0E066
:105AF000E51934FFC583C0E0E518C3958224F8108A
:105B0000AF088583198582188008858319858218D6
:105B1000D2AFCEF0A3E520F0A37808E608F0A3DE2C
:105B2000FAEFF0A3E58124FAF8E608F0A3E608F01E
:105B3000A3E608F0A30808E608F0A3E608F0A3151A
:105B4000811581D0E0FED0E0F8158115811581E83E
:105B5000C0E0EEC0E022C0D02518C582C0E0E51943
:105B600034FFC583C0E0E518C3958224F310AF0865
:105B70008583198582188008858319858218D2AF9C
:105B8000C8F0A3E9F0A3EAF0A3EBF0A37908E709D2
:105B9000F0A3D8FAECF0A3EDF0A3EEF0A3EFF0A39E
:105BA000D0E0F0A3D0E0F0A3D0E0F0A3E520F0A394
:105BB000E5F0F0A322851983851882E0C0E0A3E018
:105BC000F9A3E0FAA3E0FBA37808E0F608A3DFFA64
:105BD000E0FCA3E0FDA3E0FEA3E0FFA3E0C0E0A3A0
:105BE000E0C0E0A3E0F5D0A3E0F520A3E0A3F5F04A
:105BF00010AF0885831985821880088583198582EE
:105C000018D2AFD082D083D0E0F8D0E0321263A1B6
:105C1000B90003025C4CE4900301787E790B8002AA
:105C2000F0A3D8FCD9FA7A7E7B0D90509478447911
:105C3000028015E493A3AD82AE838A828B83F0A3A6
:105C4000AA82AB838D828E83D8E9D9E77582A67547
:105C500083FD74011260B9758289758378740012AE
:105C600060B9E47375F0108E1A8F1B85821F8583CF
:105C70001E851882851983E0CEA3E0CF851F82851B
:105C80001E83EBC9EAC8EDCBECCAC3E833C8E933DD
:105C9000C9EA33CAEB33CBC3EA9EF51DEB9FF51C73
:105CA000B35004AB1CAA1DEC33CCED33CDD5F0DAE8
:105CB000AE1AAF1B22126319601C12632860171200
:105CC00063BF70071263B67001D322C0D01263B6EF
:105CD0007006D0D0B322C32233D0D0501430E0F6B7
:105CE000C3E7960809E7960809E7960809E796B317
:105CF0002220E0D5E6970809E6970809E697080903
:105D0000E697B322D083D082ECC0E0EDC0E0E4930C
:105D1000A3FCE493A3FDED4C600D125E28EC24FF80
:105D2000FCED34FFFD80EFE493A3FCE493A3FDEDD1
:105D30004C600D125F27EC24FFFCED34FFFD80EF7B
:105D4000D0E0FDD0E0FCE493A3C0E0E493C0E02207
:105D5000126319601B12632860161263BF7007126A
:105D600063B6600CB322C0D01263B67005D0D022E7
:105D7000C32233D0D0501330E0EBC3E7960809E7D5
:105D8000960809E7960809E7962220E0E4E69708D6
:105D900009E6970809E6970809E69722D083D0829A
:105DA000E9C0E0E493A3C386F0C5F095F0F908E4F8
:105DB00093A386F0C5F095F0700BE493A3C39940CC
:105DC00005E9048002A3E475F002A42582F582E5CA
:105DD000F03583F583D0E0F9E493A3C0E0E493C009
:105DE000E022851983851882E0A3FEE0A3F52078E0
:105DF00008E0A3F608DFFAE0A3FFE0A3C0E0E0A319
:105E0000C0E0E0A3C0E0E0A3C0E0E0A3C0E010AFCA
:105E1000088582188583198008858218858319D2A0
:105E2000AFD083D0820260BFC0E0C3E49396087411
:105E300001939618400FE493667008087401936606
:105E40001870007019A3A3C3E49396087401939685
:105E500018A3A3400DD0E0D0E0D0E0025D40A3A3A2
:105E6000A3A3A3A3D0E022D083D082C5F0E493A360
:105E7000C5F0C395F0F5F0E493A3C395F04005E5B4
:105E8000F0048001E475F002A42582F582E5F03586
:105E900083F583E493A3C0E0E493C0E0227404801C
:105EA0000474028000CCC0E0EDC0E0E518C39CCCD7
:105EB000AD1950011D10AF068C188D1980068C1875
:105EC0008D19D2AF12603BD0E0FDD0E0FC2274020D
:105ED0008000CCC0E0EDC0E0E518C39CCCAD19500B
:105EE000011D10AF068C188D1980068C188D19D2E3
:105EF000AF126019D0E0FDD0E0FC221263196025DA
:105F000012632860201263BF70030263B60808089A
:105F1000E76670101819E766700A1819E7667004CA
:105F20001819E76622F422C0E0C0F088F0E4936616
:105F300070080874019366187000A8F0A3A3700B92
:105F4000D0F0D0E0D0E0D0E0025D40A3A3D0F0D00C
:105F5000E022C0E074F2125B56AEC19004F3E0F8A8
:105F6000A3E0F9E8496010EEF99004F3E0F8A3E04B
:105F7000F5838882125C627F01025BB5D083D08298
:105F8000CCC0E0E493A3600612607B1470FAE49343
:105F9000A3600612618B1470FAD0E0FCE493A3C0F6
:105FA000E0E493C0E022C0E074F2125B56A2AFE4DA
:105FB00033FED2AFE58BA2E05003126E51758B0019
:105FC000C2E8EEF8EEA2E092AF7F01025BB5C00836
:105FD000C3E096F50808A3E096420808A3E09642BD
:105FE0000808A3E0964208A2D265D033E508700104
:105FF000D3D00822C0E0C0D0E8C0E0E9C0E0A2AF42
:10600000E433F8D2AFC2C7E8F9E8A2E092AFD0E03B
:10601000F9D0E0F8D0D0D0E032CAC0E0E493A3C514
:1060200082CCC582C583CDC583F0A3C582CCC58291
:10603000C583CDC583DAE5D0E0CA22CAC0E0E0A3BB
:10604000C582CCC582C583CDC583F0A3C582CCC52E
:1060500082C583CDC583DAE6D0E0CA22700908087C
:1060600008226016181818C6C333C608C633C608F7
:10607000C633C608C633C6D5E0EA22C0E0E493A31F
:10608000D39C5010E493A3C39C400AD0E0D0E0D04E
:10609000E0025F99A3A3A3D0E022C008C3E096F575
:1060A0000808A3E096420808A3E096420808A3E087
:1060B0009645087001D3D00822C09FF59FE473D0A5
:1060C0009F22D083D082C09FE493C0E0740193C02C
:1060D000E0740293F59F227404800A7403800674AE
:1060E0000280027401C0E0F4041260F2D0E0126396
:1060F00064222518F58210AF08F518400C15198098
:1061000008F51840021519D2AF8519832200C0D0B6
:10611000251810AF08F518500C05198008F518500F
:10612000020519D2AFD0D022BB0102E722C082C043
:106130008389828A83BB0003E08002E493D083D00A
:1061400082226016080808C6C313C618C613C618EC
:10615000C613C618C613C6D5E0EA222518F8E435DA
:1061600019F9222518FAE43519FB222518FCE43523
:1061700019FD22C3E0C696F608A3E0C696F608A36A
:10618000E0C696F608A3E0C696F622C0E0E493A324
:106190006C7009D0E0D0E0D0E0025F99A3A3D0E01A
:1061A00022251810AF08F518400C15198008F518AD
:1061B00040021519D2AF22E066701008A3E06670A5
:1061C0000A08A3E066700408A3E06622C3E096080C
:1061D000A3E09608A3E09608A3E096A2D265D03388
:1061E00022C3E096F008A3E096F008A3E096F0083A
:1061F000A3E096F022181818E60846087009E6266B
:10620000087005E633F4220822191919E70947092D
:106210007009E727097005E733F4220922181818D6
:10622000E4C396F608E496F608E496F608E496F6D3
:1062300022E026F008A3E036F008A3E036F008A339
:10624000E036F022E026F608A3E036F608A3E036B2
:10625000F608A3E036F622E627F60809E637F60840
:1062600009E637F60809E637F622700422600D18B1
:10627000C6C333C608C633C6D5E0F41822E657F6BF
:106280000809E657F60809E657F60809E657F62220
:10629000E056F608A3E056F608A3E056F608A3E099
:1062A00056F622E056F008A3E056F008A3E056F0B8
:1062B00008A3E056F022E647F60809E647F6080983
:1062C000E647F60809E647F622600D08C6A2E7137E
:1062D000C618C613C6D5E0F322C6F4C608C6F4C66F
:1062E00008C6F4C608C6F4C622C3E7960809E796AE
:1062F0000809E7960809E79622C3E09608A3E09606
:1063000008A3E09608A3E0962275D0007581407539
:10631000180175190300025C0DE6084608C3134610
:1063200008336002E633F422E7094709C31347093B
:10633000336002E733F422600C08C6C313C618C6E4
:1063400013C6D5E0F422E6F008A3E6F008A3E6F0D1
:1063500008A3E6F022E0F608A3E0F608A3E0F608BA
:10636000A3E0F622CAC0E0E6F0A308DAFAD0E0FA29
:1063700022E0FAA3E0FBA3E0FCA3E0FD22EAF0A305
:10638000EBF0A3ECF0A3EDF022E0F8A3E0F9A3E03A
:10639000FAA3E0FB22E8F0A3E9F0A3EAF0A3EBF014
:1063A00022E5C754F84401F5C77901222518F58282
:1063B000E43519F58322E72719471947194722E6DB
:1063C0002618461846184622C2AF75D69F0200000E
:1063D000221260C25E89021260C24D8A021260C23D
:1063E000A88A021260C2638B021260C26B8B021217
:1063F00060C2148C021260C2718C021260C27B8D6A
:10640000021260C2F68D021260C2418E021260C298
:10641000AB8E021260C20290021260C2229002127F
:1064200060C27B90021260C2FC90021260C2529164
:10643000021260C27592021260C23E93021260C2E2
:106440009F93021260C21D94021260C272940212E3
:1064500060C2A794021260C2D995021260C2D0969F
:10646000021260C23097021260C27997021260C2B3
:106470009B97021260C22498021260C2B698021260
:1064800060C23A99021260C25F99021260C27099AA
:10649000021260C2EC99021260C2949A021260C2A7
:1064A000ED9A021260C2C89B021260C2EC9B0212FB
:1064B00060C2109D021260C2369D021260C2839DAE
:1064C000021260C2C09D021260C2699F021260C2C5
:1064D000BDA0021260C2F9A0021260C272A1021233
:1064E00060C2B0A1021260C2CCA2021260C2E9A4D2
:1064F000021260C2F4A4021260C2FFA4021260C2BF
:106500000AA5021260C214A5021260C21FA50212DF
:1065100060C239A5021260C243A5021260C24DA535
:10652000021260C258A5021260C280A5021260C2A7
:10653000D0A5021260C2DAA5021260C2FEA5021244
:1065400060C222A6021260C288A6021260C2D8A649
:10655000021260C2F6A6021260C272A7021260C2E4
:10656000B0A7021260C2FDA7021260C270A8021298
:1065700060C24FA9021260C222AB021260C272ABAB
:10658000021260C2A2AC021260C2C8AC021260C2A7
:1065900078AE021260C211B2021260C2E7B30212F8
:1065A00060C298B5021260C22FB6021260C282B7F2
:1065B000021260C231B8021260C276B8021260C222
:1065C000E1B8021260C2EBB8021260C29CBB0212B8
:1065D00060C236BD021260C2A5BD021260C277BEA3
:1065E000021260C284BF021260C2E5C0021260C221
:1065F00004C1021260C259C1021260C25AC2021220
:1066000060C284C2021260C2DCC2021260C2C6C38F
:10661000021260C20BC4021260C254C4021260C2F1
:10662000C4C4021260C224C6021260C284C602122E
:1066300060C2A2C7021260C22FCA021260C255CA4B
:10664000021260C209CC021260C260CC021260C2A7
:1066500068CD021260C231CE021260C28BCE02122D
:1066600060C24BCF021260C2DECF021260C26AD09B
:10667000021260C2EED0021260C22D82011260C20C
:106680008082011260C2F684011260C2428501124A
:1066900060C24386011260C2AE86011260C2E38608
:1066A000011260C25288011260C2E98A011260C2FE
:1066B000148C011260C2CF8C011260C2539501127A
:1066C00060C2EB95011260C2CE98011260C2B79908
:1066D000011260C24A9A011260C26E9B011260C22E
:1066E000D49C011260C2D99D011260C2CB9F0112DD
:1066F00060C2D4A1011260C234A2011260C20AA316
:10670000011260C2C1A3011260C2CBA3011260C218
:10671000FAA3011260C2B0A4011260C295A50112D1
:1067200060C273A6011260C239A7011260C266A7D7
:10673000011260C288A7011260C2CDA9011260C215
:10674000B1AA011260C202AB011260C265AB0112B4
:1067500060C231AC011260C266AC011260C2AFAC63
:10676000011260C2E4AC011260C238AD011260C215
:1067700092AD011260C297AD011260C2EEAD01127E
:1067800060C216AE011260C21EAF011260C287AFB6
:10679000011260C2EAAF011260C264B0011260C2AD
:1067A0002EB3011260C214B4011260C29DB5011271
:1067B00060C2D8B7011260C284B8011260C236B993
:1067C000011260C276BB011260C219BC011260C224
:1067D00060BC011260C234BE011260C248BE011228
:1067E00060C252BE011260C27ABE011260C286BE91
:1067F000011260C2A4BE011260C286C0011260C252
:10680000BFC0011260C2C9C0011260C217C101122B
:1068100060C22EC2011260C267C2011260C202C30E
:10682000011260C2F0C3011260C2A4C4011260C2AE
:10683000E2C5011260C2D2C6011260C27CC7011259
:1068400060C205C8011260C21CC8011260C255C8EE
:10685000011260C25FC8011260C26AC8011260C240
:1068600088C8011260C2CCC8011260C22BC90112D3
:1068700060C252C9011260C26CC9011260C205CA6D
:10688000011260C233CB011260C2A0CB011260C200
:106890008DCC011260C2B2CC011260C221CD0112B6
:1068A00060C27FCD011260C28ACE011260C29BCF4E
:1068B000011260C23BD0011260C2FED0011260C260
:1068C0009DD1011260C223D2011260C205D3011210
:1068D00060C237D3011260C29ED3011260C271D46C
:1068E000011260C297D4011260C22AD5011260C29F
:1068F0004ED5011260C271D5011260C2BAD5011223
:1069000060C294D7011260C277D8011260C236D932
:10691000011260C292DB011260C2E2DB011260C2AE
:1069200035DC011260C2C1DC011260C263DD0112FC
:1069300060C2BADD011260C2E0DD011260C226DE73
:10694000011260C25CDE011260C291DE011260C2FF
:10695000EADE011260C24BDF011260C24EE001129A
:1069600060C280E2011260C2F4E2011260C21DE363
:10697000011260C2B6E3011260C22BE4011260C2D0
:1069800071E4011260C2ADE4011260C2D1E40112EF
:1069900060C217E5011260C234E5011260C2EBE586
:1069A000011260C21DAC051260C268AC051260C263
:1069B0007480031260C2AE80031260C26D81031244
:1069C00060C25982031260C25483031260C2D5842C
:1069D000031260C24985031260C21386031260C2AB
:1069E0002887031260C29987031260C2D5870312F9
:1069F00060C22688031260C23088031260C26E88AB
:106A0000031260C2D288031260C27289031260C28C
:106A1000EB89031260C2C28A031260C22E8B03127A
:106A200060C24A8B031260C2828B031260C2AF8BBA
:106A3000031260C24C8C031260C25C8C031260C2F1
:106A4000AF8C031260C2BB8C031260C2CC8C0312E9
:106A500060C2D58C031260C23F8D031260C2998D53
:106A6000031260C2E78D031260C2028E031260C27D
:106A7000388E031260C2598E031260C2658E0312F3
:106A800060C2E38F031260C20190031260C26A9079
:106A9000031260C27D90031260C28B90031260C229
:106AA0002D91031260C23792031260C255930312F4
:106AB00060C2CA93031260C2D493031260C24194AD
:106AC000031260C25894031260C29794031260C20A
:106AD000D894031260C20795031260C23F95031257
:106AE00060C25E95031260C27C95031260C2BD95C0
:106AF000031260C29896031260C2DE96031260C24F
:106B00000997031260C27197031260C2A49703121F
:106B100060C2DD97031260C2EB97031260C2439814
:106B2000031260C28298031260C2C298031260C24C
:106B30000699031260C22999031260C234990312A4
:106B400060C25299031260C21B9A031260C2259A56
:106B5000031260C2649A031260C27A9A031260C27E
:106B6000E99A031260C2FD9A031260C20C9C0312E0
:106B700060C21F9C031260C2349C031260C2E59C79
:106B8000031260C2579D031260C21C9E031260C2B2
:106B9000279E031260C24E9F031260C26A9F0312B7
:106BA00060C2C99F031260C207A0031260C221A085
:106BB000031260C29EA0031260C235A1031260C21C
:106BC0006CA1031260C2ACA3031260C220A4031222
:106BD00060C295A4031260C2F1A6031260C201A7AD
:106BE000031260C204A7031260C210A7031260C29E
:106BF00024A7031260C22CA7031260C261A703126C
:106C000060C225A8031260C296A8031260C2FCA845
:106C1000031260C298A9031260C231AA031260C2B3
:106C20005FAA031260C202AB031260C20EAB031272
:106C300060C23DAB031260C240AB031260C2B0AB96
:106C4000031260C2B2AC031260C292AD031260C202
:106C50001DAE031260C242AF031260C2FBAF03124B
:106C600060C234B0031260C265B0031260C26EB07D
:106C7000031260C2AAB0031260C284B1031260C2E0
:106C800036B2031260C2C8B2031260C285B30312E7
:106C900060C204B4031260C236B4031260C275B499
:106CA000031260C2E1A6041260C2F6A6041260C21A
:106CB000AEA7041260C2F4A7041260C273A8041243
:106CC00060C2EFAB041260C26AAE041260C226B2A8
:106CD000041260C26BB2041260C297B2041260C2A6
:106CE00021B3041260C277B3041260C2AAB30412C3
:106CF00060C2E9B3041260C217B4041260C26AB47D
:106D0000041260C23DD1041260C247D1041260C2B5
:106D10004CD1041260C205D3041260C208D304121D
:106D200060C228D3041260C23DD3041260C240D3B3
:106D3000041260C243D3041260C246D3041260C27C
:106D400049D3041260C2C1D3041260C20D8302127F
:106D500060C28ED5041260C29ED5041260C2E6D510
:106D6000041260C267D6041260C2EAD6041260C27E
:106D7000EBD7041260C214D8041260C28AD804127D
:106D800060C2B486051260C24889051260C2B0892B
:106D9000051260C2BE89051260C2D289051260C2A6
:106DA000E389051260C2E4F3031260C248F40312DF
:106DB00060C2B6F4031260C2C7F4031260C2B1F637
:106DC000031260C2F2F6031260C25489021260C25A
:106DD00066F7031260C200FF031260C246FF03128F
:106DE00060C271FF031260C2BC95051260C2F697C3
:106DF000051260C22CAE051260C23DAE051260C223
:106E00001C7E001260C22A7E001260C2D6AE05123D
:106E100060C20FA9051260C21FA9051260C239A97C
:106E2000051260C2D2A9051260C2068D051260C2A9
:106E3000AA8D051260C2EC8F051260C2B6FE021266
:106E400060C2E3FE021260C253FF021260C26AFF18
:106E5000021260C2B5FF021260C2ACE8041260C246
:106E6000C5E8041260C25AE9041260C244EA04127E
:106E700060C2E9EC041260C22EF8021260C296F8F9
:106E8000021260C2B5F9021260C205FA021260C2B3
:106E900031FA021260C24AFA021260C268FA0212A1
:106EA00060C205FB021260C231FC021260C2DCFC4F
:106EB000021260C2D7FD021260C232FE021260C22C
:106EC00074FE021260C26498051260C296980512A0
:106ED00060C2A798051260C2F198051260C23C9981
:106EE000051260C28799051260C2049A051260C239
:106EF0002B9A051260C20080051260C23A8005120A
:106F000060C2A280051260C2D080051260C21D81DD
:106F1000051260C24F81051260C28A81051260C2EB
:106F2000B481051260C2DA81051260C23D82051289
:106F300060C26B82051260C20183051260C21983B0
:106F4000051260C22E83051260C259AD051260C2DF
:106F500076AD051260C249ED041260C2D7EE04128C
:106F600060C2E5EE041260C205EF041260C22EEFAB
:106F7000041260C28BEF041260C2E7EF041260C219
:106F80007CF0041260C201F1041260C282F10412AA
:106F900060C296F1041260C2A9F1041260C2D5A9C0
:106FA000051260C206AA051260C237AA051260C2A5
:106FB00064AA051260C26683051260C28D83051241
:106FC00060C2B883051260C25884051260C2F68997
:106FD000051260C2198A051260C22B8A051260C2AE
:106FE000398A051260C2628A051260C27E8A051261
:106FF00060C29A8A051260C2B58A051260C22B8BE4
:10700000051260C26E8B051260C2A58B051260C2AC
:10701000FA8B051260C24F8C051260C27D8C05127E
:1070200060C28B8C051260C2A58C051260C2F38C05
:10703000051260C282FF031260C2EFB4041260C284
:1070400038B5041260C264B5041260C27DB5041282
:1070500060C29DB5041260C211B6041260C24BB684
:10706000041260C2B5BA041260C25ABC041260C2F3
:107070009CBC041260C2FDBC041260C21BBE0412A0
:1070800060C24BBE041260C265BE041260C279BE0B
:10709000041260C2C9BE041260C22CBF041260C2D6
:1070A00041BF041260C270A0051260C287A0051221
:1070B00060C2B0A0051260C2D6A0051260C203A1D2
:1070C000051260C233A1051260C254A1051260C24C
:1070D0008BA1051260C2B3A1051260C20EAD0512EC
:1070E00060C2CBF1041260C2E2F1041260C249F343
:1070F000041260C27EF3041260C2A6F3041260C2DE
:10710000D3F3041260C2ECF3041260C22DF4041233
:1071100060C2AAF4041260C2F6F4041260C24AF516
:10712000041260C281F5041260C2A7F5041260C2A5
:10713000CFA4051260C2F5A4051260C226A60512EE
:1071400060C229A6051260C24AA7051260C273A7D1
:10715000051260C292A7051260C2B2A7051260C2F2
:1071600010A8051260C236A8051260C27BBF0412C7
:1071700060C2D8BF041260C286C0041260C2AFC031
:10718000041260C2D3C1041260C2E1C1041260C221
:1071900043C2041260C281C2041260C206C3041258
:1071A00060C2ABC3041260C2FEC3041260C281C4D9
:1071B000041260C2F1C4041260C22AC5041260C283
:1071C000B5C5041260C247C6041260C29EC604124E
:1071D00060C2FCC6041260C20EC7041260C220C79F
:1071E000041260C246C7041260C24FC7041260C2D4
:1071F00092C8041260C264A3051260C273A405128F
:1072000060C2E892051260C22D93051260C27A93A3
:10721000051260C24395051260C2B9D6031260C25E
:1072200079D8031260C2C8D8031260C271DB03129E
:1072300060C2D6DB031260C2FEDE031260C264DFEE
:10724000031260C2A0E1031260C28CE2031260C2AA
:10725000EFE2031260C27FE3031260C233E4031261
:1072600060C28CE4031260C2EBE4031260C24AE520
:10727000031260C253E7031260C255E9031260C2F1
:1072800043EC031260C285EC031260C2E5EC03120A
:1072900060C2F7EC031260C26CED031260C222EE12
:1072A000031260C200F3031260C201AE051260C295
:1072B0001CAE051260C232DF041260C252DF04123B
:1072C00060C265E0041260C2AFE0041260C2CDE0AB
:1072D000041260C212E1041260C271E1041260C2C1
:1072E000B7E1041260C205E2041260C2ECE30412CA
:1072F00060C2F5A1051260C28FA2051260C2F3A29E
:10730000051260C236A3051260C203C9041260C22E
:1073100013C9041260C223C9041260C229C904122D
:1073200060C286C9041260C276CA041260C2BACAB8
:10733000041260C2EBCA041260C2FCCA041260C22A
:1073400011CB041260C22ACB041260C23FCB0412DC
:1073500060C260CB041260C2A4CB041260C252CEE1
:10736000041260C29CCF041260C268D0041260C2D2
:10737000BED0041260C2FA7F001260C20080041204
:1073800060C26680041260C27780041260C2AA8163
:10739000041260C27482041260C2D682041260C2F7
:1073A0005383041260C25683041260C26F830412B6
:1073B00060C20886041260C24087041260C2A687B9
:1073C000041260C2098A041260C2288A041260C2D0
:1073D0007F8A041260C2C48A041260C2348B041211
:1073E00060C24C8B041260C2778B041260C2DB8BCC
:1073F000041260C2378C041260C2AC8D041260C2E9
:10740000F38D041260C26091041260C2A79104124D
:1074100060C25392041260C27492041260C28D92D0
:10742000041260C2EC92041260C25593041260C24E
:107430003994041260C28094041260C28E940412C3
:1074400060C29194041260C22095041260C25295E9
:10745000041260C28795041260C2CF95041260C204
:10746000D295041260C2DC95041260C23B960412ED
:1074700060C2969A051260C2A79A051260C2849BE8
:10748000051260C23ED1021260C261D1021260C216
:1074900081D1021260C208D3021260C28FD30212DD
:1074A00060C2FAD3021260C2D0D4021260C266D5A2
:1074B000021260C21AD6021260C2CED6021260C296
:1074C000D9D7021260C2ACD8021260C215D902121A
:1074D00060C236E0021260C273E2021260C2BAE217
:1074E000021260C2BDE2021260C2CAE4021260C2AD
:1074F00083E9021260C2E4EA021260C2E5EC021201
:1075000060C299F1021260C2AEF1021260C21BF4B5
:10751000021260C22FF5021260C2C0F6021260C2EF
:10752000ABF7021260C23FE6011260C220E701120F
:1075300060C2E6E7011260C2A7E8011260C259E921
:10754000011260C204EA011260C21EEF011260C2A1
:1075500084F1011260C299F2011260C253F6011265
:1075600060C288F7011260C230F8011260C2FEF9F1
:10757000011260C2E4FA011260C203FC011260C28F
:1075800057AE051260C266AE051260C274AE051237
:1075900060C26EFD041260C2F4FD041260C228FED7
:1075A000041260C2F6FE041260C264FF041260C2DC
:1075B000FDE3041260C21FE4041260C27CE4041202
:1075C00060C2AAE4041260C2D4E4041260C2F7E408
:1075D000041260C218E5041260C23BE5041260C2E6
:1075E0004CE6041260C298E6041260C2AFE60412D0
:1075F00060C2C0E7041260C2D5E7041260C2F2E7BD
:10760000041260C20FE8041260C222E8041260C2D1
:1076100018D9041260C291DE041260C2B1DE0412F5
:1076200060C229FE011260C246FE011260C2FAFF6A
:10763000011260C244A8051260C247A8051260C2C8
:1076400083A8051260C2D4A8051260C2EBF9041227
:1076500060C2B49E051260C2CD9E051260C2159F25
:10766000051260C2609F051260C29AAE051260C228
:107670002BAB051260C20790051260C22CA6051242
:1076800060C2BCAB051260C27B96041260C28E9BC6
:10769000041260C2A59C051260C2C2AC051260C291
:1076A000D5AD051260C201F6041260C295AA05129A
:1076B00060C2BFAA051260C279AE051260C29AAD5F
:1076C000051260C2B8AE051260C272AC051260C28B
:1076D000EA82021260C2A682021260C26B820212A9
:1076E00060C24782021260C22C82021260C2D48140
:1076F000021260C22B81021260C2A680021260C216
:107700004880021260C24289021260C224890212B9
:1077100060C21780021260C20580021260C2F8883F
:10772000021260C2D688021260C293D6031260C2EF
:1077300074D6031260C288D5031260C2E8D4031263
:1077400060C2ABD3031260C23FD1031260C2D4D077
:10775000031260C28ED0031260C255CD031260C204
:1077600021CD031260C2DBCC031260C2B1CC031284
:1077700060C2F3CB031260C2A3CB031260C2F1C993
:10778000031260C25EC9031260C25BC9031260C209
:1077900057C8031260C223C8031260C24EC7031247
:1077A00060C282C5031260C26088021260C23A875A
:1077B000021260C2FE86021260C2B286021260C26B
:1077C0008E86021260C26786021260C2AE85021205
:1077D00060C23DC5031260C20FC5031260C20CC572
:1077E000031260C2F9C4031260C2F084021260C2C4
:1077F000B8C4031260C2ABC4031260C294C30312C4
:1078000060C21EC3031260C23584021260C2E4C2A9
:10781000031260C212F7031260C288C2031260C270
:1078200057C2031260C212BF031260C2D0BE03125D
:1078300060C2C4BE031260C21FBE031260C257BD45
:10784000031260C215BB031260C292B8031260C279
:1078500050B8031260C217B7031260C2C3B6031256
:1078600060C203B6031260C2D4B5031260C215B57C
:10787000031260C25883021260C2E5B4031260C2F0
:10788000ABB4031260C26BD40400000080FB8F0015
:107890000100110D87000100100D24000200F80DF9
:1078A00025000200FA0D26000200FC0D2700020050
:1078B000FE0D28000100000E29000100010E8400C9
:1078C0000400020E86000100060E2A000100070EC9
:1078D0002B000100080E2C0001000B0E2D000800EB
:1078E000FC0C2E0001000C0E2F0001000D0E3000CC
:1078F00001000E0E310001000F0E32000100040DD8
:1079000033000100050D34000100100E36000100A7
:10791000060D38000100110E390001000A0E830027
:1079200002001E0E630001000F0D64000100F90C3F
:1079300065000100090E6D0001001D0E6E000200C1
:10794000FA0C43000100120E44000200130E450021
:107950000100150E46000200160E47000800070D34
:1079600048000100180E490001001A0E4A000200EA
:107970001B0E4B000100190E04000100200EA10097
:107980000100230E37000100220E88000100210EA5
:107990000000000000000001363601010001020174
:1079A00000010301000104010606050200000701B1
:1079B00000340801000F090401010D0100FF0E0849
:1079C000000017020000190100FF1A0100011B014D
:1079D00000FE1C0100081D0200001F010001200123
:1079E0000001210200002301000F240200002601F3
:1079F000000127010008280200FF2A0100072B01CF
:107A000002402C0100002D0100012E0100012F0178
:107A100000FF30010B1C310800003A0100083B0157
:107A2000000F2F01000000202020202020202020F7
:107A3000282828282820202020202020202020201E
:107A4000202020202020208810101010101010104E
:107A50001010101010101004040404040404040492
:107A6000041010101010101041414141414101011A
:107A700001010101010101010101010101010101F6
:107A80000101101010101010424242424242020204
:107A900002020202020202020202020202020202C6
:107AA0000202101010102003027102300160021156
:107AB0000270020102020202028002100261023A16
:107AC0000041006302730272026202430200021369
:107AD000023800000200020402120200020002004A
:107AE00002000204020402370037003C0244020094
:107AF0000239000002000265020002350281020024
:107B000002050282028302000201017101010101EA
:107B10000111010101310101010101800110016127
:107B2000013B001400630173017201620143010013
:107B300001130106013D013500040112010001009D
:107B4000010001000104010401330133013C01443F
:107B5000013201360000010001650100013500819C
:107B60000100010501820183010001030071003061
:107B700001600011007000310220035004800010E9
:107B80000061000000140063007300720062004393
:107B900000000013000600000000000400120000B6
:107BA0000000000000000004000400370037003C23
:107BB00002440000000000000000006500000035E5
:107BC0000081000000050000008300000003047134
:107BD000040204600411047004020402040104029B
:107BE0000410046104000414046304730472046246
:107BF00004430400041304060400040004040412F3
:107C000004000400040004000451046400000400A3
:107C1000040004440400040004000400046504009B
:107C20000435048104640005040004830400040195
:107C30000371030103010301030103010322030292
:107C4000030103100300030003000300030003000B
:107C5000030003420300032403060300030003049C
:107C60000312032503230325032303040304030052
:107C70000300030003440300030003230300036520
:107C80000321003503810300030503000300030003
:107C90000336000100060000000F00000000000095
:107CA0000000000000000003FFFF00000403FFFFCE
:107CB0000000FFFF0FF4010005C4040320000100D1
:107CC000000B000000000000000003010F00004155
:107CD000751300E174010041750200AB740300B13B
:107CE000740400B7740500BD740600C974FFFF007A
:107CF0000001BF6606F56608EF660B0D67103B6670
:107D000002C56605E36607CB660CA1660DB366FF88
:107D10000000EB6A1B6BF16AF76A156B096B036B6A
:107D2000216B276B2D6B396BFD6AE56ADF6A03EA0D
:107D3000F5E5D5D5C5B5A595958585757565655563
:107D40005545453535252515150500160F00000B41
:107D5000150B020002220F32000006DB6BED6BF305
:107D60006BB56AF96BAF6ABB6AEF69E969256A2B83
:107D70006A1F6AD7693B6C596C5F6C416C4D6C47EC
:107D80006C00011916181616152303000C0E020BB1
:107D9000040B0A0708000F00034948424D18172535
:107DA0000502303017181921301B1D1F30303016D6
:107DB000181920231A1C1E3000383C3E363B3B3538
:107DC0002B432C0F6B336B536C3F6B456B2F6CFF4E
:107DD0006B056C116C0B6C020402010101010902BC
:107DE000FB69016AF569316A0005150D091008047F
:107DF000076A196A00BE040A15000E0004007F001D
:107E000028000C00E803100C0A030809000400080D
:107E1000FF1E1E09030401000C080F05C082C08369
:107E2000126E03D083D0820260BF74F4125AEA74D7
:107E3000F61261A1C2AF53BEFBE59DA2E650FA0067
:107E400078007900C3E894F8E9940150080008E844
:107E500070F20980EF75C600E59E70FC43BE049089
:107E600062707408F0D29043FE01D29143FE02D2B8
:107E70009243FE04438F08D290D291D292D2A07A3C
:107E8000007C007D007E007F00851882851983ECD0
:107E9000F0A3EDF0A3EEF0A3EFF09081DC780812F0
:107EA000635585188285198378081262F9501590F8
:107EB00081E878081263558518828519837808123D
:107EC000623180D6A2905004C2908002D290A291DA
:107ED0005004C2918002D291A2925004C2928002B8
:107EE000D292A2A05004C2A08002D2A09005C4E009
:107EF00060099005C47400F0027FF0A29240030A6A
:107F000080027A00740A6A6003027E81D290D29164
:107F1000D292D2A078007900C3E894F4E99401A247
:107F2000D265D033500FA29240047800790008E85F
:107F300070E60980E39061A3E0C0E074081263ACCE
:107F4000D0E0F09061A4E0C0E074091263ACD0E02E
:107F5000F0900683E0C0E074061263ACD0E0F090CD
:107F6000066EE0C0E074071263ACD0E0F07B007CEA
:107F700000ECC394065074A29240FCC290C291C21D
:107F800092EB7004C2A08002D2A078007900C3E80E
:107F900094F4E99401A2D265D033500FA292400428
:107FA0007800790008E870E60980E3D290D291D297
:107FB00092D2A07508017509007407C39B78081256
:107FC000626AECF8790074041263ACE58228F582E9
:107FD000E58339F583E055086004C2908002D290B1
:107FE0000B74086B708B7B000C8086D290027E7FB6
:107FF000740A12610D7F04025DE279FF0260BFFF27
:020000040001F9
:108000002B4D41433A253032583A253032583A25E3
:108010003032583A253032583A253032583A2530E5
:1080200032583A253032583A253032580D0A004538
:1080300052523A2042616420636F6D6D616E640D2F
:108040000A002B4C4F474943414C545950453A255F
:10805000750D0A0000000000000000000000000094
:108060000000000041542B4C4F474943414C5459A8
:108070005045002B4348414E4E454C3A25750D0A5C
:10808000002B524543563A25752C25640D0A002BCA
:1080900048573A4343323533300D0A008D6B7D66C5
:1080A0001B6E6B78857355732B50414E49443A25AE
:1080B000750D0A0002100F01000102088202008201
:1080C0002B53454E443A25750D0A002B5253534904
:1080D0003A25640D0A0041542B545950453F0D0A6E
:1080E0000041542B4348414E4E454C002B4C494EC9
:1080F0004B3A25750D0A002B4C51493A25640D0A5F
:108100000041542B4C494E4B3F0041542B52455398
:1081100045540000000000000000000025303258E7
:10812000253032580041542B53454E443D004154B4
:108130002B525353493F0041542B50414E49440068
:1081400041542B4941503D00FFFFFFFFFFFFFFFF60
:108150004348414E4E454C0041542B4D41433F0056
:10816000000000000000000041542B4C51493F002A
:10817000FFFFFFFFFFFFFFFF41542B48573F002544
:10818000733D25732C002B5244590D0A0082003A8E
:10819000003B0050414E4944004543484F00525374
:1081A0005349004F4B0D0A00050805000141544595
:1081B00030004154453100545950450000001646E6
:1081C0000000964554504E001000000049415000F8
:1081D000415050000000964600001647005800002D
:1081E00000009647640000000100000000000C0041
:1081F00000006148000000FF080000000000E041AE
:1082000001800280300000000100020000000040F8
:10821000000080C3000000004C514900504E002572
:1082200075004154002564003E003F000674F712BB
:108230005AEAE99003CDF0E4900382F012712D9098
:1082400003E1E4F0A3F09003CEF0A3F0126917125B
:1082500077BD126569127133900344E4F0A3F09086
:1082600003FEE07002A3E060099003FE12C0D71283
:108270005C62907E1AE493FA79021275EF02CCAD3B
:1082800074F2125AEAEAFEEBFF74805FF9E47001BF
:10829000E960679003CDE0F91271998A088B09EAC9
:1082A0007001EB604C7C0080010CEC75F003A4A91C
:1082B000F024F1F582E9347CF583E49364FF602ACD
:1082C000E493FA8508828B83E06A70DDAA08EC7576
:1082D000F003A424F2F582E9347CF583E493C0E052
:1082E000740193F583D082125C62AA08AB09127103
:1082F0008DEEFA74806FFB0284D574205FF9E47010
:1083000001E9601D12678B8A088B09EA7001EB6036
:108310000A1266B3AA08AB0912718DEEFA742080B6
:10832000D4EE54207003028406750A0012AC197052
:1083300001EB700B7C027D007A207B0012D5B17CB2
:108340000079047A007B001267558A088B0980182F
:108350007401850882850983A3A3A3A3A3A3A3A370
:10836000A3F0850C08850D09E5087002E509607128
:108370007C007904AA08AB091267558A0C8B0D752D
:108380000A01E5082404F8E5091294BB24FFF0A3D0
:10839000E034FF12BB6F7002A3E070C685088285CF
:1083A0000983A3A3A3A3A3A3A3A3A3A3E06401702E
:1083B0009F850882850983A3A3A3A3A3A3E05404F4
:1083C000708E7406850882850983A3A3A3A3A3A343
:1083D000A3A3A3F07AB78508828509831286388023
:1083E000811267257C0079017A007B00126755EACB
:1083F0007001EB7009E50A70057A201284D77420A9
:108400006EFAEF0282F6EE541060071265A5741042
:1084100080EEEE54406007126623744080E2EE5412
:108420008060071264AF748080D674015FF9E470D5
:1084300001E9601A900400E07002A3E06009900472
:108440000012C0D7125C62EEFA74010282F5740861
:108450005FF9E47001E9602D126575900D04E06428
:1084600001701B900D05E06015FC75F0E8A4CCAA26
:10847000F075F003A42AFD7A007B0812D5B1EEFA5C
:1084800074080282F574105FF9E47001E9601290DB
:1084900003DFE06005E4F0126575EEFA7410028205
:1084A000F574025FF9E47001E9600A1268E1EEFA1E
:1084B00074020282F574045FF9E47001E96012123B
:1084C000C47C12C2EE79011299ADEEFA74040282F4
:1084D000F57A007B0080127B009003CDE0F91272E8
:1084E000D722A90A740312610D7F06025DE27402AD
:1084F00012610D02BC5974F7125AEA74E11261A1BB
:10850000EAFEEBFFEE7001EF603385188285198378
:10851000AC82AD831267BB74061263ACE0601E745C
:10852000171263ACE0FD74011263ACE0FCEEFAEFED
:10853000FB790012772DE9600479A48002790002AA
:10854000CCA874F6125AEAEAFEEBFF8E828F83A360
:10855000A3A3A3A3A3E05440601312C0D312883294
:1085600060067AFF7BFF806912862C805A90036D2B
:10857000E0A2E1504F128AD91294CEE0FA12C486DA
:10858000A3A3E0F9EAFCE9FD8E828F83A3A3A3A352
:10859000A3A3A3E05410F9E47001E96004794080DA
:1085A0000279007508FE7509FF78081260DFEE2475
:1085B0000E1294AA125EA112862C12657B7404120C
:1085C000610D80031267DF74FE6A700374FF6B60D5
:1085D0004312C0D312C9FF12685DE98E828F836097
:1085E00006128625E480051286257401F07C837DC1
:1085F000668E828F8312CB881275E9E9F5087017B1
:10860000EE7001EF60097901EEFAEFFB126731A914
:108610000802C0EF7508CDAA088E828F83128638B3
:10862000E960DD80EAE0240D12B592228E828F830C
:1086300012AEFCFAA3E0FB22E0240C128AE4F91249
:10864000668F2274F6125AEAE9FEEAFF7A0F7B007F
:10865000127187EA7001EB6019740C8A828B83F0C7
:10866000EEA3A3F0EF8A828B83A3F012C2D9790024
:108670008028EEF912675B8A088B09A808A909E827
:108680007001E9601374068882898312E033E0F98F
:10869000126635EEF9126737791002C0EFEAFCEB8B
:1086A000FD7A017B009003CDE0F91272CB22C082EB
:1086B000C083790090036DE0A2E1EA500E12AEE9AA
:1086C000125F7C01010ADF8600E08612AEE9125FCC
:1086D0007C010304DF860207DF860ADF86E0860965
:1086E00002BC5974F2125AEAEAFEEBFF8C088D09BB
:1086F000890A740E1263AC12D0DF850C82F583E414
:10870000F0A3F0128816602012883F701B8E828FB3
:1087100083A3A3A3A3A3A3A3A3A312B3F6850C824D
:10872000850D8312C2EE8003750A00EE241DF582CA
:10873000EF12AEEE125E670109D2874F876C878712
:108740008792877987B587D287DC87F6870A88780A
:108750000C1260DFAC08AD09EEFAEFFB12658D7408
:108760000212610DE9F50AA90A0284E9AC08AD0913
:10877000EEFAEFFB12659380EE1288257054EEFA44
:10878000EFFB1265DB80E0A90AEEFAEFFB12689FAF
:1087900080D2EE2417128BF864027036E50A700A54
:1087A00012D45E7003A3E06970BDEEFAEFFBA90A74
:1087B00012682D80AF12D45E7003A3E0697013EECF
:1087C0002417128BF864027009EEFAEFFB12681599
:1087D0008095750A00790112713F808B900402E048
:1087E0007002A3E06081EEFAEFFB90040212C0D7A2
:1087F000125C6202876712D45E7003A3E06970D2D4
:10880000EEFAEFFB1268AB028767EEFAEFFBA90AFC
:108810001268B7028764EE241D12DB5C12AEFCF90D
:1088200012683FE9228E828F83A3A3A3A3A3A3A3ED
:10883000A3A31288362212A3F5FB12685DE9228EEB
:10884000828F83A3A3A3A3A3A3A3A3A312883664A5
:10885000022274F4125AEA74DE1261A18A088B09AA
:108860008A828B83A3A3E0F912675B8A0A8B0BAE23
:108870000AAF0BEE7001EF700302896885088285EC
:108880000983A3E064F16033850882850983A3E04E
:1088900064CD6027850882850983A3E0641A601B84
:1088A000850882850983A3E064E9600F85088285D5
:1088B0000983A3E064E16003028A108E828F83A3A0
:1088C000A3A3A3A3A3A3E05408F9E47001E97003F0
:1088D00002897074058E828F83A3A3A3A3A3A3A38D
:1088E000A3A3F0900406E07002A3E06009900406E0
:1088F00012C0D7125C62900408E07002A3E06039F5
:1089000090036DE0A2E150318E828F8312DB3CA395
:10891000A3A3A3A3A3A3A312AD2588828983129442
:10892000C7EA7001EB6012850882850983A3E0F92C
:1089300090040812C0D7125C628E828F83A3A3A317
:10894000A3A3A3A3A3A3E06402701074068E828F76
:1089500083A3A3A3A3A3A3A3A3A3F085088285094C
:1089600083A3A3E0F9126737126725742202AC29AA
:108970007900126731E97003028A1090036DE0A25A
:10898000E140030288E3128AD97002A3E070030277
:1089900088E38E828F8312CB8874031263AC12D269
:1089A00008850882850983A3E064E9701B128AC8E0
:1089B0001260E3850882850983A3E0F50A780A122C
:1089C00060E3129FAC12610D740C1263AC128ABE8C
:1089D00012A3F5F5838A8212C2EE74081263ACE02A
:1089E0006004794080027900740E1263AC12AD25E8
:1089F000740C1263AC1294BF70030288E38E828FF2
:108A000083A3A3A3A3A3A3E04420F0A3E00288E2EE
:108A1000850882850983A3E0C0E074021263ACD0AC
:108A2000E012951812D398EE240B128BF885188259
:108A3000851983AA82AB8370051264DF80031268F4
:108A40003974021263ACE064E97014128AC81260CF
:108A5000E3750AE9780A1260E3129FAC12610D9087
:108A6000036DE0A2E140030289398E828F83A3A3C4
:108A7000A3A3A3A3A3A3A3E0640270298E828F8380
:108A8000A3A3A3A3A3A3E05404601A12C0D3128823
:108A900032700D12C0D374FFF0A3F0740502894D3B
:108AA000740302894D850882850983A3E064E96027
:108AB00003028939EEFAEFFB1268BD028939E0F84A
:108AC000A3E0F98E828F83228E828F8312B40AE80C
:108AD000FAE9FB750A01780A22128ADD228E828F5A
:108AE00083E0241C12B596E02274F4125AEAEAFEDE
:108AF000EBFF7508007509008E828F83A3A3A3A3E3
:108B0000A3E060407508088E828F83A3A3A3A3A36C
:108B1000A3A3A312B3187001EB601075082C8E820A
:108B20008F83A3A3A3A3A3E0D2E0F08E828F83A3BD
:108B3000A3A3A3A3E0540364016003028BE04308F2
:108B400011028BE0EE2418128BF86040EE241A120A
:108B50008BF8701C12D45E7003A3E0697005750871
:108B600022807D900382E064047075750901807035
:108B7000EE241BF582EF128C07241A128BFFEE24D1
:108B8000191294B11265EDE9705680DF12883F70BA
:108B90000375080112D45E7003A3E0697006E5084E
:108BA000D2E1F508E50860158E828F83A3A3E070FB
:108BB00006E508D2E58004E508D2E6F50812882526
:108BC00064017006E508D2E0F5088E828F83A3A3C6
:108BD000E0600D12881664016006E508C2E0F50841
:108BE000E508A2E1400AE5097006E508D2E7F508C4
:108BF000A90802AC2CEE240FF582EF12AF1822F573
:108C000082EF12AF18FA223400128C0D22F5831273
:108C1000AD2DEE22C082C08379018A828B83A3A30B
:108C2000E0C394024001198A828B83A3A3A3A3E02B
:108C3000C39402400279008A828B83A3A3A3A3A3D7
:108C4000A3A3A3A3E064F87004A3E064FF60488AD0
:108C5000828B83A3A3A3A3A3A3A3A3A3E064F9701C
:108C600004A3E064FF60308A828B83A3A3A3A3A341
:108C7000A3A3A3A3E064FA7004A3E064FF60188ACE
:108C8000828B83A3A3A3A3A3A3A3A3A3E064FB70EA
:108C900004A3E064FF700279008A828B83A3A3A3FC
:108CA000E0FC900370E06C60027900907E12E49327
:108CB000C394805017E493C333C0E0EA2411F582D3
:108CC000EB128C02D0E0C39A5002790002BC5974B6
:108CD000EA125AEA74DC1261A1EAFEEBFF74031295
:108CE00063AC12C3E875140075150074051263AC0B
:108CF000AC82AD838E828F83A3A3A3128AC012CBD2
:108D0000861267BBE9600F74051263ACAA82AB835D
:108D10001266ADE97008790112713F0292ABEE2440
:108D20001B12B3F074121263AC12C2EE740B126316
:108D3000ACE06021741C1263ACE0FD74061263ACFD
:108D4000E0FC8E828F8312CB86790112772DE96049
:108D500004790280C374051263ACAA82AB831266E5
:108D6000A7E9F509740B1263ACE0702A90036AE07E
:108D70006024742255096422601C744255096442BF
:108D800070CF74221263AC1294E0600A74221263F2
:108D9000AC1294E670BBE9A2E6503C74051263ACD9
:108DA000AA82AB83126695E97003028D16742212B3
:108DB00063AC1294DA700C74221263AC12C776643E
:108DC0000D601474051263ACAA82AB83126893E938
:108DD000640170030292ABEE242C1294AA129B68D9
:108DE0007003A3E069701C75080078081260E378CE
:108DF000081260E3EE242E1294B11294ED129FC279
:108E000012610D740B1263ACE07003028EB7129402
:108E1000ED1294C78A0A8B0BEA7001EB7003028F84
:108E20004474061263ACE0F88E828F83A3A3E0281B
:108E3000F8A3E03400F9740D28F582E439F583E0F5
:108E4000FA850A828B83A3A3A3E06A601AEA850AE3
:108E5000828B83A3A3A3F0908214780C12635585B0
:108E60000A828B83129524790474061263AC12D1A2
:108E7000742AFCA3E034008C82F583A3AA82AB831E
:108E800012717B8A0C8B0D8C0E8D0F850A82850BDF
:108E900083A3A3A3A378101263557810790C1262F0
:108EA000E950030292AB9081E8780C126244850A83
:108EB00082850B8312952490036DE0A2E15003029A
:108EC0008FE0900382E064046008E06409600302BC
:108ED00092ABE509A2E54003028F8812953AC0E003
:108EE00074011263ACD0E0129532C0E074021263D8
:108EF000ACD0E0F074161263ACE064017020741022
:108F00001263AC1294FE7003A3E0697011740E1228
:108F100063AC12884C700774161263ACE4F0EE2454
:108F2000241294AA125E9D74041263ACAC82AD83C9
:108F300074091263ACAA82AB831264E574041261F3
:108F40000D0292AB9003C7E064016003028EB77418
:108F5000221263AC1294E07009E509A2E650030204
:108F60008EB774121263ACE064FF7004A3E064FF78
:108F700070030292ABEEFCEFFD74051263ACAA82A3
:108F8000AB831266B90292ABA2E640030292AB74C5
:108F9000221263AC12C7F7701E741C1263ACE0643B
:108FA0000260030292AB74051263ACAA82AB8379B0
:108FB0000012682D0292AB74221263AC1294E66028
:108FC000030292AB741C1263ACE06404600302926F
:108FD000AB74051263ACAA82AB831268210292AB18
:108FE00074161263ACE06021EE24021294B912945C
:108FF000CEA3A3E01412BB6FF8A3129A46C0E0748C
:10900000161263ACD0E0F07006E509C2E7F509E599
:1090100009A2E35064751510A2E25018740A126395
:10902000ACE054E3F0740A1263ACE0131313541F62
:10903000FAE0802FA2E4502D740A1263ACE0541CB5
:109040001313543FFA600974076A600A1AEA70063B
:10905000E509C2E7F509EA333354FCC0E0E054E324
:10906000FAD0E04AF0740A1263ACE0C0E08E828F5E
:1090700083A3A312AAA8D0E0F0900382E064046066
:1090800005E064097068740E1263AC12D46B70034F
:10909000A3E0696019740E1263AC12884C600F74FF
:1090A0000A1263ACE05403640160030292AB7407DC
:1090B0001263ACE0701B12953AC0E074011263AC0D
:1090C000D0E0129532C0E074021263ACD0E0028F9F
:1090D0001D74221263AC12C7F77003028F997422B9
:1090E0001263AC1294E660030292AB028FC475085F
:1090F000007461550970030292B0E509A2E0507551
:1091000012AD1F74051263ACAA82AB83126629E903
:1091100070601267EBE9F50874161263ACE0700F2B
:1091200074101263AC1294FE7003A3E069604612DF
:10913000AD1D74051263ACAA82AB8312662FE96081
:1091400026E509A2E3500B74031263AC74FFF0A38D
:10915000800F740E1263AC12CD791263ACE8F0A3E9
:10916000E9F0751404800EE509C2E5F509750800FB
:10917000800353099FE509A2E5503C12953AC0E0EF
:1091800074011263ACD0E0129532C0E07402126335
:10919000ACD0E0F0EE24241294AA125E9D74041266
:1091A00063ACAC82AD8374091263ACAA82AB831248
:1091B00064E5740412610DE509A2E6503B740312E4
:1091C00063AC85820A85830B780A1260DF12AD1DBD
:1091D00074071263ACAA82AB8312669B740212619D
:1091E0000DE9F508601274221263AC12AEF164014D
:1091F000700674104514F51474031263ACE064FE39
:109200007004A3E064FF7003750800E509A2E7405D
:10921000030292ABE50870030292AB8E828F83A3A8
:10922000A3A3A312B7A48A0A8B0BEA7001EB607B9D
:10923000EE2404F510EF3400F5118E828F83A31213
:1092400095091260DB851082851183E0FC7D001298
:10925000BB2B12610D74071263AC12954A74011294
:1092600063ACE4F012951785820C85830D780C129F
:1092700060DF78141260DF78081260E3EE241212C7
:1092800094AA125EA1851082851183E0F9740A12F6
:1092900063AC12AD25AA0AAB0B1267A37407126167
:1092A0000DE96007AA0AAB0B127211742402B5868D
:1092B00074071263ACE06401703474221263AC1260
:1092C000AEF16405702874031263AC85820885834F
:1092D0000978081260DF790012AD1F74071263ACC1
:1092E000AA82AB8312669B740212610D80BD741654
:1092F0001263ACE0700F74221263AC1294DA600354
:10930000028F7580A612672BE970A0741D1263ACE2
:10931000E070030293E274201263AC12AD25741F57
:109320001263ACE0FA741E1263ACE0F91265EDE969
:1093300070030293CA741F1263ACE0701E740E12A5
:1093400063AC12CD791263AC12C2EE74031263AC3B
:1093500012A49FEA7001EB7068806374201263AC02
:1093600012CB88741F1263ACE0F91265E774031224
:1093700063AC12C9FF740D1263ACE060047808801E
:10938000027800E82408FA740C1263ACE0600478F8
:109390000880027800E82AFA740A1263ACE06004DC
:1093A000780180027800E8042AF88E828F83A3A3D4
:1093B000E028FAA3E034008A82F583E014F0751403
:1093C000401267EBE9F5080291F8790B740E12630D
:1093D000AC12AD2574101263AC12CB8812689902DE
:1093E00092AB740E1263AC12CD791263AC12C2EE62
:1093F000E509A2E3500474408001E4F508780812FE
:1094000060E3741E1263ACAC82AD83740F1263AC64
:1094100012CB88740A1263ACE0F912665974011217
:10942000610DE9600F7514208E828F83A3A312AEA5
:10943000F1543FF0741D1263ACE06022740E1263AD
:10944000AC12AD25741E1263ACAA82AB831267B551
:1094500074031263AC12C9FF74404514F514740709
:109460001263ACE064016015790074101263AC12F1
:10947000AD25740E1263AC12CB881265F3E509A218
:10948000E3500479408002790074101263AC12AD8D
:1094900025740E1263AC1294BF70030293C1742042
:1094A0004514F5140293C1EE240BF582EF12DB5F35
:1094B00022F582EF12AF18F922F8EF12C49F2212A0
:1094C00095E6126587E9221295E612694722FAA30A
:1094D000E0F5838A82A3A3A3A32212AEFC64032235
:1094E00012AEFC64062212C0E5E0640722EE242AD4
:1094F000F582EF3400128C0D241212DB5C2212B4C0
:109500000AEE241212AF156822A3E0F50CA3E0F5D1
:109510000D750E00780C22A312951C22F08518827E
:1095200085198322A3A312E3ACA3E50EF0A3E50FF4
:10953000F022F0EE243012AF1522EE242E12DB5C66
:1095400012954AEE242F12AF1522E0851882851954
:1095500083F02274F4125AEAEAFEEBFF8C088D09BC
:10956000900D04E0600F12D45E7003A3E0697005F3
:109570001265758051790012CB7B1266478A828B07
:1095800083E5827002E5836035A3A3A3A3A3A3E0D0
:109590005418602AE508241BF582E5091294AD12DF
:1095A0005EA112A6551294AD125EA1EE241812947B
:1095B000B11295C9126665740412610D80087900B4
:1095C0001295C912659F02AC2C8E828F83A3A3A330
:1095D000A3A3A3A3A3A3128C0F240BF582EF1295D0
:1095E000E2223400F58312A3F5FB2274F0125AEA4A
:1095F00074EA1261A18A0A8B0BEA2402F50EEB349D
:1096000000F50F0A0AFB126DC78A088B09AE08AF76
:1096100009750901850A82850B83A3E0F50C75089D
:1096200001AC0EAD0F851882851983AA82AB831217
:10963000730174081263AC12C3E8740A1263AC7449
:1096400002F074131263ACE4F0900D80E07010EE41
:109650007001EF700AE50C70067509C3029801905D
:109660000382E0640860067509C20297FD850A82DC
:10967000850B83A3A3A3A3A3A3A3A3A3A3E0A2E116
:10968000500EA2E35005750804800C75080380078E
:10969000A2E35003750802EE7001EF7003029726F3
:1096A0008E828F83A3A3A3A3E06404600D8E828FB8
:1096B00083A3A3A3A3E06403700C74046508602C67
:1096C0007403650860268E828F83A3A3A3A3E0643E
:1096D00002600D8E828F83A3A3A3A3E06401702890
:1096E00074026508600674016508700F8E828F83AE
:1096F00012A3041263AC12C2EE802B8E828F83A35E
:10970000A3A3A3E06402600D8E828F83A3A3A3A30F
:10971000E06401700A8E828F8312A4A6125C62122A
:1097200098C07E007F0074081263ACE064FE700491
:10973000A3E064FF70421277C3E9703CE50C601748
:109740009003BFE06402700F900D8712A3041263B0
:10975000ACE8F0A3E98020850A82850B83A3A3A34C
:10976000A3A3A3A3A3A3A3E05402F91265B17408B1
:109770001263ACEAF0A3EBF074081263ACE064FE91
:109780007004A3E064FF70057509C78070E50CF5EF
:109790000D780D1260E3850A82850B83A3A3A3A332
:1097A000A3A3A3A3A3A3E0F91298B574091263AC11
:1097B00012CB88126509740112610DE9703FA90886
:1097C0001298B574081263AC1299A68A0E8B0FAE6C
:1097D0000EAF0FEE7001EF601C7402650C700BEEA3
:1097E0002405128BF854FB4408F0740A1263ACE4AD
:1097F000F0F509800874081263AC12C3E8E50C7038
:109800000F851882851983AA82AB831275CB8010CD
:10981000FCA908851882851983AA82AB8312681B6C
:10982000E9FAEE7001EF6053E50C60208E828F83C1
:10983000A3A3A3A3A3E0D2E6F07402650C700D8E7F
:10984000828F83A3A3A3A3A3E0D2E5F0850A828538
:109850000B83A3A3A3A3A3A3A3A3A3A3E0A2E65064
:109860000D8E828F83A3A3A3A3A3E0D2E7F08E8201
:109870008F83A3A3A3A3A3A3E004F0E5097003EAE5
:10988000602EFC7D007A017B10127139EE7001EFC1
:1098900060031298C074081263ACE064FE7004A305
:1098A000E064FF600B74081263AC12A4A6125C6241
:1098B000741602CB24E50A2402FCE50B3400FD22D9
:1098C000E50A2402FAE50B3400FB1263D72274F791
:1098D000125AEA74F71261A1EAFEEBFF900382E0EC
:1098E0006403600DE064016008E0640960030299AC
:1098F000A18E828F83A3E0600302997D7C007D00AE
:109900007A027B00127139EE2402FAEF12A9B21228
:10991000CB7012C2EE79531275BF79001299AD90D7
:109920000382E06409600990038012CB88126941C8
:10993000740112C10E7404900382F074011263ACBE
:10994000AA82AB83794A1275B974011263ACAC82F6
:10995000AD837A787B03127301790074011263ACD2
:10996000AC82AD839003761299A690036DE0A2E3DA
:109970005004D2F08002C2F012C0F480218E828F97
:1099800083A3AE82AF83FC7D007A037B1012713912
:109990008E828F83E0F91299ADE4900382F0126712
:1099A00007740902CCAA1295E61277AB22900380C5
:1099B0001295E612650322C082C083900344E070D2
:1099C00002A3E07041900382E0125F7C000301D9A2
:1099D0009905E89906F799069A90034CE07002A35E
:1099E000E0606090034C8055900348E07002A3E073
:1099F0006051900348804690034AE07002A3E06003
:109A00004290034A8037900344E07002A3E060056F
:109A1000129FA3700C8A828B83A3E0F91264EB80FF
:109A200022900345129A46640270051268D580138D
:109A3000900404E07002A3E0600990040412C0D70F
:109A4000125C6202BC5912A70F2274F4125AEA7413
:109A5000FB1261A18A088B097A0F7B001271878A39
:109A60000A8B0BAE0AAF0BEE7001EF7003029B5C2A
:109A700074028E828F8312C76679501275B9850879
:109A800082850983A3E06003029B44900380E06425
:109A9000FF7004A3E064FF6035900380E064FE7013
:109AA00004A3E064FF6027851882851983129B68F0
:109AB0007003A3E069601774EA850882850983A3AF
:109AC00012A1BC7A807B0379501275BF807685180D
:109AD0008285198312D4FD12C2EE7A737B03795307
:109AE0001275B990037312C3BB12C2EE7A767B0370
:109AF000794B1275B97A757B0379E11275B99003C8
:109B000087E0C3940F5022900375E0C0E074021206
:109B100063ACD0E0F074041263AC7401F074021210
:109B200063ACAA82AB831275E3750A00780A1260EF
:109B3000E3780A1260E3900DECE0F912A71A129F85
:109B4000C212610D850882850983129B61A3F0749E
:109B500003900382F0EEFAEFFB12C2D9740502AC57
:109B600029A3E08E828F832212D501E0682274F04F
:109B7000125AEA74EB1261A18A828B83A3A3A3A376
:109B8000780812635578081262D990038378081216
:109B900062A375087F75097F7C00750C01750D0047
:109BA000750E00750F00EC780C12605C90038378E2
:109BB0000C126290908214780C1261B7602A7D00BA
:109BC0009003CE80118E828F83A3A3E06C70010D71
:109BD000EE24141294AA12AD8B7001EF70E7EDC35E
:109BE000950850048D088C090CECC3941B40AB8A7B
:109BF000828B83A3A3A3A3C082C083908214780C1A
:109C0000126355D083D082780C1261B7606FEA126C
:109C1000B04DFAE9FB8A828B83780C12635590036E
:109C200083780C1263468A828B83780C1263558585
:109C30001882851983780C12634674041263AC741D
:109C400001F0900389E0C0E074051263ACD0E0F04D
:109C500074071263AC129DD1807590038012CB887B
:109C600012652D8A0A8B0BA80AA90B900380E8F0D5
:109C7000A3E912BDF8687003A3E069602C9003CEDD
:109C800012AD8B7001EF60218E828F83129B687002
:109C900003A3E069700B8E828F83A3A3E065096044
:109CA000B9EE24141294AA80D7E509900375F01236
:109CB00066E9E9601AE4900382F090034EE07002D6
:109CC000A3E0600B79C490034E12C0D7125C62749B
:109CD0001502CB2474F4125AEA74EB1261A18A8241
:109CE0008B83A3A3A3A3A3A3A3A3A312AD33FAE9D6
:109CF000FB7C00750801750900750A00750B00EC06
:109D0000780812605C900383780812629090821445
:109D100078081261B76037900D86E0C0E08C08EAE1
:109D20002508F582EB128BFBFDD0E0C39D501F751B
:109D30000801750900750A00750B00EC78081260BF
:109D40005C78081262D990038378081262A30CEC45
:109D5000C3941B409E908214780812635575830348
:109D600075828378081261B7604190038378081286
:109D70006355851882851983780812634674041226
:109D800063AC7401F074071263AC7401F090038942
:109D9000E0C0E074051263ACD0E0F074071263AC6D
:109DA000129DD17406900382F08023E4900382F028
:109DB000FCFD7A047B1012713990034EE07002A30F
:109DC000E0600B79C490034E12C0D7125C6202AC03
:109DD00027E412CB941275D72274F5125AEA74D87C
:109DE0001261A18A088B098A828B83A3A3A312D54F
:109DF0001574151263ACAC82AD838A828B83A3A3E6
:109E0000A3A3A3A3A312AED912CB8312671974150F
:109E10001263ACE0706E850882850983A3A3A3A3B7
:109E2000A3A3A3A3E0C3940B405A8E828F83A3A362
:109E3000A3A3A3A3A3A3E064027049EE240B128B97
:109E4000F864FF703F900382E06402603CE06406C7
:109E50006037900344E07002A3E06005129FA360A6
:109E600051900382E064086005E064047016741782
:109E70001263ACE0F9741C1263ACAC82AD8312CBFC
:109E80007B12671F742802A724900344E07002A38A
:109E9000E0701F75080078081260E378081260E32C
:109EA000EE24101294AA12DB4912AAA0129FC21229
:109EB000610D8E828F8312C75C12DB64A312B3F62E
:109EC00074021263AC12C2EEEE240D128BF8C0E0E5
:109ED00074041263ACD0E0F01294A7A3E05480F9AC
:109EE000E47001E96004D2F08002C2F0A2F0E492D2
:109EF000E0C0E074051263ACD0E0F074191263ACFA
:109F0000E0C0E074061263ACD0E0F0741B1263ACE6
:109F1000E0C0E074071263ACD0E0F074161263ACDA
:109F2000E0C0E074091263ACD0E0F074171263ACC7
:109F3000E0C0E074081263ACD0E0F0EE2410128BA5
:109F4000F8C0E0740A1263ACD0E0F0741A1263AC8B
:109F5000E0C0E0740B1263ACD0E0F074271263AC85
:109F6000E0C0E0740C1263ACD0E0F0741C1263AC7F
:109F7000A982AA8389088A09750A0078081260DB19
:109F80007C087D0074101263ACAA82AB8312BB2BD9
:109F900012610D851882851983AA82AB831264FD34
:109FA000029E8490034412A70C640122E508240C4D
:109FB000F582E50912DB5F12AEDEA3A3A3A3A31211
:109FC000CE821295E61267F174022274F4125AEAF4
:109FD00074C91261A1900382E06408700302A07E3C
:109FE0009003BFE064027034907DF8E493900364C2
:109FF000F0907DF8E493900362F09081E878081285
:10A00000635590038B78081263469081E8780812B4
:10A01000635590038F78081263468062900393E043
:10A02000F8248BF582E43406F583E0FA900364F0BB
:10A03000E8248CF582E43406F583E0FB900362F0BB
:10A040007508FF7509FFEA780812626AE508F4FCF2
:10A05000E509F4FD3395E0FE90038B12A1B175087C
:10A06000FF7509FFEBC39A780812626AE508F4FCF1
:10A07000E509F4FD3395E0FE90038F12A1B1E412DF
:10A08000C10279041275BF900393E07009741E1227
:10A0900063AC74018006741E1263ACE4F0740F8527
:10A0A0001882851983F0900D8512C766794612755E
:10A0B000BF74011263ACE4F0900E07E0C0E07402DC
:10A0C0001263ACD0E0F0900370E0C0E07403126360
:10A0D000ACD0E0F074041263ACE4F074051263AC2D
:10A0E000E4F074071263ACE4F0900393E0C3940FC0
:10A0F000500CE0C0E074061263ACD0E08007740638
:10A100001263AC740FF07C947D0374081263ACAAE4
:10A1100082AB831273017C037D0079FF741012639C
:10A12000ACAA82AB831271759003CCE0C0E07413CB
:10A130001263ACD0E012C22374011263AC12C212DB
:10A14000126809900387E0C0E0741C1263ACD0E091
:10A15000F0900388E0C0E0741D1263ACD0E0F09092
:10A160000375E0C0E0741A1263ACD0E0F090038095
:10A1700012B3F674181263AC12C2EE74201263AC00
:10A18000E4F090038AE0C0E0741F1263ACD0E0F00A
:10A1900074341263ACE4F074291263ACE412A1BC11
:10A1A00074141263ACAA82AB831275DD743702ACEF
:10A1B00029ECF0A3EDF0A3EEF0A3F022F07A737B8C
:10A1C00003795312A1C7221275BF7A767B03794BAC
:10A1D0001275BF22C082C0838A828B83A3E060078E
:10A1E000E4900382F0804A7408900382F090039315
:10A1F000E0701F90034EE07002A3E0600B790090C6
:10A20000034E12C0D7125C6290038012AD257A050E
:10A21000801A79001264F790037312AD257A067BD9
:10A220000012713990037612AD257A047B00127109
:10A230003902BC5974F4125AEA74EA1261A1EAFEB6
:10A24000EBFFEE24020A0AEF3400FB126DC78A0806
:10A250008B09EA7001EB700302A2FF8A828B83A351
:10A26000A3A3A3E0640160278A828B83A3A3A3A393
:10A27000E06402601A8A828B83A3A3A3A3E0640331
:10A28000600D8A828B83A3A3A3A3E064047070EEA5
:10A290002402FCEF3400FD85188285198312C74E15
:10A2A00012A3041263AC12C2EE740A1263AC7401FE
:10A2B000F074131263AC12C7651275D1890AAC0A27
:10A2C0007D007A077B00127139850882850983A396
:10A2D000A3A3A3A3E0C2E0F07401850882850983EB
:10A2E000A3A3A3A3A3A3A3A3A312DB76125893E86B
:10A2F000850882850983A3A3A3A3A3A3A3A3F074C2
:10A300001602AC2912B40A74082274F2125AEA74C2
:10A31000F81261A1EAFEEBFF8C0A8D0B890C8518FF
:10A3200082851983AC82AD837583817582707408D0
:10A3300012603BF50DEEFCEFFD851882851983AAAE
:10A3400082AB8312E62C7003750D019003CE803B27
:10A35000EEFCEFFDE508240BFAE509340012E62BCC
:10A36000601E850882850983A3A3E0650C701185B2
:10A370000882850983E0650A7004A3E0650B6038F4
:10A38000E5082414F582E5091294AD12E637E508D4
:10A390007002E5096022E50D70B6850882850983A3
:10A3A000E0650A7004A3E0650B70D5850882850915
:10A3B00083A3A3E0650C70C8AA08AB0974080284E3
:10A3C000E6C082C0839003CE02BC5674F7125AEAEC
:10A3D0009003CE12A3F5800CEA241412D50F12724A
:10A3E00011EEFAEFFBEA7001EB70ED9003CEE4F0B2
:10A3F000A3F002CCADE0FAA3E02274F4125AEAEA28
:10A40000FEEBFFEE2413128BF86403700DEE240BA9
:10A41000FAEF3400FB126DC7800CE06402707A1210
:10A42000D92BEF12A49C8A088B09E5087002E50974
:10A4300060678E828F83A3E0700FE48508828509B0
:10A4400083A3A3A3A3A3A3804F64F1600A8E828F8A
:10A4500083A3E064E17025850882850983A3A3A313
:10A46000A3A3A3E06401701485088285098312A464
:10A47000A6125C62EE240BFAEF1298C7850882855B
:10A480000983A3A3A3A3A3A3E0600E850882850983
:10A4900083A3A3A3A3A3A314F002AC2C12DB5F122B
:10A4A00095E6127703221295E690035C12C0DB2238
:10A4B00074F1125AEA8A088B09ECFEEDFF890A8AC8
:10A4C000828B8312A57A8A828B83129B61F0EEF8CD
:10A4D000EFF9A30EAF838A828B83A3A3E0C454F069
:10A4E000FA88828983E04A12A58C129B6112A586A4
:10A4F000E0333354FCFA8E828F83E04A12A586A3A0
:10A50000E033333354F8FA8E828F83E04AF008EF59
:10A51000F9A30EAF838508828B83A3A3A3A3A3A370
:10A52000E0A2E0E492E013135480FA88828983E089
:10A530004AF0E5082407F50CEB12BB311260DB7C16
:10A540000812BB2512610D12A64CE508240FF50C6C
:10A55000E5093400F50D780C1260DB7C0312BB2595
:10A5600012610DE50AC3940F400D12A6551294AD69
:10A57000129B62A3A3A3F002AD86E08E828F83F0CC
:10A58000A3AE82AF832212A58CA3A322F0850882FA
:10A590008B83A3A32274F1125AEAEAFEEBFF890A25
:10A5A0008C088D098E828F83E08C828D8312AC099A
:10A5B000AE82AF83E012BBFD12BDF7C412BBFD1229
:10A5C000A66AE054038C828D8312BDF5A2E2E49268
:10A5D000E08C828D8312BDF4131313541F12BBFD44
:10A5E00012BDF3A2E7E492E08C828D83A3A3A3A320
:10A5F00012A66A8E0C8F0D750E00780C1260DB7C33
:10A60000087D00E508240712A65E12610D12A64C13
:10A610008E0C8F0D780C1260DB7C037D00E5082426
:10A620000F12A65E12610DE50AC3940F40148E82CC
:10A630008F83A3A3A3E0C0E012A6551294ADD0E08F
:10A64000800612A65512B307F002AD86EE2408FE6E
:10A65000EF3400FF22E5082412F582E50922FAE52D
:10A66000093400FB127169740322A3A312AC0D0E0E
:10A67000AF832274F0125AEA74F91261A1EAFEEB78
:10A68000FF8908900344E07002A3E0601012A70560
:10A6900064027009EEFAEFFB1268CF8063900380CA
:10A6A000E06E7003A3E06F70577401650860097A6B
:10A6B000947B0312E62C70487A007B0212AC1D706A
:10A6C00001EB703C900383780C12635585188285EA
:10A6D0001983780C126346900389E0C0E074041279
:10A6E00063ACD0E0F074051263AC7401F074061230
:10A6F00063AC740212C76612649DE960971264A38A
:10A70000740702CB2490034412A70C22E0F8A31292
:10A71000C0E6A3A3A3A3A3A3E02290038012AD29C4
:10A720009003762212610D7F03025DE2E0F902BC24
:10A7300059EAF0A3EBF002BC5974F6125AEA9003FE
:10A74000E0E0701F7C0079017A007B00126755EA17
:10A750007001EB600E8A828B83E07002A3E06003DD
:10A7600012668902C0EFC082C08312ABFA40107932
:10A77000FF12674FE9FA907E18E493C39A50047968
:10A78000018002790002BC5974F0125AEA8A088BDF
:10A7900009890B750C008A828B83A3A3A3A3A3A3AF
:10A7A000A3A3E0F912675B8A0E8B0FAE0EAF0F7595
:10A7B0000A01EE7001EF600302A86785088285092F
:10A7C00083A3A3A3A3A3A312AD2585088285098330
:10A7D000A3A3A3A3A3A3A312B92C12CB88126743EC
:10A7E0008A0C8B0DAE0CAF0DEE7001EF700302A959
:10A7F000A78E828F83A3A3A3A3E4F0A3F0E508248C
:10A800000B12A9AFE0C0E01294A7D0E0F012686983
:10A81000EE240CF582EF12C9FBE508240EF582E563
:10A820000912B3F3EE240EF582EF12C2EB750C01A0
:10A83000EE24061294B9547FF0A3E054FC12BB6FCF
:10A840005404600302A8EE900E0012B87D740778DD
:10A850000812626A8E828F83A3A3A3A3A3A3E045F9
:10A8600008F0A3E04509F08E828F83A3A3A3A3A3DE
:10A87000A3E05480F508A3E05403F50974077808B1
:10A88000126337E50B607A74028E828F83A3A3A3D1
:10A89000A312BDF3240D12B58EE0A2E2500B90037B
:10A8A0006E12C3BBA3A312C2EEE508700302A97522
:10A8B000EE2406F8EF3400F9E8FAE9FB8A828B838C
:10A8C000E0547FFCA3E054FCFD74FF2508F50874F8
:10A8D000FF3400F5097407780812626AE5084CF83D
:10A8E000E5094DF98A828B8312C2EE02A9758E8228
:10A8F0008F83A3A3A3A3A3A3E04480F0A3E002A8B3
:10A9000066E5087005750A00806B8E828F83A3A3AD
:10A91000A3A3A3A3E0542060171271818A08747F57
:10A920005508F8745F288E828F83A3A3A3A3802782
:10A930008E828F83A3A3A3A3A3A3E05410600E125F
:10A9400071818A08740F5508F8740A80D88E828F36
:10A9500083A3A3A3A37401F0A3E4F074048E828FF5
:10A9600083A3A3A3A3A3A3A3A3A312AC147001EB7B
:10A97000700312C0B27401650C702F8E828F83A396
:10A98000A3A3A312CD0BF9EEFAEFFB126749E9601E
:10A9900019EE240C128BF87002A3E0600312A9BA1E
:10A9A000EEFAEFFB127211750A00A90A02CB27FA20
:10A9B000E5093400FB8A828B8322EE240C12DB5CD7
:10A9C00012A9C422E0FAA3E0FB1272112274F4125D
:10A9D0005AEA74F71261A17E0012675BEA7001EB1C
:10A9E000700302AA998A828B83A3A3A3A3A3A3A320
:10A9F000A3A3E06406600302AA998A828B83A3A3BF
:10AA0000A3A3A3A3A3E0FF8A828B8312AAA8E0C01A
:10AA1000E074081263ACD0E012AEF512C6C312C2E5
:10AA2000EE12677974085FF9E47001E960698518CE
:10AA30008285198312AD257A007B0012673DEA708A
:10AA400001EB705390038012B0561275FB7C007DB1
:10AA5000007A007B00802A8E828F8312AEF164FF21
:10AA60007004A3E064FF602F90038012AAA012CBB1
:10AA700088126E7BE9641A601E7C007D00EEFAEF9E
:10AA8000FB12673D8A0A8B0BAE0AAF0BEE7001EF2B
:10AA900070C579001276017E01EEF9740902AC29C5
:10AAA00012AD298E828F832212C48EA3A3A3A3A3E7
:10AAB0002274F7125AEAEA7001EB70059003E18004
:10AAC000068A828B83A3A312ACDF7001EB602C8A11
