:020000040000FA
:0300000002009F5C
:03001300021F0EBB
:10004B00021EFD00000080FBE490050178FF79049F
:10005B008002F0A3D8FCD9FA7AFF7B089000CF7806
:10006B00F9790C8015E493A3AD82AE838A828B83DE
:10007B00F0A3AA82AB838D828E83D8E9D9E77582F0
:10008B002075839674011200B175824E75830074CE
:10009B00001200B175D0007581377510017511050F
:1000AB00759F00020053C09FF59FE473D09F22D031
:1000BB0083D082C09FE493C0E0740193C0E07402CC
:1000CB0093F59F22494E464F524D4154494F4E3A5C
:1000DB005374617274696E672070617274697469AC
:1000EB006F6E2031210D0A00494E464F524D41543F
:1000FB00494F4E3A4E657874206175746F6D61741B
:10010B0069632073746172742070617274697469AD
:10011B006F6E2031210D0A00494E464F524D41540E
:10012B00494F4E3A5374617274696E6720706172F5
:10013B00746974696F6E2031206661696C210D0AD8
:10014B0000494E464F524D4154494F4E3A706172E1
:10015B00746974696F6E202564206E6F74206173EF
:10016B007369676E6564210D0A0020202020202012
:10017B0020202020004552524F523A0A0D506C65F8
:10018B006173652073657420706172746974696F33
:10019B006E20746F2031210A0D0054686520637541
:1001AB007272656E7420646F776E6C6F6164207011
:1001BB006172746974696F6E206973206170702548
:1001CB00642C73746172745F616464726573733AE7
:1001DB003078253038782C73697A653A256420425B
:1001EB00797465730A0D0057616974696E672066CF
:1001FB006F72207468652066696C6520746F20626D
:10020B00652073656E74202E2E2E202870726573F8
:10021B007320276127206B657920746F20657869BF
:10022B007420494150206D6F6465290A0D000A0A3C
:10023B000D2050726F6772616D6D696E6720436F31
:10024B006D706C6574656420537563636573736659
:10025B00756C6C79210A0D2D2D2D2D2D2D2D2D2D00
:10026B002D2D2D2D2D2D2D2D2D2D2D2D2D2D2D2DB3
:10027B002D2D2D2D2D2D2D0D0A204E616D653A2026
:10028B002573000A0D2053697A653A2025732042A5
:10029B00797465730D0A002D2D2D2D2D2D2D2D2DE2
:1002AB002D2D2D2D2D2D2D2D2D2D0D0A000A0D450E
:1002BB0052524F523A5465726D696E6174696F6E2A
:1002CB002062792073656E646572210A0D000A0D38
:1002DB004552524F523A50726F6772616D6D696E33
:1002EB00672061646472657373206572726F72202C
:1002FB006F722046696C6520746F6F206C6172673A
:10030B0065210A0D000A0D4552524F523A45726152
:10031B00736520666C617368206572726F72210A57
:10032B000D000A0D4552524F523A50726F6772616F
:10033B006D6D696E6720666C617368206572726F94
:10034B0072210A0D000A0D4552524F523A457272F4
:10035B006F7220636F756E74206578636565646575
:10036B00642E0A0D000A0D4552524F523A576169DD
:10037B0074696E672074696D656F75740A0D000A78
:10038B000D5741524E494E473A41626F7274656444
:10039B0020627920757365722E0A0D000A0D455285
:1003AB00524F523A4661696C656420746F207265D6
:1003BB006365697665207468652066696C65210ADA
:1003CB000D0001000000FFFFFFFFFEFFFFFFFDFF21
:1003DB00FFFFF6FFFFFFF5FFFFFFE2FFFFFF4552B9
:1003EB00524F523A466C617368577269746520417B
:1003FB00646472657373206572726F72212061641D
:10040B006472783A3078253038780D0A00455252AC
:10041B004F523A4765745F50616765206572726F22
:10042B0072212065706167653A25640D0A00494E9B
:10043B00464F524D4154494F4E3A53797374656D43
:10044B0020506172616D65746572205772697465B5
:10045B002053756363657373210D0A004552524F28
:10046B00523A53797374656D20506172616D657486
:10047B006572205772697465204661696C656421E9
:10048B00000000040004000000FFFF0F00FF070046
:10049B00008000000000B80000640000006375726B
:1004AB0072656E745F706172743A25640D0A006137
:1004BB007070315F666C61673A3078253032780D39
:1004CB000A007368656C6C203E00494E464F524DD6
:1004DB004154494F4E3A456E746572656420746899
:1004EB006520626F6F746C6F616465722070726FE0
:1004FB006772616D210D0A000D00000016471B5B32
:10050B00324B0D2573000D0A092573000D0A257357
:10051B002573000000000000000000000000000038
:10052B0000000000000000000000000000000000C0
:10053B0000000000000000000000000000000000B0
:10054B0000000000000000000000000000000000A0
:10055B000000000000000000000000000000000090
:10056B000000000000000000000000000000000080
:10057B000000000000000000000000000000000070
:10058B000000000000000000000000000000000060
:10059B000000000000000000000000000000000050
:1005AB000000000000000000000000000000000040
:1005BB000000000000000000000000000000000030
:1005CB000000000000000000000000000000000020
:1005DB0000000000000000000000000D0A096E6F13
:1005EB00207265706C793A25730D0A001B5B324AD9
:1005FB001B5B25643B2564482573000D0A28256386
:10060B00292D2D2D2D2D2D000D0A0D0A2573000DD5
:10061B000A0925730D0A0056322E302E34000D0AAE
:10062B00000D0A2573005E430D0A257300080008B0
:10063B0020080063616E63656C2074686973206FBA
:10064B007065726174696F6E0D0A002573205B59BA
:10065B002F4E5D200068656C70007368656C6C2DA7
:10066B0076657273696F6E00636C656172006465A9
:10067B006275672D696E666F0000316253C4F5A613
:10068B0097B988DBEA7D4C1F2E4372211087B6E5A4
:10069B00D4FACB98A93E0F5C6D86B7E4D542732094
:1006AB00113F0E5D6CFBCA99A8C5F4A79601306388
:1006BB00527C4D1E2FB889DAEB3D0C5F6EF9C89B4F
:1006CB00AA84B5E6D7407122137E4F1C2DBA8BD866
:1006DB00E9C7F6A59403326150BB8AD9E87F4E1D5A
:1006EB002C02336051C6F7A495F8C99AAB3C0D5E4A
:1006FB006F4170231285B4E7D67A4B1829BE8FDC75
:10070B00EDC3F2A1900736655439085B6AFDCC9FA7
:10071B00AE80B1E2D344752617FCCD9EAF38095A93
:10072B006B4574271681B0E3D2BF8EDDEC7B4A1983
:10073B002806376455C2F3A0914776251483B2E19E
:10074B00D0FECF9CAD3A0B586904356657C0F1A269
:10075B0093BD8CDFEE79481B2AC1F0A39205346759
:10076B005678491A2BBC8DDEEF82B3E0D146772445
:10077B00153B0A5968FFCE9DAC005EBCE2613FDDC4
:10078B0083C29C7E20A3FD1F419DC3217FFCA24001
:10079B001E5F01E3BD3E6082DC237D9FC1421CFED8
:1007AB00A0E1BF5D0380DE3C62BEE0025CDF8163E3
:1007BB003D7C22C09E1D43A1FF4618FAA427799BBE
:1007CB00C584DA3866E5BB5907DB856739BAE406B9
:1007DB00581947A5FB7826C49A653BD987045AB8A4
:1007EB00E6A7F91B45C6987A24F8A6441A99C7259B
:1007FB007B3A6486D85B05E7B98CD2306EEDB3518A
:10080B000F4E10F2AC2F7193CD114FADF3702ECC68
:10081B0092D38D6F31B2EC0E50AFF1134DCE90726F
:10082B002C6D33D18F0C52B0EE326C8ED0530DEF4A
:10083B00B1F0AE4C1291CF2D73CA947628ABF5174D
:10084B00490856B4EA6937D58B5709EBB536688A30
:10085B00D495CB2977F4AA4816E9B7550B88D6342B
:10086B006A2B7597C94A14F6A8742AC896154BA912
:10087B00F7B6E80A54D7896B357E20232000000099
:10088B00000000000000000000000000000000005D
:10089B00000000000000000000000000000000004D
:1008AB0000000000000000000000000D0A09636C4E
:1008BB006F736520646562756720696E666F726D14
:1008CB006174696F6E2073747265616D0D0A0D0A28
:1008DB00000D0A0967657420646562756720696E8F
:1008EB00666F726D6174696F6E0D0A0D0A000D0AE9
:1008FB0020205F5F5F5F5F202020202020202020B2
:10090B002020202020202020202020202020205F9D
:10091B005F0D0A202F205F5F5F5F5C20202020206F
:10092B0020202020202020202020202020202020BC
:10093B00202F5C205C0D0A2F5C205C5F5F5F2F20FB
:10094B0020205F5F5F5F20205F5F5F5F20205F5F26
:10095B005F5F20205F5C5F5C205C20202020205F9D
:10096B005F5F5F0D0A5C205C205C20202020202F25
:10097B00205F5F205C2F205F5F205C2F205F5F5F1D
:10098B005C2F205F5F205C205C2020202F205F5F8E
:10099B00205C0D0A205C205C205C5F5F5F4C5C2060
:1009AB005C4C5C205C205C2F5C205C5F5F5F5F209D
:1009BB005C205C4C5C205C205C5F4C5C20205F5FAF
:1009CB005F4C0D0A20205C205C5F5F5F5F5F5F5CAC
:1009DB005F5F5F5F2F5C5F5C205C5F5C5F5F5F5F97
:1009EB002F5C5F5F5F5F2F5C5F5F5F5F5C5F5F5F75
:1009FB005F2F0D0A2020205C2F5F5F5F5F5F5F2FF3
:100A0B005F5F5F2F5C2F5F2F5C2F5F2F5F5F5F2F11
:100A1B005C2F5F5F5F2F5C2F5F5F5F5F2F5F5F5FA1
:100A2B002F0D0A20202020434F505952494748543C
:100A3B002863293A476F6F644D6F726E696E670951
:100A4B0009323031392F30360D0A0D0A000A0000F9
:100A5B0000FFFFFF03FFFF1FFC0000E003FFFFE0B1
:100A6B00FF00001F00FF00FFFF00FF000000FFFF63
:100A7B00FFFF00000021436587000000000000001D
:100A8B00FC40000000F0FFFFFF2043CDAB2143CD26
:100A9B00AB2243CDAB493A5C315F6769745F636FDF
:100AAB0064655C45506E6F64655F4F54415C4343B6
:100ABB0032353330204941505C4343323533305F5C
:100ACB004941505C736F757263655C7379737465C0
:100ADB006D5C736F66745F74696D65725C736F6662
:100AEB00745F74696D65722E6300480000004900E5
:100AFB0000005C0000000D0A57726F6E672070617A
:100B0B0072616D65746572732076616C75653A20E0
:100B1B0066696C65202573206F6E206C696E65208D
:100B2B0025640D0A000000000000964500001646E3
:100B3B000000964600009647000061480000E04127
:100B4B0000000040000080C3494E464F524D4154B7
:100B5B00494F4E3A706C6561736520696E707574A0
:100B6B00202573205B3C7570646174653E206F7249
:100B7B00203C657869743E5D200D0A0049415000A8
:100B8B007570646174650065786974007265626F75
:100B9B006F7400284E554C4C2900303132333435AC
:100BAB00363738394142434445460000803F000008
:100BBB0020410000C84200007A4400401C4600500F
:100BCB00C347002474491000000008000000070010
:100BDB000000D0FFFFFF59000000200000000200C2
:100BEB0000006C0000004552524F523A4765745F4B
:100BFB0050616765206572726F7221206570616745
:100C0B00653A25640D0A000B00000000300000005F
:100C1B00010000060000000000010021100000018F
:100C2B0000B0423BAAB83F0000003F8C906339AA4A
:100C3B000CA33A00941E3C8042633DCFFE753E15DB
:100C4B0072313F0000803FF304353F8096184B30E4
:100C5B003132333435363738394142434445460017
:100C6B00286E756C6C20706F696E7465722900301C
:100C7B003132333435363738396162636465660037
:100C8B003F3F3F000000807FF9021550B743BA5138
:100C9B000000204100E7DB2E0000A040000080BFD9
:100CAB002292D43EDD9B2A3F04000040FFFF7F7F52
:100CBB00FFFF7FFF010080341872313F1200BA5BD7
:100CCB007F001200BA717F001200BADF920112008E
:100CDB00BAEA83011200BA8D85011200BA2A870184
:100CEB001200BA979C011200BAEE8A011200BA9256
:100CFB008B011200BAD48D011200BA2F9B01120086
:100D0B00BA3C9B011200BA539B011200BAD7940153
:100D1B001200BAFA95011200BA0F96011200BA6FBF
:100D2B001F001200BADD1F001200BAA9200012002A
:100D3B00BAB422001200BA7A23001200BA2E26008F
:100D4B001200BAF829001200BAA92B001200BA1D22
:100D5B002E001200BA3E32001200BA80320012008E
:100D6B00BAAF33001200BAD433001200BA75340094
:100D7B001200BA9637001200BA2638001200BA9B3E
:100D8B003A001200BAFB3A001200BA6F3D00120093
:100D9B00BAE93E001200BA423F001200BA464100C7
:100DAB001200BA8887011200BAA287011200BAB3E7
:100DBB0087011200BA7888011200BA338901120038
:100DCB00BA3C96011200BA5996011200BAE296018A
:100DDB001200BA0797011200BA1597011200BA69EF
:100DEB0097011200BA389C011200BA4C790012001C
:100DFB00BAE07B001200BA507C001200BA5B7C0098
:100E0B001200BA937C001200BAE57C001200BA47BC
:100E1B007D001200BAB298011200BABC9801120000
:100E2B00BA8D99011200BAF541001200BA4646007C
:100E3B001200BAA64A001200BAFD55001200BA6899
:100E4B0056001200BA8156001200BA255800120043
:100E5B00BA2B5E001200BA8D60001200BAC2660097
:100E6B001200BAB067001200BA5B9C011200BAEF15
:100E7B008D011200BA9497011200BACD990112009C
:100E8B00BAE668001200BAF96D001200BAD09001F0
:100E9B001200BA7D9B011200BAC99B011200BAC1A4
:100EAB007F001200BA0080011200BA889A0112006A
:100EBB00BA989A011200BA0F9C011200BA799C01E0
:100ECB001200BA2E9A011200BADF9A01E76670106F
:100EDB000809E766700A0809E76670040809E766FF
:100EEB0022E066701008A3E066700A08A3E0667043
:100EFB000408A3E06622C3E7960809E7960809E70A
:100F0B00960809E796A2D265D03322C3E09608A3D0
:100F1B00E09608A3E09608A3E096A2D265D0332210
:100F2B00C008C3E096F50808A3E096420808A3E0C2
:100F3B0096420808A3E0964208A2D265D033E50892
:100F4B007001D3D00822C3E7960809E7960809E792
:100F5B00960809E79622C3E09608A3E09608A3E05B
:100F6B009608A3E09622C008C3E096F50808A3E014
:100F7B0096420808A3E096420808A3E0964508703D
:100F8B0001D3D00822080808E630E7111218BD1269
:100F9B000FA8080808C64480C61818182218181875
:100FAB00E9799EC608CAC608CBC608CCC6C3702052
:100FBB007996CACBCC7019798ECBCC70137986CC41
:100FCB00700EF9802ACA33CACB33CBCC33CC33194E
:100FDB0030E7F2CCCBCA3350147004EA30E00DE4A6
:100FEB00CA3ACACB3BCBCC3CCC500209C3E913C6A3
:100FFB00CC182313C6CB18C6CA18C6F92212105325
:10100B0030F039121098803412105320F01430E75E
:10101B002B74FFFCFBFA747F8022E4FCFBFA7480D8
:10102B00801AB48008BC00F2BB00EF800F50EBF9C4
:10103B00E4C39AFAE49BFBE49CFCE499C6CC18C687
:10104B00CB18C6CA18C6F922E4C9C608CAC608CB4B
:10105B00C6D3330308CCC63392F0C3947F402E948F
:10106B00184019C9B90704CACBCC225025C309CAE9
:10107B0033CACB33CBCC33CC33D9F422F4600DC988
:10108B00CCC313CB13CBCA13CAD9F6CC22E4FCFBCB
:10109B00FA2214FCFBFA22E62618461846184622BA
:1010AB00E72719471947194722181818E608460861
:1010BB007009E626087005E633F42208221919197F
:1010CB00E70947097009E727097005E733F4220997
:1010DB0022E6084608C3134608336002E633F422BF
:1010EB00E7094709C3134709336002E733F42212B8
:1010FB0010DC60251210EB60201210A2700302109E
:10110B00AB080808E76670101819E766700A18191B
:10111B00E76670041819E76622F4221210DC601CD3
:10112B001210EB60171210A270071210AB7001D3E4
:10113B0022C0D01210AB7006D0D0B322C32233D052
:10114B00D0501430E0F6C3E7960809E7960809E794
:10115B00960809E796B32220E0D5E6970809E697AB
:10116B000809E6970809E697B3221210DC601B12F8
:10117B0010EB60161210A270071210AB600CB322AA
:10118B00C0D01210AB7005D0D022C32233D0D050B8
:10119B001330E0EBC3E7960809E7960809E79608D2
:1011AB0009E7962220E0E4E6970809E6970809E6A6
:1011BB00970809E69722001210DC604F1210EB60C3
:1011CB0012E7548066F61210B470111210AB703B1C
:1011DB00090909F4F618F618F618F6221210C87059
:1011EB00151210A208080860EAE6447FF61876800C
:1011FB0018E4F618F6221210A260161210AB701239
:10120B00E4F608F608F608E65480F60909091818FA
:10121B001822EAC0E0EBC0E0ECC0E0EDC0E0E687EE
:10122B00F0A4FBACF008E687F0A42CFCE435F0FA54
:10123B001809E687F0A42C4B60027401CA35F0FC48
:10124B00E433FB09E687F0D2F7A42CCB35F0FC197D
:10125B0008E687F0A42BCC35F0FBE433FD0819E648
:10126B0087F0D2E7A42C4ACB35F0CD3400FC09E64D
:10127B0087F0D2E7A42DCC35F0FDE433FA0918E65C
:10128B0087F0D2F7A42CCD35F0CA3400FC08E687E2
:10129B00F0D2E7D2F7A42ACC35F07A7E20E70B0AFE
:1012AB00CB33CBCD33CDCC33CC33CB3350147004C9
:1012BB00ED30E00ED2F1E4CD3DCDCC3CCC3B500536
:1012CB00DA05C2F1EB547FC63308E63392F0FBE745
:1012DB003309E733C39A502D2B70190C0D4C4D70FD
:1012EB00151806E608C333700D20F10AA2F013F6A9
:1012FB00E418800B4024E4F630F002768018F618E0
:10130B00F618F68024D33B14501074FFA2F013F69A
:10131B00187680E418F618F6800FA2F013F618E68C
:10132B003303F618ECF618EDF6D0E0FDD0E0FCD068
:10133B00E0FBD0E0FA221210EB60461210DC603DAD
:10134B00E9687008F618F618F618F622748067F735
:10135B00121375090909748067F7221210DC601DDE
:10136B001210EB7005191919801A1210B4701F1294
:10137B0010C8C37003E667331919194007181818FA
:10138B002208080874FFF618F618F618F622121041
:10139B00C860171210AB702192F01210A270195086
:1013AB001720F014080808090909E7F61819E7F6D9
:1013BB001819E7F61819E7F6221210A260E6E86989
:1013CB00701F0808E62480F608E436F618547FB43C
:1013DB007F0CE654806007F6E418F618F62218180E
:1013EB0022E9C6CC08C6CD08C6CE08C6CFC0E0E8F9
:1013FB00C0E0EAC0E0EBC0E009E9F809E7FA09E769
:10140B00FBE6F918E6F8C3EC98ED99EE9AEBC2E718
:10141B00F5F0EFC2E795F0500E600CEBCFFBEACE88
:10142B00FAE9CDF9E8CCF8EAA2E7D2E7FAEB33FB1D
:10143B0013F5F0EEA2E7D2E7FEEF33FFC5F013A2F0
:10144B00E730E601B313C5F0C3C0E0C0F07F00C3C3
:10145B009BFB605E9418600F401D14601AD0E02354
:10146B00F9D0E0F80215478AF0E9486003D2F0E4BE
:10147B00AFF0FAF9F8803BEB30E40D89F0EA60034A
:10148B00D2F0E4AFF0F9CAF8EB30E30D88F0EF607F
:10149B0002D2F0AFF0E4CAC9F8EB54076014FBC3F7
:1014AB00EA13FAE913F9E813F8EF135002D2E0FF4D
:1014BB00DBEDD0E0C0E030E739C3E49FFFF5F0ECA3
:1014CB0098FC42F0ED99FD42F0EE9AFE42F0D0E02E
:1014DB00F9D0E0F8E5F0607AE923F9EE20E742D89D
:1014EB00028067C3EF33FFEC33FCED33FDEE33FECD
:1014FB0080EAEC28FCED39FDEE3AFED0E023F9D082
:10150B00E0F84002801BC3EE13FEED13FDEC13FC61
:10151B00EF135002D2E0FF08B800067F7F74FF8004
:10152B002EEF3350178CF020F00260100CBC000C27
:10153B000DBD00080EBE000408E860DFE933E813B8
:10154B00FFEE2313FE4F4D4C8008E95480FFE4FE61
:10155B00FDFCEE33EF33F47004FCFD7E80D0E0FB3A
:10156B00D0E0FAD0E0F8D0E0CFC618CEC618CDC682
:10157B0018CCC6F9221210DC70041818182212109D
:10158B00EB700D74FFF61819F61819F61819F622E8
:10159B00E7548066F61210A2700F1210AB70F014A5
:1015AB00F608F608F608F680D11210AB700CF608A8
:1015BB00F608768008E6447F80EC1210CB700C1294
:1015CB0010B760BFE65480F6E480BB1210B770050D
:1015DB0019191980A5E869700C763F18768018F6F2
:1015EB0018F6E8F922E6CDC0E018ECC0E0E633CD02
:1015FB0033CDD313F6E719FCE7191933CC33C39466
:10160B007F400ECD9D502408E65480F6E418F680FA
:10161B000FF4043D14501408E6447FF6187680E46A
:10162B0018F618F6D0E0FCD0E0FD22CCD313CCFD9D
:10163B0018E4C6CBC0E018E4C6CAC0E00808ED0841
:10164B00C633E613F618E433C675F003C3CA97CA5C
:10165B0009CB97CB199C40047D08802EBD0003025B
:10166B00172916B6FF050606081618C3CA33CACBC8
:10167B0033CB33CA27CA09CB37CB193CC37D088080
:10168B003E187D0820E75CC633C6CA33CACB33CBC2
:10169B0033DDF1D5F0EB30E77BCA97CA09CB974A1C
:1016AB00CB199C406F4B7025E620E0218066187D9E
:1016BB0008C3CA97CA09CB97CB199CD3C633C6CAE2
:1016CB0033CACB33CB3350C9DDE7D5F0E1D3E4C616
:1016DB0036C608C636C608C636C608C636C6181875
:1016EB00188031C3CA97CA09CB97CB199CB34097C3
:1016FB00C633C6CA33CACB33CB33DD34D5F02EC693
:10170B00A2E0C640C8CA27CA09CB37194A70BECB5C
:10171B003CB480B90808E63308E633601F18181884
:10172B00D0E0FAD0E0FBD0E0FCD0E0FD22187D0841
:10173B00CA27CA09CB37CB193CD3808013F618E4E0
:10174B00B67F11F618B6FF0EF618C60470D208084D
:10175B00768080CAF618F618F680C5080808EAC025
:10176B00E0EBC0E086F0E7A4FA180986F0E7A42ABC
:10177B00FA180986F0E7A42AFA180986F0E7A42AD2
:10178B00FA1986F0E7A4FBE5F02AFA190886F0E7C8
:10179B00A42BFBE5F03AFA190886F0E7A42BFBE53E
:1017AB00F03AFA18180986F0E7A4C5F02BFBE43AD7
:1017BB00FA1908E7C5F0C6A426F6E5F03BFBE43AB8
:1017CB00FA1886F0E7A4F6E5F00826F6E43B08F6EF
:1017DB00E43A08F6D0E0FBD0E0FA22E4CFC0E0E434
:1017EB00CEC0E0E4CDC0E0E4CCC0E075F020E6264E
:1017FB00F608E633F608E633F608E633F61818185B
:10180B00EC33FCED33FDEE33FEEF33FFC3EC970906
:10181B00ED9709EE9709EF97191919400FFFEC9700
:10182B00FC09ED97FD09EE97FE191906D5F0BFECF3
:10183B00F709EDF709EEF709EFF7191919D0E0FCE5
:10184B00D0E0FDD0E0FED0E0FF221218C01818182F
:10185B001217E61218AC191919221218AC1919190A
:10186B00080808E618181820E7E01217E61218C047
:10187B0018181822090909E719191920E7DC0808B3
:10188B0008E618181820E7030217E61218C01818F4
:10189B00181217E61218C01818181218AC191919C3
:1018AB0022E4C397F709E497F709E497F709E4975C
:1018BB00F722181818E4C396F608E496F608E4968F
:1018CB00F608E496F6226016080808C6C313C61875
:1018DB00C613C618C613C618C613C6D5E0EA2270BF
:1018EB0009080808226016181818C6C333C608C69C
:1018FB0033C608C633C608C633C6D5E0EA22E62788
:10190B00F60809E637F60809E637F60809E637F66A
:10191B0022E026F608A3E036F608A3E036F608A385
:10192B00E036F622E026F008A3E036F008A3E03616
:10193B00F008A3E036F022C3E697F60809E697F61F
:10194B000809E697F60809E697F622C3E0C696F66D
:10195B0008A3E0C696F608A3E0C696F608A3E0C671
:10196B0096F622C3E096F008A3E096F008A3E09663
:10197B00F008A3E096F022E056F608A3E056F6082E
:10198B00A3E056F608A3E056F622E056F008A3E0D3
:10199B0056F008A3E056F008A3E056F022E647F60F
:1019AB000809E647F60809E647F60809E647F6226E
:1019BB00E046F608A3E046F608A3E046F608A3E0E7
:1019CB0046F622E046F008A3E046F008A3E046F016
:1019DB0008A3E046F022E066F608A3E066F608A34B
:1019EB00E066F608A3E066F622E0F608A3E0F60848
:1019FB00A3E0F608A3E0F622E6F008A3E6F008A3BE
:101A0B00E6F008A3E6F022E0FAA3E0FBA3E0FCA3D8
:101A1B00E0FD22EAF0A3EBF0A3ECF0A3EDF022E063
:101A2B00FCA3E0FDA3E0FEA3E0FF22E0F8A3E0F9B6
:101A3B00A3E0FAA3E0FB22E8F0A3E9F0A3EAF0A30A
:101A4B00EBF022CAC0E0E6F0A308DAFAD0E0FA2203
:101A5B00CAC0E0E0A3C582CCC582C583CDC583F0E7
:101A6B00A3C582CCC582C583CDC583DAE6D0E0CAD7
:101A7B0022C3E498F8E499F9121ABD8026C3E49ABC
:101A8B00FAE49BFBE920E7E9121ABDE498F8E49924
:101A9B00F922C3E498F8E499F9121ABDE498F8E432
:101AAB0099F9C3E49AFAE49BFB22EB20E7CFE920F8
:101ABB00E7E0B90010BB0008E88AF084F8AAF0222E
:101ACB00E4FBC8FA22EB70227B10C833C8C933C9B8
:101ADB00335007C39AC3DBF280069A50012ADBEA24
:101AEB00C833F4C8C933F4C9FA2275F008E4C83313
:101AFB00C8C933C933C99AC99B5004C92AC93BD534
:101B0B00F0ECFBC833F4C8E4C9FA22700422600D70
:101B1B0018C6C333C608C633C6D5E0F41822251041
:101B2B0010AF08F510400C15118008F51040021588
:101B3B0011D2AF2200C0D0251010AF08F510500CF9
:101B4B0005118008F51050020511D2AFD0D0222517
:101B5B0010F58210AF08F510400C15118008F51028
:101B6B0040021511D2AF85118322C5822510C58283
:101B7B00C583351110AF07F5118582108007F5115C
:101B8B00858210D2AFC583222510F582E43511F57D
:101B9B0083222510F8E43511F9222510FAE43511CA
:101BAB00FB222510FCE43511FD22C5822510C582D0
:101BBB00C5833511C58322E4732510C582C0E0E5CA
:101BCB001134FFC583C0E0E510C3958224F810AF34
:101BDB00088583118582108008858311858210D238
:101BEB00AFCEF0A3E520F0A37808E608F0A3DEFA69
:101BFB00EFF0A3E58124FAF8E608F0A3E608F0A3DA
:101C0B00E608F0A30808E608F0A3E608F0A31581A0
:101C1B001581D0E0FED0E0F8158115811581E8C063
:101C2B00E0EEC0E0222510C582C0E0E51134FFC50F
:101C3B0083C0E0E510C3958224F910AF08858311AA
:101C4B008582108008858311858210D2AFCEF0A3D8
:101C5B00E520F0A37808E608F0A3DEFAEFF0A3E5A1
:101C6B008124FBF8E608F0A3E608F0A30808E608D1
:101C7B00F0A3E608F0A315811581D0E0FED0E0F8C3
:101C8B0015811581E8C0E0EEC0E022851183851037
:101C9B0082E0A3FEE0A3F5207808E0A3F608DFFAC4
:101CAB00E0A3FFE0A3C0E0E0A3C0E0E0A3C0E0E05E
:101CBB00A3C0E0E0A3C0E010AF08858210858311BC
:101CCB008008858210858311D2AFD083D082020029
:101CDB00B7851183851082E0A3FEE0A3F520780879
:101CEB00E0A3F608DFFAE0A3FFE0A3C0E0E0A3C0A7
:101CFB00E0E0A3C0E0E0A3C0E010AF088582108550
:101D0B0083118008858210858311D2AFD083D08256
:101D1B0022C0D02510C582C0E0E51134FFC583C0B9
:101D2B00E0E510C3958224F310AF088583118582FB
:101D3B00108008858311858210D2AFC8F0A3E9F01B
:101D4B00A3EAF0A3EBF0A37908E709F0A3D8FAEC28
:101D5B00F0A3EDF0A3EEF0A3EFF0A3D0E0F0A3D04F
:101D6B00E0F0A3D0E0F0A3E520F0A3E5F0F0A32290
:101D7B00851183851082E0C0E0A3E0F9A3E0FAA30C
:101D8B00E0FBA37808E0F608A3DFFAE0FCA3E0FD94
:101D9B00A3E0FEA3E0FFA3E0C0E0A3E0C0E0A3E06C
:101DAB00F5D0A3E0F520A3E0A3F5F010AF088583F1
:101DBB00118582108008858311858210D2AFD08265
:101DCB00D083D0E0F8D0E032740480067402800235
:101DDB007401C0E0F404121B5AD0E0121A4E2274A4
:101DEB0004800474028000CCC0E0EDC0E0E510C3B9
:101DFB009CCCAD1150011D10AF068C108D118006BF
:101E0B008C108D11D2AF121A5BD0E0FDD0E0FC220A
:101E1B00D083D082E9C0E0E493A3C386F0C5F095EC
:101E2B00F0F908E493A386F0C5F095F0702408E46C
:101E3B0093A386F0C5F095F0701908E493A386F090
:101E4B00C5F095F0700E08E493A3C3994007E9041D
:101E5B008004A3A3A3E475F002A42582F582E5F028
:101E6B003583F583D0E0F9E493A3C0E0E493C0E0BD
:101E7B00220020202020202020202028282828284D
:101E8B002020202020202020202020202020202047
:101E9B00202088101010101010101010101010109F
:101EAB00101004040404040404040404101010109F
:101EBB00101010414141414141010101010101015A
:101ECB0001010101010101010101010101101010CA
:101EDB00101010424242424242020202020202022D
:101EEB00020202020202020202020202021010109D
:101EFB001020C0E074F2121D1C120DABC2C17F0189
:101F0B00021D7BC0E074F2121D1CAC88E5C1C0E061
:101F1B009007E2E024E0F8A3E03406F98882898395
:101F2B00D0E0F09007E2E02401F0A3E03400F09061
:101F3B0007E2E0F8A3E0F97A007B01121ABD9007E3
:101F4B00E2EAF0A3EBF0C28B7F01021D7B74F81267
:101F5B001C30EAFEEBFFEEF9120DFFEEFAEFFB7F02
:101F6B0001021CDC74F2121BC4EAFEEBFF740E12AE
:101F7B001B9378081219F48E828F83E0FCA3E0FD8B
:101F8B00EC4D6045ECF8EDF9880C890D850C8285DC
:101F9B000D83A3A3A3A3A3A37808120F7140067A02
:101FAB00007B008028850C82850D83A3A3A3A3A3AC
:101FBB00A37808120EEC7006AA0CAB0D800F8C8266
:101FCB008D83E0FCA3E0FD80B77A007B007F0602E7
:101FDB001C9674F0121BC474FE121B29851082858B
:101FEB001183EAF0A3EBF08C0C8D0D85108285111B
:101FFB0083E0FEA3E0FF8E828F83E0F8A3E0F9E895
:10200B0049606A8E828F83E0F8A3E0F9880E890F0E
:10201B00850E82850F83A3A3A3A3A3A3780812190C
:10202B00F4850C82850D83A3A3A3A3A3A378081225
:10203B000EEC700A7AFF7BFF7CFF7DFF8056850ECE
:10204B0082850F83A3A3A3A3A3A378081219F485F6
:10205B000C82850D83A3A3A3A3A3A37808120F61FE
:10206B00400B8E828F83E0FEA3E0FF80898E828FF0
:10207B0083E0F8A3E0F9850C82850D83E8F0A3E9F2
:10208B00F08E828F83E50CF0A3E50DF07A007B00D8
:10209B007C007D007402121B3F7F08021C9674F0BB
:1020AB00121BC474EE121B297402121B93EAF0A3C9
:1020BB00EBF07408121B93ECF0A3EDF07C007D00A9
:1020CB007E007F007404121B93ECF0A3EDF0A3EEE3
:1020DB00F0A3EFF08510828511837400F0A37400D8
:1020EB00F090052CE0FEA3E0FF7402121B93E0F8C6
:1020FB00A3E0F5838882E0F50CE4F50DF50EF50F02
:10210B00741A780C1218EA7422121B93780812199D
:10211B00F4741578081218EA780C79081219A87457
:10212B000E121B93780C121A037402121B93E0F815
:10213B00A3E0F5838882E0F87900E82401F508E450
:10214B0039F509E5093395E0F50AF50B741A7808AA
:10215B001218EA740A121B937808121A03EE4F60D6
:10216B003B851082851183EEF0A3EFF085108285FD
:10217B001183E0F8A3E0C82406F582C83400F58388
:10218B0078081219F4740E121B937808120F614021
:10219B000B8E828F83E0FEA3E0FF80C1EE4F7003B6
:1021AB000222A2851082851183EEF0A3EFF0851039
:1021BB0082851183E0F8A3E0C82406F582C83400B9
:1021CB00F58378081219F4740A121B937808120F0E
:1021DB006150030222A27422121B9378081219F485
:1021EB007808121DD77404121B93E0FCA3E0FD7456
:1021FB0002121B93E0F8A3E0F5838882A3A3E0FA15
:10220B00A3E0FB120E9B7402121B3F8A088B09E59D
:10221B000845097076851082851183E0FAA3E0FBEF
:10222B007404121B9378081219F4E50875F002A4D4
:10223B00C508A8F075F000A428F875F002E509A40C
:10224B0028F5097408121B93E02508F8A3E035095B
:10225B008882F583EAF0A3EBF07404121B937808E1
:10226B001219F4900BFD780812191C7404121B93AD
:10227B007808121A037426121B937808120F165043
:10228B000A7A007B007C007D0080148E828F83E0B5
:10229B00FEA3E0FF0221A77404121B93121A1274FF
:1022AB0012121B3F7F08021C9674F4121BC4EAFE29
:1022BB00EBFFEE246CF582E43FF583E0F87900E860
:1022CB0075F032A4C8AAF075F000A42AFA75F032A2
:1022DB00E9A42AF9EE28F8EF39F9E8246EF508E4B9
:1022EB0039F509EE246CF582E43FF583E0F87900CB
:1022FB00E82401F85001097A047B00121AB5EAC0F0
:10230B00E0EE246CF582E43FF583D0E0F0EE246C34
:10231B00F582E43FF583E0C0E0EE246DF582E43F07
:10232B00F583D0E0F0EE246BF582E43FF583E0F526
:10233B000A750B00780A121DD7EE2438FCE43FFD1A
:10234B00AA08AB09120EA17402121B3FEE246BF507
:10235B0082E43FF583E0F87900E50828F582E5098A
:10236B0039F5837400F0AA08AB097F04021C96743C
:10237B00F0121BC474F9121B29851082851183EA94
:10238B00F0A3EBF07417121B9378081219F47C006E
:10239B007D007E007F007403121B93ECF0A3EDF025
:1023AB00A3EEF0A3EFF0851082851183E02406F5F0
:1023BB000CA3E03400F50D780C121DD77A397B0D88
:1023CB00120E3B7402121B3FE5084509450A450BEB
:1023DB007063851082851183E0F8A3E0C8246DF546
:1023EB0082C83400F583E0700A7402121B937403E5
:1023FB00F08021851082851183E0F8A3E0C8246D5D
:10240B00F582C83400F583E024FFC0E07402121B90
:10241B0093D0E0F07402121B93E0C0E0851082852C
:10242B001183E0F8A3E0C8246DF582C83400F5836E
:10243B00D0E0F0806E851082851183E0F8A3E0C8B0
:10244B00246DF582C83400F583E0F8851082851180
:10245B0083E0F9A3E0C9246CF582C93400F583E06D
:10246B00686040851082851183E0F8A3E0C8246D75
:10247B00F582C83400F583E0F87900E82401F850C0
:10248B0001097A047B00121AB5EAC0E08510828537
:10249B001183E0F8A3E0C8246DF582C83400F583FE
:1024AB00D0E0F0851082851183E0F8A3E0C8246D9D
:1024BB00F582C83400F583E0F8851082851183E03E
:1024CB00F9A3E0C9246CF582C93400F583E0687088
:1024DB0003022570851082851183E0F8A3E0C824E0
:1024EB006DF582C83400F583E0F87900E875F032B9
:1024FB00A4C8AAF075F000A42AFA75F032E9A42A50
:10250B00F9851082851183E028F8A3E039F9E824D6
:10251B006EFAE439FB8A828B83E060498A828B8373
:10252B00E0C0E07403121B93780C1219F48510822F
:10253B00851183E0250CF8A3E0350DF9E82438F577
:10254B0082E439F583D0E0F08A828B83A3AA82AB35
:10255B0083900BFD780C1219F47403121B93780CF7
:10256B0012192F80B07403121B93780C1219F48577
:10257B001082851183E0250CF8A3E0350DF9E824D2
:10258B0038F582E439F5837400F07403121B9378E9
:10259B000C1219F4E50CC0E0851082851183E0F86C
:1025AB00A3E0C8246BF582C83400F583D0E0F07447
:1025BB0003121B93780C1219F4E50CC0E085108202
:1025CB00851183E0F8A3E0C8246AF582C83400F5CE
:1025DB0083D0E0F07403121B93121A36E8494A4B6E
:1025EB0060379007F9E0F8A3E0F9E849602B740332
:1025FB00121B93780C1219F4AC0CAD0D851082855F
:10260B001183E02438FAA3E03400FB9007F9E0F8DB
:10261B00A3E0F5838882121BC27407121B3F7F084D
:10262B00021C9674F0121BC474E4121B29851082D1
:10263B00851183EAF0A3EBF0851082851183E024EA
:10264B0038F8A3E03400F97402121B93E8F0A3E905
:10265B00F0851082851183E0F8A3E0C8246BF58226
:10266B00C83400F583E0FCE4FDFEFF7404121B93F9
:10267B00ECF0A3EDF0A3EEF0A3EFF07508007509F5
:10268B0000750A00750B007402121B93E0F8A3E0AF
:10269B00F5838882E06420702C900C01780C121961
:1026AB00F47404121B93780C12192F7402121B93DF
:1026BB00E02401F8A3E03400F97402121B93E8F054
:1026CB00A3E9F080C27402121B93E0F8A3E0F58338
:1026DB008882E0600E7404121B93121A36E8494A82
:1026EB004B70030229EE901288121DEA7408121B1C
:1026FB0093121DEA7410121BAD740A121B93E0FAAD
:10270B00A3E0FB120D337408121B3F8A0C8B0D8C4C
:10271B000E8D0F850C08850D09850E0A850F0BE5AF
:10272B00084509450A450B70030229EE8510828581
:10273B001183E0F8A3E0C8246AF582C83400F5835E
:10274B00E0F8851082851183E0F9A3E0C9246BF5CD
:10275B0082C93400F583E06870030228139007F9EF
:10276B00E0F8A3E0F9E8496071851082851183E0F8
:10277B00F8A3E0C8246BF582C83400F583E0FA7B3C
:10278B0000851082851183E0F8A3E0C8246AF582E6
:10279B00C83400F583E0F87900EAC398FCEB99FDA7
:1027AB00851082851183E0F8A3E0C8246AF582C8FE
:1027BB003400F583E0F87900851082851183E028D9
:1027CB00F8A3E039F9E82438FAE439FB9007F9E08B
:1027DB00F8A3E0F5838882121BC2851082851183D2
:1027EB00E0F8A3E0C8246BF582C83400F583E0C0A1
:1027FB00E0851082851183E0F8A3E0C8246AF58296
:10280B00C83400F583D0E0F0900BFD7808120EEC85
:10281B00705B7404121B93780C1219F47408121B5E
:10282B0093E0F8A3E0F5838882A3A3E0250CFEA335
:10283B00E0350DFF8E828F83E0601F8E828F83E0E9
:10284B00F9851082851183E0FAA3E0FB120D518EFE
:10285B00828F83A3AE82AF8380DA79208510828545
:10286B001183E0FAA3E0FB120D510229EE7E007FEB
:10287B00008E0CEFF50D3395E0F50EF50F7808791A
:10288B000C120F015048EEF8EFF9E875F002A4C8EE
:10289B00AAF075F000A42AFA75F002E9A42AF974DB
:1028AB0008121B93E58228F582E58339F583E0F85E
:1028BB00A3E0F5838882A3A3121DEE7A417B0D1250
:1028CB000E3B7402121B3F0EEE70A60F80A38510F9
:1028DB0082851183E02438F50CA3E03400F50D78E4
:1028EB000C121DD77402121B93E02406F50CA3E007
:1028FB003400F50D780C121DD77A477B0D120E3B69
:10290B007404121B3F7A017B008A0CEBF50D339597
:10291B00E0F50EF50F7808790C120F01507B74045B
:10292B00121B93780C1219F47408121B93E0F8A382
:10293B00E0F5838882A3A3E0250CF8A3E0350D888E
:10294B0082F583E0FC7404121B93780C1219F4EAE1
:10295B00F8EBF9E875F002A4C8ADF075F000A42D02
:10296B00FD75F002E9A42DF97408121B93E582287A
:10297B00F582E58339F583E0F8A3E0F5838882A33C
:10298B00A3E0250CF8A3E0350D8882F583E06C708D
:10299B00520AEA70010B0229147404121B93780C6F
:1029AB001219F47408121B93E0F8A3E0F5838882E4
:1029BB00A3A3E0250CF8A3E0350D8882F583E0F99D
:1029CB00851082851183E0FAA3E0FB120D51900B69
:1029DB00FD780C1219F47404121B93780C12192F36
:1029EB00022910741C121B3F7F08021C9674F012F4
:1029FB001BC4749A121B29EAFEEBFF900D4E740256
:102A0B00121BAD7464121A5B7403121B9385820E36
:102A1B0085830FEE246BF582E43FF583E0FA7B00B0
:102A2B00EE246AF582E43FF583E0F87900EAC39877
:102A3B00F8EB99F9E50E28F582E50F39F583A385B7
:102A4B008208858309EE246AF582E43FF583E0F87A
:102A5B007900EE28F8EF39F9E82438F50AE439F56E
:102A6B000BEE246AF582E43FF583E024FFF0EE24BD
:102A7B006BF582E43FF583E0F87900EE28F8EF3947
:102A8B00F9E82438F8500109851082851183E8F0A4
:102A9B00A3E9F0EE246BF582E43FF583E024FFF02D
:102AAB00E50A24FFF8E50B34FFF9851082851183C5
:102ABB00E0FAA3E0FBC3E50A9AE50B9B505D850AA0
:102ACB0082850B83E0C0E0850E82850F83D0E0F01A
:102ADB00850E82850F83A385820E85830F850882E1
:102AEB008509837408F0850882850983A38582088C
:102AFB00858309850A82850B83E0C0E08882898300
:102B0B00D0E0F0850A82850B83A385820A85830B2F
:102B1B0088828983A3A882A983808F7402121B9356
:102B2B007408F0850E82850F837420F085088285EA
:102B3B0009837408F0850882850983A3858208853B
:102B4B008309EE246BF582E43FF583E0F87900EE20
:102B5B0028F8EF39F9E82438F582E439F583740065
:102B6B00F09007F9E0F8A3E0F9E849602774021246
:102B7B001B9D880C890DE508C3950CFCE509950D8B
:102B8B00FD7402121BA59007F9E0F8A3E0F583880A
:102B9B0082121BC27466121B3F7F08021C9674F0D4
:102BAB00121BC47499121B29E9C0E0851082851190
:102BBB0083D0E0F0EAFEEBFFEE246BF582E43FF509
:102BCB0083E0F87900E82401F8500109C3E8943256
:102BDB00E99400A2D265D0334003022E13EE246B8E
:102BEB00F582E43FF583E0F8EE246AF582E43FF5E5
:102BFB0083E0686003022C8D851082851183E0C011
:102C0B00E0EE246AF582E43FF583E0F87900EE28E4
:102C1B00F8EF39F9E82438F582E439F583D0E0F0A0
:102C2B00EE246AF582E43FF583E02401F0EE246B99
:102C3B00F582E43FF583E02401F8E8C0E0EE246B75
:102C4B00F582E43FF583D0E0F07900EE28F8EF3918
:102C5B00F9E82438F582E439F5837400F09007F92C
:102C6B00E0F8A3E0F9E84960167C017D00AA10ABFF
:102C7B00119007F9E0F8A3E0F5838882121BC202DA
:102C8B002E13900DB27403121BAD7464121A5BEE0B
:102C9B00246BF582E43FF583E0F87900EE28F8EF3A
:102CAB0039F9E82438F50AE439F50BEE246BF58293
:102CBB00E43FF583E02401F0EE246AF582E43FF56E
:102CCB0083E0F87900EE28F8EF39F9E82438F8506A
:102CDB0001097401121B93E8F0A3E9F0EE246AF5E5
:102CEB0082E43FF583E02401F07401121B93E0F8BA
:102CFB00A3E0F9E50AC398F8E50B99F97403121BE5
:102D0B0093E58228F508E58339F50985088285095D
:102D1B0083A385820E85830FE50A24FFF8E50B3428
:102D2B00FFF97401121B93E0FAA3E0FBC3E89AE9E5
:102D3B009B405888828983E0C0E08508828509839F
:102D4B00D0E0F0E50824FFF508E50934FFF5098527
:102D5B000E82850F837408F0850E82850F83A38501
:102D6B00820E85830F88828983E0C0E0850A828585
:102D7B000B83D0E0F0E824FFF8E934FFF9E50A24EF
:102D8B00FFF50AE50B34FFF50B8097851082851153
:102D9B0083E0C0E0850882850983D0E0F08510824E
:102DAB00851183E0C0E07401121B93E0F8A3E0F5FA
:102DBB00838882D0E0F0EE246BF582E43FF583E06C
:102DCB00F87900EE28F8EF39F9E82438F582E43980
:102DDB00F5837400F09007F9E0F8A3E0F9E8496097
:102DEB00277403121B9D880C890DE50EC3950CFCF3
:102DFB00E50F950DFD7403121BA59007F9E0F8A3E1
:102E0B00E0F5838882121BC27467121B3F7F080296
:102E1B001C9674F0121BC474E4121B29741A121B37
:102E2B0093EAF0A3EBF07402121B93ECF0A3EDF01A
:102E3B007C007D007E007F007416121B93ECF0A3C8
:102E4B00EDF0A3EEF0A3EFF07C007D007E007F00A1
:102E5B007412121B93ECF0A3EDF0A3EEF0A3EFF0C2
:102E6B007C007D007E007F00740E121B93ECF0A3A0
:102E7B00EDF0A3EEF0A3EFF07C007D007E007F0071
:102E8B00740A121B93ECF0A3EDF0A3EEF0A3EFF09A
:102E9B007402121B93E02438F8A3E03400F9851078
:102EAB0082851183E8F0A3E9F0851082851183E018
:102EBB00F8A3E0F5838882E06420701C851082857E
:102ECB001183E02401F8A3E03400F9851082851109
:102EDB0083E8F0A3E9F080D1851082851183E0F8B7
:102EEB00A3E0F5838882E0700302320885108285A7
:102EFB001183E0F8A3E0F5838882E0F508E4F50997
:102F0B00F50AF50B7406121B93780C1219F4901238
:102F1B008C780C121982741A78081218EA780C79CA
:102F2B00081219A87406121B93780C121A03851039
:102F3B0082851183E0F8A3E0F5838882E0700302B9
:102F4B00303C851082851183E0F8A3E0F5838882FD
:102F5B00E06420700302303C851082851183E0F819
:102F6B00A3E0F5838882E0F508E4F509F50AF50B93
:102F7B007412121B93780812192F740E121B93786C
:102F8B00081219F4851082851183E0F8A3E0F5830C
:102F9B008882E0F87900E50868F8E50969F974B406
:102FAB0028F582740E39F583E0FCE4FDFEFF740E08
:102FBB00121B93ECF0A3EDF0A3EEF0A3EFF0740A69
:102FCB00121B9378081219F4851082851183E0F88F
:102FDB00A3E0F5838882E0F87900E50868F8E50955
:102FEB0069F974B428F582740F39F583E0FCE4FDBC
:102FFB00FEFF740A121B93ECF0A3EDF0A3EEF0A30B
:10300B00EFF0851082851183E02401F8A3E03400F2
:10301B00F9851082851183E8F0A3E9F0900BFD7818
:10302B00081219F47416121B93780812192F022F19
:10303B00397406121B9378081219F49012907808C1
:10304B001219827416121B93780C1219F4741578DA
:10305B000C1218EA901294780C1219827808790CD9
:10306B001219A87406121B937808121A037406120D
:10307B001B9378081219F49012987808121982741D
:10308B0012121B93780C1219F47410780C1218EAA4
:10309B0090129C780C1219827808790C1219A8746A
:1030AB0006121B937808121A037406121B937808E6
:1030BB001219F49012A07808121982740E121B9335
:1030CB00780C1219F47408780C1218EA9012A47880
:1030DB000C1219827808790C1219A87406121B931A
:1030EB007808121A037406121B9378081219F490BD
:1030FB0012A87808121982740A121B93780C1219F1
:10310B00F49012AC780C1219827808790C1219A869
:10311B007406121B937808121A037406121B93126F
:10312B001DEA741E121B93E0FAA3E0FB120D277429
:10313B0004121B3F7404121B93EAF0A3EBF074040C
:10314B00121B93E0F8A3E0F9E84970030231E7742E
:10315B0004121B93E0F8A3E0F9E8FEE9FF9012B02C
:10316B0078081219F4EE240CF582E43FF583780805
:10317B00120EEC703B7404121B93E0F8A3E0F58382
:10318B008882A3A3A3A3121DEE8E828F83A3A3A376
:10319B00A3A3A3A3A3A3A3E0FCA3E0FD7404121BAE
:1031AB0093E0FAA3E0FB120D997402121B3F804DC2
:1031BB007402121B93E02438FAA3E03400FB74046E
:1031CB00121B93E0F8A3E0F5838882A3A3A3A3E0EB
:1031DB00F8A3E0F5838882121BC280217402121BB4
:1031EB0093E02438F508A3E03400F5097808121DA4
:1031FB00D77A167B0E120E3B7402121B3F7402120F
:10320B001B93E0F8A3E0C8246BF582C83400F58368
:10321B007400F07402121B93E0F8A3E0C8246AF563
:10322B0082C83400F5837400F0741C121B3F7F08B6
:10323B00021C9674F4121BC48A088B09E50824C877
:10324B00F8E50934FFF9E8FEE9FFEE2406F50AE498
:10325B003FF50B780A121DD79012B4121DEA90128B
:10326B00B4121DEA7A277B0E120E3B740A121B3F17
:10327B007F04021C9674F0121BC474FA121B29747F
:10328B0004121B93EAF0A3EBF0750C00750D00759F
:10329B000E00750F0090052CE0F8A3E0F9E8FEE9AD
:1032AB00FFEE4F700302336C851082851183EEF0B5
:1032BB00A3EFF0851082851183E0F8A3E0C8240604
:1032CB00F582C83400F58378081219F49012B87897
:1032DB0008121982780C7908120ED7605985108262
:1032EB00851183E0F8A3E0C82406F582C83400F505
:1032FB008378081219F49012B8780812198285088D
:10330B000C85090D850A0E850B0F850C08850D099B
:10331B00850E0A850F0B741A78081218D19012BCFF
:10332B0078081219BB7808121DD37A367B0E120E51
:10333B003B7404121B3F851082851183E0F8A3E0D8
:10334B00F5838882A3A3121DEE7A417B0D120E3BEF
:10335B007402121B3F8E828F83E0FEA3E0FF0232CA
:10336B00AC7404121B93E024C8F8A3E034FFF97487
:10337B0002121B93E8F0A3E9F07402121B93E024F2
:10338B0006F508A3E03400F5097808121DD77A4337
:10339B007B0E120E3B7402121B3F7406121B3F7FF7
:1033AB0008021C9674F6121BC4EAFEEBFF7508525A
:1033BB0075090E7808121DD77A4A7B0E120E3B74D4
:1033CB0002121B3F7F02021C9674F4121BC474FE84
:1033DB00121B298A088B09750A01750B00780A12D2
:1033EB001DD77402121BADAA08AB09120D81740212
:1033FB00121B3F8A0A8B0BAE0AAF0BC3EE9401EF85
:10340B009400A2D265D0334031851082851183E0C0
:10341B00F8A3E0F9E84970227C257D007AE67B1061
:10342B009007F9E0F8A3E0F5838882121BC290079E
:10343B00FB7400F0A37400F080267C1C7D007A0CDA
:10344B007B119007F9E0F8A3E0F5838882121BC289
:10345B009007F9E0F8A3E0F99007FBE8F0A3E9F097
:10346B007402121B3F7F04021C9674F0121BC4746F
:10347B00E6121B297406121B93EAF0A3EBF07408F7
:10348B00121B93ECF0A3EDF07408121B93E0F8A35E
:10349B00E0F9851082851183E8F0A3E9F07C007DCB
:1034AB00007E007F00740E121B93ECF0A3EDF0A3D3
:1034BB00EEF0A3EFF07C007D007E007F00740A121B
:1034CB001B93ECF0A3EDF0A3EEF0A3EFF07C007DEB
:1034DB00007E007F007412121B93ECF0A3EDF0A39F
:1034EB00EEF0A3EFF07C007D007E007F00741612DF
:1034FB001B93ECF0A3EDF0A3EEF0A3EFF08510829D
:10350B00851183E0F8A3E0F5838882E07003023530
:10351B00F5851082851183E0F8A3E0F5838882E0BE
:10352B00F508E4F509F50AF50B7412121B937808EC
:10353B0012192F740E121B9378081219F48510822E
:10354B00851183E0F8A3E0F5838882E0F87900E544
:10355B000868F8E50969F974B428F582740E39F531
:10356B0083E0FCE4FDFEFF740E121B93ECF0A3ED65
:10357B00F0A3EEF0A3EFF0740A121B937808121964
:10358B00F4851082851183E0F8A3E0F5838882E04F
:10359B00F87900E50868F8E50969F974B428F5824B
:1035AB00740F39F583E0FCE4FDFEFF740A121B93E4
:1035BB00ECF0A3EDF0A3EEF0A3EFF0900BFD780889
:1035CB001219F47416121B93780812192F85108296
:1035DB00851183E02401F8A3E03400F9851082857E
:1035EB001183E8F0A3E9F00235087402121B9378FB
:1035FB00081219F49012A07808121982740E121B7B
:10360B0093780C1219F47408780C1218EA9012A41F
:10361B00780C1219827808790C1219A87402121BF3
:10362B00937808121A037402121B9378081219F478
:10363B009012A87808121982740A121B93780C1234
:10364B0019F49012AC780C1219827808790C1219B3
:10365B00A87402121B937808121A037402121B939C
:10366B0078081219F49012907808121982741612B5
:10367B001B93780C1219F47415780C1218EA90122B
:10368B0094780C1219827808790C1219A87402120A
:10369B001B937808121A037402121B9378081219E1
:1036AB00F490129878081219827412121B93780CEA
:1036BB001219F47410780C1218EA90129C780C12F0
:1036CB0019827808790C1219A87402121B937808C6
:1036DB00121A037408121B93E0F8A3E0F583888297
:1036EB00E0F508E4F509F50AF50B7402121B937863
:1036FB000C1219F490128C780C121982741A780827
:10370B001218EA780C79081219A87402121B937814
:10371B000C121A037402121B93121A367406121B24
:10372B0093E0FCA3E0CC2406F582CC3400F58312A5
:10373B001A427408121B93E0F8A3E0F97406121BEB
:10374B0093E0FAA3E0F5838A82A3A3E8F0A3E9F060
:10375B00742A121B93E0F8A3E0F97406121B93E092
:10376B00FAA3E0F5838A82A3A3A3A3E8F0A3E9F06D
:10377B007406121B93E0FCA3E0FD7A2C7B05120D63
:10378B002D741A121B3F7F08021C9674F7121BC470
:10379B00EAF8EBF97409121B93E0FEA3E0FF7A0041
:1037AB007B0088828983E06420700B88828983A3E5
:1037BB00A882A98380EC88828983E06059C3EA9E42
:1037CB00EB9FA2D265D033504D8C828D83E8F0A352
:1037DB00E9F088828983E06420601288828983E023
:1037EB00600B88828983A3A882A98380E58882895C
:1037FB0083E064207012888289837400F088828948
:10380B0083A3A882A98380E50AEA70010BEC24024A
:10381B00FC50A30D80A07F01021C9674F0121BC4F8
:10382B00EAFEEBFF8C088D097410121B93E0F50E6A
:10383B00A3E0F50F8E828F83E06420700B8E828F56
:10384B0083A3AE82AF8380EC8E828F83E064206093
:10385B00128E828F83E0600B8E828F83A3AE82AF3A
:10386B008380E58E828F83E06420700B8E828F8342
:10387B00A3AE82AF8380EC8E828F83E0643F7007B0
:10388B007AFF7BFF023A967C007D008E828F83E06D
:10389B007003023A92C3EC950EED950FA2D265D050
:1038AB00334003023A928508828509837400F0A3A2
:1038BB007400F08E828F83E0643060030239A18E36
:1038CB00828F83A3E0647860030239A1EE2402FEA9
:1038DB0050010F8E828F83E0F87900E824D0F8E94D
:1038EB0034FFF9880C890DC3E8940AE99400502B36
:1038FB00850882850983E0F50AA3E0F50B7404784B
:10390B000A121B16E50A450CF8E50B450DF985085F
:10391B0082850983E8F0A3E9F0806F8E828F83E0C4
:10392B00F87900E824BFF8E934FFF9880C890DC356
:10393B00E89406E99400401D8E828F83E0F87900AD
:10394B00E8249FF8E934FFF9880C890DC3E8940645
:10395B00E994005032850882850983E0F50AA3E0DB
:10396B00F50B7404780A121B16E50A250CF8E50B07
:10397B00350DF9E8240AF850010985088285098379
:10398B00E8F0A3E9F08003023A568E828F83A3AE50
:10399B0082AF830238DE8E828F83E0642D7004D277
:1039AB00F08002C2F0A2F0E433F87900E849600934
:1039BB008E828F83A3AE82AF838E828F83E0FA7B5E
:1039CB0000EA24D0FAEB34FFFB8A0C8B0DC3E50C19
:1039DB00940AE50D94005052850882850983E0FA1C
:1039EB00A3E0FBEA75F00AA4CA85F00A75F000A4FF
:1039FB00250AF50A75F00AEBA4250AFBEA250CFA51
:103A0B00EB350DFB850882850983EAF0A3EBF08E7D
:103A1B00828F83A3AE82AF83E0FA7B00EA24D0FAD5
:103A2B00EB34FFFB8A0C8B0D80A3E849601D8508E6
:103A3B0082850983E0FAA3E0FBC3E49AFAE49BFBDB
:103A4B00850882850983EAF0A3EBF08E828F83E0F1
:103A5B00600F8E828F83E0642060067AFE7BFF808E
:103A6B002A8E828F83E06420700B8E828F83A3AEAD
:103A7B0082AF8380EC0CEC70010DE5082402F50895
:103A8B0050020509023896ECFAEDFB7F08021C96F2
:103A9B0074F4121BC4EAFEEBFF8C088D09740C1234
:103AAB001B93E0F50AA3E0F50B9007F9E0F8A3E010
:103ABB00F9E84960167C5E7D017A297B119007F944
:103ACB00E0F8A3E0F5838882121BC28E828F837489
:103ADB008DF0A3740DF0780A121DD7AC08AD09EE6A
:103AEB00FAEFFB120D8D7402121B3F7F04021C9622
:103AFB0074F0121BC474FE121B29EAFEEBFF8C0838
:103B0B008D097412121B93E0F50EA3E0F50F750AE5
:103B1B0000750B00E508250EF8E509350FF9851042
:103B2B0082851183E8F0A3E9F0851082851183E08B
:103B3B00F8A3E0F9C3E50898E509994003023D6550
:103B4B00E50A450B6003023C4A850882850983E040
:103B5B00C39420401E850882850983E0C3947F505F
:103B6B0012850882850983E0F9EEFAEFFB120D51FD
:103B7B00023D55850882850983E024FD606C24FB9A
:103B8B007003023C2A147003023C4024FC600E2498
:103B9B00F2604E249C7003023C2A023D55EE246BCE
:103BAB00F582E43FF583E0601B7A597B0E120E3BE6
:103BBB00EEFAEFFB120D39EEFCEFFD7A2C7B0512C2
:103BCB000D57801AEE2406F50CE43FF50D780C1218
:103BDB001DD77A5C7B0E120E3B7402121B3F023D0B
:103BEB0055750A01750B00023D55EE246AF582E40A
:103BFB003FF5837400F0EE246BF582E43FF583749C
:103C0B0000F0EE2406F50CE43FF50D780C121DD7F1
:103C1B007A617B0E120E3B7402121B3F023D55EE76
:103C2B00246AF582E43FF583E06007EEFAEFFB12BE
:103C3B000D4B023D55EEFAEFFB120D45023D55744F
:103C4B0001650A70047400650B701D850882850977
:103C5B0083E0645B7009750A02750B00023D5575B4
:103C6B000A00750B00023D55850882850983E02407
:103C7B00BF600F146021146033147003023D1A02ED
:103C8B003D559012B4121DEAEEFAEFFB120D3F7484
:103C9B0004121B3F023D55900BFD121DEAEEFAEF8D
:103CAB00FB120D3F7404121B3F023D55EE246BF5C6
:103CBB0082E43FF583E0F8EE246AF582E43FF58376
:103CCB00E06860499007F9E0F8A3E0F9E849607A09
:103CDB00EE246AF582E43FF583E0F8740128C0E036
:103CEB00EE246AF582E43FF583D0E0F07C017D00A1
:103CFB007900EE28F8EF39F9E82438FAE439FB902B
:103D0B0007F9E0F8A3E0F5838882121BC2803BEE33
:103D1B00246AF582E43FF583E0602FEE246AF58296
:103D2B00E43FF583E024FFF09007F9E0F8A3E0F916
:103D3B00E84960167C017D007A687B0E9007F9E0FC
:103D4B00F8A3E0F5838882121BC28508828509835C
:103D5B00A3858208858309023B347402121B3F7FC3
:103D6B0008021C9674F2121BC474FE121B298A0CD7
:103D7B008B0DECFEEDFFE50C2469F508E4350DF534
:103D8B0009850882850983E0705C8E828F83E064ED
:103D9B0059601E8E828F83E0647960158E828F83CB
:103DAB00E0644E600C8E828F83E0646E6003023E93
:103DBB00DF8E828F83E0C0E0850882850983D0E0A7
:103DCB00F09007F9E0F8A3E0F9E84960167C017D73
:103DDB0000EEFAEFFB9007F9E0F8A3E0F583888299
:103DEB00121BC2023EDF8E828F83E06408702E901E
:103DFB0007F9E0F8A3E0F9E84960167C037D007A47
:103E0B006A7B0E9007F9E0F8A3E0F5838882121B1A
:103E1B00C28508828509837400F0023EDF8E828F93
:103E2B0083E0640D600C8E828F83E0640A60030272
:103E3B003EDF750A02750B00780A121DD7E50C24BC
:103E4B0004FCE4350DFD7402121BA5120EA17402C5
:103E5B00121B3F850882850983E0F50A8508828558
:103E6B0009837400F0850C82850D83748DF0A37427
:103E7B000DF0850C82850D83A3A3A3A37400F0A37F
:103E8B007400F09007F9E0F8A3E0F9E84960167CBC
:103E9B00027D007A597B0E9007F9E0F8A3E0F583D9
:103EAB008882121BC27459650A60067479650A70A0
:103EBB001CE50C2438FAE4350DFB85108285118343
:103ECB00E0F8A3E0F5838882121BC280077A6E7B31
:103EDB000E120E3B7402121B3F7F06021C9674F4EB
:103EEB00121BC4EAFEEBFF8C088D097808121DD754
:103EFB007A867B0E120E3B7402121B3F8E828F83CF
:103F0B007493F0A3740DF0750A02750B00780A1206
:103F1B001DD7740E121BADEE2404FAE43FFB120EF8
:103F2B00A17402121B3FEE2469F582E43FF5837402
:103F3B0000F07F04021C9674F0121BC474F6121B63
:103F4B00297408121B93ECF0A3EDF0EAFEEBFF745F
:103F5B0004121B9374B4F0A37410F07402121B932D
:103F6B007487F0A3740DF0741A121B9D8510828553
:103F7B001183E8F0A3E9F0851082851183E0F8A3A3
:103F8B00E0F5838882E0F8A3E0F9E4FAFB8808897E
:103F9B00098A0A8B0B851082851183E02402F8A312
:103FAB00E03400F9851082851183E8F0A3E9F090E5
:103FBB0012C4C082C08385080C85090D850A0E8545
:103FCB000B0F9012C0780C121982D083D082780C10
:103FDB00120EEC60030240B69012C87808120EEC79
:103FEB007039851082851183E0F8A3E0F583888210
:103FFB00E0F8A3E0F97404121B93E8F0A3E9F08551
:10400B001082851183E02402F8A3E03400F98510B7
:10401B0082851183E8F0A3E9F080559012CC7808E3
:10402B00120EEC704B851082851183E0F8A3E0F53E
:10403B00838882E0F8A3E0F97406121B93E8F0A3DF
:10404B00E9F0851082851183E02402F8A3E03400A7
:10405B00F9851082851183E8F0A3E9F07406121B31
:10406B0093E0F8A3E0F97402121B93E8F0A3E9F0D4
:10407B00851082851183E0F8A3E0F5838882E0F850
:10408B00A3E0F9E4FAFB880889098A0A8B0B8510EF
:10409B0082851183E02402F8A3E03400F9851082B5
:1040AB00851183E8F0A3E9F0023FBAEE246BF582A9
:1040BB00E43FF5837400F0EE246AF582E43FF58368
:1040CB007400F07408121B93E0F8A3E0F98E828F52
:1040DB0083A3A3E8F0A3E9F07402121B93E0F8A307
:1040EB00E0F98E828F83E8F0A3E9F08E828F8374E0
:1040FB008DF0A3740DF0EE246CF582E43FF5837420
:10410B0000F0EE246DF582E43FF5837400F08E82AF
:10411B008F83A3A3A3A37400F0A37400F074041201
:10412B001B93E0FCA3E0FDEE2406FAE43FFB120E2A
:10413B00BF740A121B3F7F08021C9674F4121BC437
:10414B008A088B09ECFEEDFFE5084509601B750A33
:10415B0032750B00780A121DD7AC08AD097AB47B07
:10416B0010120ECB7402121B3F9007F9EEF0A3EF67
:10417B00F09007FBEEF0A3EFF0750A63750B0D786B
:10418B000A121DD77C907D0E7A2E7B05120D75744D
:10419B0002121B3F750A69750B0D780A121DD77C2D
:1041AB00957D0E7A387B05120D757402121B3F75C7
:1041BB000A5D750B0D780A121DD77CA37D0E7A4212
:1041CB007B05120D757402121B3F750A6F750B0D73
:1041DB00780A121DD77CA97D0E7A4C7B05120D75C2
:1041EB007402121B3F7F04021C9674F0121BC474E2
:1041FB00B5121B29EAFCEBFD746B121B93780812AA
:10420B0019F4E5085420FF746B121B9378081219EC
:10421B00F4E50854106012900C0578081219F47428
:10422B006B121B937808121995746B121B937808F9
:10423B001219F4E508A2E05004743080027420C017
:10424B00E0851082851183D0E0F07E00746B121B29
:10425B009378081219F4E508540270030242F790A0
:10426B0012B478081219F4745B121B937808120FAE
:10427B0016502F7E2D745B121B9378081219F4784D
:10428B00081218C0745B121B937808121A03900C57
:10429B000178081219F47463121B93780812192F02
:1042AB00804A746B121B9378081219F4E5085404B6
:1042BB0060167E2B900C0178081219F47463121B94
:1042CB0093780812192F8024746B121B93780812A1
:1042DB0019F4E508540860147E20900C017808123C
:1042EB0019F47463121B93780812192F746B121B39
:1042FB009378081219F4E5085440604E9014017835
:10430B00081219F4745F121B937808120EEC7014D8
:10431B00900C0578081219F47463121B9378081229
:10432B00192F802690140578081219F4745F121B4C
:10433B00937808120EEC7012900C0178081219F495
:10434B007463121B93780812192F750800750900F6
:10435B00750A00750B007401121B937808121A036F
:10436B00745B121B93121A367405121B93121A42AA
:10437B007405121B93780C1219F4745F121B93784B
:10438B00081219F4780C79081217E674D52508F57C
:10439B008274133509F583E04FC0E07401121B934F
:1043AB0078081219F47409121B93E5822508F5821B
:1043BB00E5833509F583D0E0F0900BFD78081219F1
:1043CB00F47401121B93780812192F7405121B93A6
:1043DB00780C1219F4745F121B9378081219F47885
:1043EB000C79081217E6850C08850D09850E0A85D0
:1043FB000F0B7405121B937808121A037405121B0A
:10440B0093121A36E8494A4B600302437B7401123C
:10441B001B9378081219F47467121B937808120F08
:10442B001650107401121B93121A367467121B93D9
:10443B00121A427467121B9378081219F4746312E0
:10444B001B93780812196E746B121B937808121950
:10445B00F4E50854117038900BFD78081219F474B8
:10446B0063121B937808120F1640248C828D837471
:10447B0020F08C828D83A3AC82AD83900C017808E5
:10448B001219F47463121B93780812192F80C8EE5B
:10449B006013EEC0E08C828D83D0E0F08C828D8334
:1044AB00A3AC82AD83746B121B9378081219F4E5DD
:1044BB00085440605F90140578081219F4745F1269
:1044CB001B937808120EEC70128C828D837430F073
:1044DB008C828D83A3AC82AD8380399014017808D4
:1044EB001219F4745F121B937808120EEC70258C62
:1044FB00828D837430F08C828D83A3AC82AD8374F8
:10450B00584FC0E08C828D83D0E0F08C828D83A3DA
:10451B00AC82AD83746B121B9378081219F4E50807
:10452B0054107041900BFD78081219F47463121B30
:10453B00937808120F16402D851082851183E0C0E9
:10454B00E08C828D83D0E0F08C828D83A3AC82AD26
:10455B0083900C0178081219F47463121B9378087A
:10456B0012192F80BF7467121B9378081219F474F9
:10457B0001121B937808120F1650248C828D8374B2
:10458B0030F08C828D83A3AC82AD83900C017808C4
:10459B001219F47467121B93780812192F80C690A6
:1045AB000BFD78081219F47401121B937808120F83
:1045BB001640427401121B9378081219F4900C01E7
:1045CB00780812191C7401121B937808121A0374C1
:1045DB0009121B93E5822508F582E5833509F583DE
:1045EB00E0C0E08C828D83D0E0F08C828D83A3AC15
:1045FB0082AD8380AA900BFD78081219F4746312B4
:10460B001B937808120F1640248C828D837420F034
:10461B008C828D83A3AC82AD83900C017808121928
:10462B00F47463121B93780812192F80C8ECFAEDFF
:10463B00FB744B121B3F7F08021C9674F0121BC4B9
:10464B0074AB121B297471121B9378081219F4E5C1
:10465B000854106012900C0578081219F47471123A
:10466B001B9378081219957471121B937808121901
:10467B00F4E508A2E0500A7402121B937430F08028
:10468B00087402121B937420F07402121B93E0C087
:10469B00E07401121B93D0E0F09012B47808121959
:1046AB00F4746D121B937808120F164014901409B2
:1046BB0078081219F4746D121B937808120F1640B8
:1046CB00187C067D007E007F00746D121B93ECF04E
:1046DB00A3EDF0A3EEF0A3EFF07465121B93780C2F
:1046EB001219F49012B478081219F4780C79081294
:1046FB0011755037851082851183742DF0746512F6
:10470B001B9378081219F4C50BB2E7C50B7465122D
:10471B001B937808121A03900C0178081219F47481
:10472B0069121B93780812192F8009851082851145
:10473B00837400F07C007D007E007F007403121BED
:10474B0093ECF0A3EDF0A3EEF0A3EFF07465121B66
:10475B009378081219F478081210087407121B9337
:10476B007808121A03746D121B93121A2AEC4D4E11
:10477B004F70030248D37465121B93780C1219F413
:10478B007407121B9378081219F47808120FAB7880
:10479B000C7908121341746D121B9378081219F4DB
:1047AB00E50875F004A4C508A8F075F000A428F876
:1047BB0075F004E509A428F50974E52508F582745C
:1047CB00133509F58378081219F4780C790812114E
:1047DB00C1780C121008740B121B93780C121A036D
:1047EB007C007D007E007F00740F121B93ECF0A306
:1047FB00EDF0A3EEF0A3EFF0746D121B937808129B
:10480B0019F4740F121B937808120F164003024809
:10481B00A3740B121B93780C1219F490128878085E
:10482B001219F4780C79081217E6E5082430C0E069
:10483B007403121B9378081219F47413121B93E56B
:10484B00822508F582E5833509F583D0E0F0900BDE
:10485B00FD78081219F47403121B93780812192FA0
:10486B00740B121B93780C1219F49012887808129F
:10487B0019F4780C79081217E6740B121B93780C49
:10488B00121A03900BFD78081219F4740F121B9374
:10489B00780812192F0248037403121B937808121D
:1048AB0019F47413121B93E5822508F582E5833501
:1048BB0009F583742EF0900BFD78081219F474032C
:1048CB00121B93780812192F7407121B93780C1272
:1048DB0019F490128878081219F4780C79081217C9
:1048EB00E6E5082430C0E07403121B937808121914
:1048FB00F47413121B93E5822508F582E5833509C1
:10490B00F583D0E0F0900BFD78081219F4740312C4
:10491B001B93780812192F7407121B93780C12191A
:10492B00F490128878081219F4780C79081217E6AB
:10493B007407121B93780C121A037407121B931231
:10494B001A2AEC4D4E4F70807403121B9378081289
:10495B0019F47469121B93780812196E7471121B77
:10496B009378081219F4E508541070757401121B32
:10497B0093E06430702B851082851183E060228573
:10498B001082851183E0C0E08A828B83D0E0F08AAD
:10499B00828B83A3AA82AB838510828511837400DB
:1049AB00F0900BFD78081219F47469121B937808B8
:1049BB00120F16402C7401121B93E0C0E08A828BFD
:1049CB0083D0E0F08A828B83A3AA82AB83900C0105
:1049DB0078081219F47469121B93780812192F8036
:1049EB00C0851082851183E0601985108285118343
:1049FB00E0C0E08A828B83D0E0F08A828B83A3AA0B
:104A0B0082AB83900BFD78081219F47403121B937D
:104A1B007808120F1640427403121B937808121970
:104A2B00F4900C01780812191C7403121B9378086C
:104A3B00121A037413121B93E5822508F582E58382
:104A4B003509F583E0C0E08A828B83D0E0F08A825F
:104A5B008B83A3AA82AB8380AA900BFD78081219D3
:104A6B00F47469121B937808120F1640248A828BF8
:104A7B00837420F08A828B83A3AA82AB83900C0170
:104A8B0078081219F47469121B93780812192F8085
:104A9B00C87455121B3F7F08021C9674F0121BC47E
:104AAB007482121B297424121B93EAF0A3EBF0906F
:104ABB0007F9E0F8A3E0F9E84970030255F3740A2B
:104ACB00121B937400F0A37400F07424121B93E078
:104ADB00F8A3E0F97404121B93E8F0A3E9F0740453
:104AEB00121B93E0F8A3E0F9851082851183E8F09F
:104AFB00A3E9F0748E121B9D7402121B93E8F0A3B2
:104B0B00E9F0851082851183E0F8A3E0F5838882B4
:104B1B00E070030255A2851082851183E0F8A3E0B3
:104B2B00F5838882E0642560030255857426121B89
:104B3B009D88088909AE08AF097404121B93E0F82D
:104B4B00A3E0F9851082851183E0687003A3E06907
:104B5B00604D851082851183C082C0837404121B43
:104B6B0093E0F8A3E0F9D083D082E0C398FCA3E0F4
:104B7B0099FD7404121B93E0FAA3E0FB9007F9E094
:104B8B00F8A3E0F5838882121BC2851082851183FE
:104B9B00E0F8A3E0F97404121B93E8F0A3E9F07AB0
:104BAB00007B007C007D00740C121B93EAF0A3EBDE
:104BBB00F0A3ECF0A3EDF07A007B007C007D007499
:104BCB0014121B93EAF0A3EBF0A3ECF0A3EDF0852A
:104BDB001082851183E02401F8A3E03400F98510DD
:104BEB0082851183E8F0A3E9F0851082851183E0BB
:104BFB00F8A3E0F5838882E024E0603A24FD604A64
:104C0B0024F8601E24FE600624FD6052806490141C
:104C1B000178081219F4740C121B9378081219CE30
:104C2B008068900CC078081219F4740C121B9378DE
:104C3B00081219CE805490140578081219F4740CCC
:104C4B00121B9378081219CE80409012BC78081270
:104C5B0019F4740C121B9378081219CE802C900B3C
:104C6B00FD78081219F4740C121B9378081219CEE4
:104C7B0080187A017B007C007D007414121B93EA70
:104C8B00F0A3EBF0A3ECF0A3EDF07414121B931252
:104C9B001A36E8494A4B7003024BDA8510828511AC
:104CAB0083E0F8A3E0F5838882E0F87900747D282F
:104CBB00F582741E39F583E493A2E24003024D9A08
:104CCB007A007B007C007D007406121B93EAF0A334
:104CDB00EBF0A3ECF0A3EDF07406121B9378081223
:104CEB0019F4901288780C1219F47808790C1217B1
:104CFB0066851082851183E0F8A3E0F5838882E056
:104D0B00F50CE4F50DF50EF50F7808790C12190971
:104D1B0090140D780812191C7406121B9378081244
:104D2B001A03851082851183E02401F8A3E0340077
:104D3B00F9851082851183E8F0A3E9F0851082854F
:104D4B001183E0F8A3E0F5838882E0F87900747DA5
:104D5B0028F582741E39F583E493A2E25003024CCA
:104D6B00E390141178081219F47406121B93780847
:104D7B00120F1640327A587B007C007D00740612AD
:104D8B001B93EAF0A3EBF0A3ECF0A3EDF080187A01
:104D9B00FF7BFF7CFF7DFF7406121B93EAF0A3EBF6
:104DAB00F0A3ECF0A3EDF0851082851183E0F8A35E
:104DBB00E0F5838882E0642E6003024EB17A007BBB
:104DCB00007C007D007410121B93EAF0A3EBF0A3A0
:104DDB00ECF0A3EDF0851082851183E02401F8A39C
:104DEB00E03400F9851082851183E8F0A3E9F085A2
:104DFB001082851183E0F8A3E0F5838882E0F879CF
:104E0B0000747D28F582741E39F583E493A2E25079
:104E1B00677410121B9378081219F4901288780C8F
:104E2B001219F47808790C12176685108285118394
:104E3B00E0F8A3E0F5838882E0F50CE4F50DF50EC0
:104E4B00F50F7808790C12190990140D78081219BE
:104E5B001C7410121B937808121A0385108285118B
:104E6B0083E02401F8A3E03400F9851082851183D7
:104E7B00E8F0A3E9F0024DFA90141178081219F436
:104E8B007410121B937808120F1640327A587B005D
:104E9B007C007D007410121B93EAF0A3EBF0A3ECE3
:104EAB00F0A3EDF080187AFF7BFF7CFF7DFF741081
:104EBB00121B93EAF0A3EBF0A3ECF0A3EDF085103B
:104ECB0082851183E0F8A3E0F5838882E0646C703F
:104EDB0040851082851183E0F8A3E0F5838882E09A
:104EEB00FAE4FBFCFD741C121B93EAF0A3EBF0A39A
:104EFB00ECF0A3EDF0851082851183E02401F8A37B
:104F0B00E03400F9851082851183E8F0A3E9F08085
:104F1B00187AFF7BFF7CFF7DFF741C121B93EAF05A
:104F2B00A3EBF0A3ECF0A3EDF07A0A7B007C007D01
:104F3B00007414121B93EAF0A3EBF0A3ECF0A3EDB7
:104F4B00F0851082851183E0F8A3E0F5838882E079
:104F5B0024A8700302546824F560391470030254BA
:104F6B008224FE70030253AC24FD7003025482248E
:104F7B00FA700302543C1470030252CA24FD7003EE
:104F8B0002509E24FE700302549424FD70030254BD
:104F9B0056025585740C121B9378081219F4E50808
:104FAB00541070387406121B9378081219F4900C75
:104FBB0001780812191C7406121B937808121A0335
:104FCB00900BFD7808120F2B50128E828F8374205A
:104FDB00F08E828F83A3AE82AF8380C87402121BC4
:104FEB0093E0F8A3E0F583888278081219F4E508BA
:104FFB00C0E08E828F83D0E0F07402121B93E0240A
:10500B0004F8A3E03400F97402121B93E8F0A3E94F
:10501B00F08E828F83A3AE82AF837406121B9378BC
:10502B00081219F4900C01780812191C7406121B43
:10503B00937808121A03900BFD7808120F2B50125D
:10504B008E828F837420F08E828F83A3AE82AF8388
:10505B0080C87426121B9D88088909EEC39508FC2D
:10506B00EF9509FD7426121BA59007F9E0F8A3E054
:10507B00F5838882121BC2851082851183E024017F
:10508B00F8A3E03400F97404121B93E8F0A3E9F0E1
:10509B000255857402121B93E0F8A3E0F583888216
:1050AB00E0F8A3E0F9740A121B93E8F0A3E9F0749B
:1050BB0002121B93E02402F8A3E03400F9740212ED
:1050CB001B93E8F0A3E9F0740A121B93E0F8A3E03A
:1050DB00F9E849700C740A121B9374CEF0A3741385
:1050EB00F0740A121B93E0F8A3E0F9E8FEE9FF90D5
:1050FB000BFD78081219F47410121B937808120F19
:10510B0016403CEEF8EFF988828983A3AE82AF8319
:10511B0088828983E0603C7410121B937808121903
:10512B00F4900C01780812191C7410121B93780858
:10513B00121A03E5084509450A450B70C68014EEA3
:10514B00F8EFF988828983A3AE82AF838882898343
:10515B00E070EC740A121B93E0F8A3E0F9EEC3982D
:10516B00FAEF99FBEB3395E0FCFD7418121B93EAF5
:10517B00F0A3EBF0A3ECF0A3EDF07426121B9D88CB
:10518B00088909AE08AF09740C121B937808121921
:10519B00F4E508541070737406121B9378081219F7
:1051AB00F47418121B937808120F16505D8E828FB1
:1051BB00837420F08E828F83A3AE82AF837406122A
:1051CB001B9378081219F4900C01780812191C74AF
:1051DB0006121B937808121A037418121B93780883
:1051EB00120F1640C87426121B9D88088909EEC33E
:1051FB009508FCEF9509FD7426121BA59007F9E0A5
:10520B00F8A3E0F5838882121BC27418121B9378E3
:10521B00081219F4AC08AD09740A121B93E0FAA337
:10522B00E0FB9007F9E0F8A3E0F5838882121BC23C
:10523B007406121B9378081219F47418121B9378C6
:10524B0008120F16505D8E828F837420F08E828F22
:10525B0083A3AE82AF837406121B9378081219F4E2
:10526B00900C01780812191C7406121B9378081203
:10527B001A037418121B937808120F1640C8742661
:10528B00121B9D88088909EEC39508FCEF9509FD53
:10529B007426121BA59007F9E0F8A3E0F58388822A
:1052AB00121BC2851082851183E02401F8A3E03420
:1052BB0000F97404121B93E8F0A3E9F002558590F2
:1052CB000C0178081219F47406121B937808120E4D
:1052DB00EC702A7A047B007C007D007406121B9311
:1052EB00EAF0A3EBF0A3ECF0A3EDF0900BFD780844
:1052FB001219F4740C121B9378081219CE74021243
:10530B001B93E0F8A3E0F9E82402FAE439FB7402FA
:10531B00121B93EAF0A3EBF0740C121B93121DEA11
:10532B007414121B93121DEA740E121B93121DEAB6
:10533B00901401121DEA88828983E0F508A3E0F539
:10534B0009E4F50AF50B7808121DD3743A121BA564
:10535B00120E2F7414121B3F8A088B09AE08AF096B
:10536B007426121B9D88088909EEC39508FCEF95DE
:10537B0009FD7426121BA59007F9E0F8A3E0F5834D
:10538B008882121BC2851082851183E02401F8A349
:10539B00E03400F97404121B93E8F0A3E9F0025512
:1053AB00857402121B93E0F8A3E0F9E82404FAE4F5
:1053BB0039FB7402121B93EAF0A3EBF0740C121B73
:1053CB0093121DEA7414121B93121DEA740E121B16
:1053DB0093121DEA88828983121DEA7436121BA56B
:1053EB00120E357410121B3F8A088B09AE08AF09D9
:1053FB007426121B9D88088909EEC39508FCEF954E
:10540B0009FD7426121BA59007F9E0F8A3E0F583BC
:10541B008882121BC2851082851183E02401F8A3B8
:10542B00E03400F97404121B93E8F0A3E9F0025581
:10543B00857A087B007C007D007414121B93EAF0C4
:10544B00A3EBF0A3ECF0A3EDF0803E9014157808DD
:10545B001219F4740C121B9378081219CE7A107B64
:10546B00007C007D007414121B93EAF0A3EBF0A3F5
:10547B00ECF0A3EDF0801290141978081219F47463
:10548B000C121B9378081219CE90141D7808121960
:10549B00F4741C121B937808120EEC703274021207
:1054AB001B93E0F8A3E0F5838882121A367420125E
:1054BB001B93121A427402121B93E02404F8A3E00C
:1054CB003400F97402121B93E8F0A3E9F0803074F6
:1054DB0002121B93E0F8A3E0F5838882121A36744C
:1054EB0020121B93121A427402121B93E02404F82D
:1054FB00A3E03400F97402121B93E8F0A3E9F074F3
:10550B000C121B93121DEA7414121B93121DEA74D6
:10551B000E121B93121DEA7420121B93121DEA74B8
:10552B0030121B93121DEA743A121BA5120E2F7424
:10553B0014121B3F8A088B09AE08AF097426121B85
:10554B009D88088909EEC39508FCEF9509FD742623
:10555B00121BA59007F9E0F8A3E0F5838882121BD4
:10556B00C2851082851183E02401F8A3E03400F991
:10557B007404121B93E8F0A3E9F085108285118364
:10558B00E02401F8A3E03400F9851082851183E84B
:10559B00F0A3E9F0024B0D7404121B93E0F8A3E0A7
:1055AB00F9851082851183E0687003A3E069603888
:1055BB00851082851183C082C0837404121B93E013
:1055CB00F8A3E0F9D083D082E0C398FCA3E099FD67
:1055DB007404121B93E0FAA3E0FB9007F9E0F8A325
:1055EB00E0F5838882121BC2747E121B3F7F080278
:1055FB001C9674F0121BC4EAFEEBFF7410121B9383
:10560B0078081219F485080C85090D850A0E850B8F
:10561B000F850C08850D09850E0A850F0B900C0163
:10562B00780812191CE50C450D450E450F6021EE4F
:10563B00FAEFFB120E118A0C8B0D7401650C7004C2
:10564B007400650D70BF7A007B007C007D008008C4
:10565B007AFF7BFF7CFF7DFF7F08021C9674F7129D
:10566B001BC4E9FEEEF9120DFF7A007B007C007D76
:10567B00007F01021C9674F0121BC474F0121B29DC
:10568B007C007DCA7E9A7F3B7404121B93ECF0A3C3
:10569B00EDF0A3EEF0A3EFF07C007D007E007F0029
:1056AB00851082851183ECF0A3EDF0A3EEF0A3EF50
:1056BB00F07C007D007E007F007408121B93ECF0E1
:1056CB00A3EDF0A3EEF0A3EFF07C007D007E007F56
:1056DB0000740C121B93ECF0A3EDF0A3EEF0A3EF10
:1056EB00F090128878081219F4740C121B93780836
:1056FB00120F61400302581B7420121B937808127F
:10570B0019F47404121B93780C1219F47808790CA1
:10571B001217E6E5082430C0E085108285118378E6
:10572B00081219F4EA2508F582EB3509F583D0E068
:10573B00F0900BFD78081219F4851082851183788F
:10574B000812192F7420121B93780C1219F474047D
:10575B00121B9378081219F4780C79081217E67457
:10576B0020121B937808121A037404121B93780CE3
:10577B001219F490128878081219F4780C7908121F
:10578B0017E67404121B93780C121A03851082858A
:10579B00118378081219F4EA2508F8EB3509F9E8B2
:1057AB0024FFF582E934FFF583E064307004D2F016
:1057BB008002C2F07408121B93121A2AEC4D4E4F42
:1057CB007004D2F18002C2F1A2F182F0501B7C0076
:1057DB007D007E007F00851082851183ECF0A3EDA8
:1057EB00F0A3EEF0A3EFF08012900BFD78081219E6
:1057FB00F47408121B93780812192F900BFD78087C
:10580B001219F4740C121B93780812192F0256EC10
:10581B007410121B3F7F08021C9674F0121BC47489
:10582B00F4121B29851082851183EAF0A3EBF07427
:10583B000A121B93ECF0A3EDF07C007D007E007F41
:10584B00007402121B93ECF0A3EDF0A3EEF0A3EFA8
:10585B00F07C007D007E007F007406121B93ECF041
:10586B00A3EDF0A3EEF0A3EFF0750800750900753A
:10587B000A00750B00851082851183E0F8A3E0F513
:10588B00838882E064306003025BAD8510828511F2
:10589B0083E0F8A3E0F5838882A3E0647860178542
:1058AB001082851183E0F8A3E0F5838882A3E0647E
:1058BB00586003025BAD851082851183E0F8A3E08D
:1058CB00F5838882A3A3E0700B7A007B007C007DBC
:1058DB0000025E217C027D007E007F007402121BA1
:1058EB0093ECF0A3EDF0A3EEF0A3EFF0901442785D
:1058FB000C1219F47402121B93780C120F614003F3
:10590B00025B7B7402121B93780C1219F4851082C4
:10591B00851183E0250CF8A3E0350D8882F583E033
:10592B00702D740A121B93E0F8A3E0F5838882783C
:10593B0008121A037C017D007E007F007406121B87
:10594B0093ECF0A3EDF0A3EEF0A3EFF0025B7B740E
:10595B0002121B93780C1219F4851082851183E0C7
:10596B00250CF8A3E0350D8882F583E0C394414004
:10597B00257402121B93780C1219F4851082851171
:10598B0083E0250CF8A3E0350D8882F583E0C39402
:10599B00475003025A2F7402121B93780C1219F4FE
:1059AB00851082851183E0250CF8A3E0350D8882E4
:1059BB00F583E0C3946140227402121B93780C129E
:1059CB0019F4851082851183E0250CF8A3E0350DC1
:1059DB008882F583E0C39467404A7402121B937864
:1059EB000C1219F4851082851183E0250CF8A3E0C5
:1059FB00350D8882F583E0C394305003025B6374EA
:105A0B0002121B93780C1219F4851082851183E016
:105A1B00250CF8A3E0350D8882F583E0C3943A405A
:105A2B0003025B637402121B93780C1219F485103A
:105A3B0082851183E0250CF8A3E0350D8882F58370
:105A4B00E0C39430404D7402121B93780C1219F47E
:105A5B00851082851183E0250CF8A3E0350D888233
:105A6B00F583E0C3943A502B7402121B93780C12FB
:105A7B0019F4851082851183E0250CF8A3E0350D10
:105A8B008882F583E0F87900E824D0FAE934FFFB4B
:105A9B00025B347402121B93780C1219F48510827A
:105AAB00851183E0250CF8A3E0350D8882F583E0A2
:105ABB00C39441404C7402121B93780C1219F48559
:105ACB001082851183E0250CF8A3E0350D8882F553
:105ADB0083E0C39447502A7402121B93780C12195B
:105AEB00F4851082851183E0250CF8A3E0350D8831
:105AFB0082F583E0F87900E824C9FAE934FFFB80EA
:105B0B00287402121B93780C1219F48510828511DC
