:020000040000FA
:0300000002006794
:100013000215BD00000080FBE490030178757903AD
:100023008002F0A3D8FCD9FA7A757B059000977803
:100033008979078015E493A3AD82AE838A828B838B
:10004300F0A3AA82AB838D828E83D8E9D9E7758228
:10005300597583567400120079758216758300747E
:100063000012007975D00075813F75100175110379
:10007300759F0002001BC09FF59FE473D09F22D0A1
:1000830083D082C09FE493C0E0740193C0E0740204
:1000930093F59F227368656C6C203E00494E464F72
:1000A300524D4154494F4E3A456E74657265642012
:1000B30074686520626F6F746C6F61646572207021
:1000C300726F6772616D210D0A000D000000164703
:1000D3001B5B324B0D2573000D0A092573000D0AB6
:1000E30025732573000000000000000000000000DD
:1000F30000000000000000000000000000000000FD
:1001030000000000000000000000000000000000EC
:1001130000000000000000000000000000000000DC
:1001230000000000000000000000000000000000CC
:1001330000000000000000000000000000000000BC
:1001430000000000000000000000000000000000AC
:10015300000000000000000000000000000000009C
:10016300000000000000000000000000000000008C
:10017300000000000000000000000000000000007C
:10018300000000000000000000000000000000006C
:10019300000000000000000000000000000000005C
:1001A300000000000000000000000000000D0A092C
:1001B3006E6F207265706C793A25730D0A001B5BB4
:1001C300324A1B5B25643B2564482573000D0A28CE
:1001D3002563292D2D2D2D2D2D000D0A0D0A257397
:1001E300000D0A0925730D0A0056322E302E3400F5
:1001F3000D0A000D0A2573005E430D0A25730008DE
:10020300000820080063616E63656C20746869737D
:10021300206F7065726174696F6E0D0A002573201B
:100223005B592F4E5D200068656C70007368656CC8
:100233006C2D76657273696F6E00636C6561720015
:1002430064656275672D696E666F0000316253C421
:10025300F5A697B988DBEA7D4C1F2E4372211087E0
:10026300B6E5D4FACB98A93E0F5C6D86B7E4D542C8
:100273007320113F0E5D6CFBCA99A8C5F4A79601C4
:100283003063527C4D1E2FB889DAEB3D0C5F6EF95B
:10029300C89BAA84B5E6D7407122137E4F1C2DBAA2
:1002A3008BD8E9C7F6A59403326150BB8AD9E87F9E
:1002B3004E1D2C02336051C6F7A495F8C99AAB3C86
:1002C3000D5E6F4170231285B4E7D67A4B1829BEB1
:1002D3008FDCEDC3F2A1900736655439085B6AFDE4
:1002E300CC9FAE80B1E2D344752617FCCD9EAF38C8
:1002F300095A6B4574271681B0E3D2BF8EDDEC7BC0
:100303004A192806376455C2F3A09147762514830A
:10031300B2E1D0FECF9CAD3A0B586904356657C0A5
:10032300F1A293BD8CDFEE79481B2AC1F0A392059D
:1003330034675678491A2BBC8DDEEF82B3E0D14681
:100343007724153B0A5968FFCE9DAC005EBCE26181
:100353003FDD83C29C7E20A3FD1F419DC3217FFC03
:10036300A2401E5F01E3BD3E6082DC237D9FC1424C
:100373001CFEA0E1BF5D0380DE3C62BEE0025CDFE9
:1003830081633D7C22C09E1D43A1FF4618FAA4272A
:10039300799BC584DA3866E5BB5907DB856739BACB
:1003A300E406581947A5FB7826C49A653BD9870408
:1003B3005AB8E6A7F91B45C6987A24F8A6441A99B1
:1003C300C7257B3A6486D85B05E7B98CD2306EEDDE
:1003D300B3510F4E10F2AC2F7193CD114FADF3709B
:1003E3002ECC92D38D6F31B2EC0E50AFF1134DCEB4
:1003F30090722C6D33D18F0C52B0EE326C8ED05381
:100403000DEFB1F0AE4C1291CF2D73CA947628AB99
:10041300F517490856B4EA6937D58B5709EBB53652
:10042300688AD495CB2977F4AA4816E9B7550B887F
:10043300D6346A2B7597C94A14F6A8742AC8961538
:100443004BA9F7B6E80A54D7896B357E20232000E1
:100453000000000000000000000000000000000099
:100463000000000000000000000000000000000089
:10047300000000000000000000000000000D0A0959
:10048300636C6F736520646562756720696E666F60
:10049300726D6174696F6E2073747265616D0D0A9C
:1004A3000D0A000D0A09676574206465627567208B
:1004B300696E666F726D6174696F6E0D0A0D0A0065
:1004C3000D0A20205F5F5F5F5F2020202020202017
:1004D3002020202020202020202020202020202019
:1004E300205F5F0D0A202F205F5F5F5F5C2020206D
:1004F30020202020202020202020202020202020F9
:100503002020202F5C205C0D0A2F5C205C5F5F5F46
:100513002F2020205F5F5F5F20205F5F5F5F2020D1
:100523005F5F5F5F20205F5C5F5C205C202020209A
:10053300205F5F5F5F0D0A5C205C205C2020202031
:10054300202F205F5F205C2F205F5F205C2F205FC8
:100553005F5F5C2F205F5F205C205C2020202F20CA
:100563005F5F205C0D0A205C205C205C5F5F5F4C5A
:100573005C205C4C5C205C205C2F5C205C5F5F5FDC
:100583005F205C205C4C5C205C205C5F4C5C20202A
:100593005F5F5F4C0D0A20205C205C5F5F5F5F5FE5
:1005A3005F5C5F5F5F5F2F5C5F5C205C5F5C5F5FD6
:1005B3005F5F2F5C5F5F5F5F2F5C5F5F5F5F5C5FB1
:1005C3005F5F5F2F0D0A2020205C2F5F5F5F5F5FFF
:1005D3005F2F5F5F5F2F5C2F5F2F5C2F5F2F5F5F4E
:1005E3005F2F5C2F5F5F5F2F5C2F5F5F5F5F2F5F0E
:1005F3005F5F2F0D0A20202020434F505952494757
:1006030048542863293A476F6F644D6F726E696E61
:10061300670909323031392F30360D0A0D0A0001CE
:10062300000000FFFFFFFF0A000000FFFFFF03FFC2
:10063300FF1FFC0000E003FFFFE0FF00001F00FFBF
:1006430000FFFF00FF000000FFFFFFFF000000218D
:10065300436587000000FC4000000000000000220A
:1006630043CDABF0FFFFFF2043CDAB2143CDAB0028
:100673000000000096450000164600009646000064
:100683009647000061480000E04100000040000080
:1006930080C37265626F6F7400284E554C4C2900FD
:1006A30030313233343536373839414243444546A5
:1006B3000000803F000020410000C84200007A444F
:1006C30000401C460050C347002474490100B04257
:1006D3003BAAB83F0000003F8C906339AA0CA33AB1
:1006E30000941E3C8042633DCFFE753E1572313F40
:1006F3000000803FF304353F8096184B000080BF15
:100703002292D43EDD9B2A3F04000040FFFF7F7FFF
:10071300FFFF7FFF010080341872313F120082E037
:1007230055001200824856001200824B56001200F8
:100733008207160012008265160012008209170054
:10074300120082211900120082E71900120082AB05
:100753001B00120082351F00120082B42000120019
:1007630082F32200120082732600120082B3260055
:10077300120082C12700120082E227001200827B4E
:100783002800120082372B001200829F2D001200D6
:1007930082F62D001200823F3000120082A9310040
:1007A300120082023200120082CF3300120082BD97
:1007B3005800120082424600120082D648001200FE
:1007C3008246490012008251490012008289490081
:1007D300120082D349001200825958001200825C31
:1007E30058001200827834001200823C3900120053
:1007F300824F3D001200829F5800120082D24F00A8
:10080300120082C25400120082675600120082B3A3
:100813005200120082725700120082BE570012006B
:1008230082045800120082E84B0012008230580004
:10083300120082815800120082C8560012008222E0
:100843005700E76670100809E766700A0809E7664B
:1008530070040809E76622E066701008A3E066707A
:100863000A08A3E066700408A3E06622C3E79608BB
:1008730009E7960809E7960809E796A2D265D033F7
:1008830022C008C3E096F50808A3E096420808A32F
:10089300E096420808A3E0964208A2D265D033E569
:1008A300087001D3D00822C3E09608A3E09608A3FA
:1008B300E09608A3E09622C008C3E096F50808A3D3
:1008C300E096420808A3E096420808A3E09645088C
:1008D3007001D3D00822080808E630E7111211137B
:1008E3001208F1080808C64480C6181818221818F8
:1008F30018E9799EC608CAC608CBC608CCC6C37019
:10090300207996CACBCC7019798ECBCC70137986AB
:10091300CC700EF9802ACA33CACB33CBCC33CC3359
:100923001930E7F2CCCBCA3350147004EA30E00D2F
:10093300E4CA3ACACB3BCBCC3CCC500209C3E91343
:10094300C6CC182313C6CB18C6CA18C6F922120977
:100953009120F01430E72B74FFFCFBFA747F8022A4
:10096300E4FCFBFA7480801AB48008BC00F2BB007C
:10097300EF800F50EBF9E4C39AFAE49BFBE49CFC91
:10098300E499C6CC18C6CB18C6CA18C6F922E4C95E
:10099300C608CAC608CBC6D3330308CCC63392F005
:1009A300C3947F402E94184019C9B90704CACBCC0D
:1009B300225025C309CA33CACB33CBCC33CC33D96A
:1009C300F422F4600DC9CCC313CB13CBCA13CAD919
:1009D300F6CC22E4FCFBFA2214FCFBFA22E62618EE
:1009E300461846184622E727194719471947221878
:1009F3001818E60846087009E626087005E633F479
:100A0300220822191919E70947097009E72709700C
:100A130005E733F4220922E6084608C313460833E0
:100A23006002E633F422E7094709C3134709336039
:100A330002E733F422120A1A6025120A29602012EF
:100A430009E070030209E9080808E766701018193D
:100A5300E766700A1819E76670041819E76622F446
:100A630022120A1A601C120A2960171209E0700781
:100A73001209E97001D322C0D01209E97006D0D05F
:100A8300B322C32233D0D0501430E0F6C3E7960824
:100A930009E7960809E7960809E796B32220E0D507
:100AA300E6970809E6970809E6970809E697B32247
:100AB300120A1A601B120A2960161209E070071243
:100AC30009E9600CB322C0D01209E97005D0D02225
:100AD300C32233D0D0501330E0EBC3E7960809E7C5
:100AE300960809E7960809E7962220E0E4E69708C6
:100AF30009E6970809E6970809E6972200120A1AF9
:100B0300604F120A296012E7548066F61209F270E8
:100B1300111209E9703B090909F4F618F618F618D9
:100B2300F622120A0670151209E008080860EAE6C0
:100B3300447FF618768018E4F618F6221209E0606E
:100B4300161209E97012E4F608F608F608E654806E
:100B5300F609090918181822EAC0E0EBC0E0ECC056
:100B6300E0EDC0E0E687F0A4FBACF008E687F0A474
:100B73002CFCE435F0FA1809E687F0A42C4B60024C
:100B83007401CA35F0FCE433FB09E687F0D2F7A41D
:100B93002CCB35F0FC1908E687F0A42BCC35F0FB01
:100BA300E433FD0819E687F0D2E7A42C4ACB35F0ED
:100BB300CD3400FC09E687F0D2E7A42DCC35F0FD57
:100BC300E433FA0918E687F0D2F7A42CCD35F0CA3E
:100BD3003400FC08E687F0D2E7D2F7A42ACC35F03C
:100BE3007A7E20E70B0ACB33CBCD33CDCC33CC335A
:100BF300CB3350147004ED30E00ED2F1E4CD3DCD93
:100C0300CC3CCC3B5005DA05C2F1EB547FC633082C
:100C1300E63392F0FBE73309E733C39A502D2B7089
:100C2300190C0D4C4D70151806E608C333700D20D2
:100C3300F10AA2F013F6E418800B4024E4F630F036
:100C430002768018F618F618F68024D33B14501059
:100C530074FFA2F013F6187680E418F618F6800FE6
:100C6300A2F013F618E63303F618ECF618EDF6D0F7
:100C7300E0FDD0E0FCD0E0FBD0E0FA22120A2960CC
:100C830046120A1A603DE9687008F618F618F61855
:100C9300F622748067F7120CB3090909748067F7A9
:100CA30022120A1A601D120A297005191919801ACD
:100CB3001209F2701F120A06C37003E6673319198B
:100CC3001940071818182208080874FFF618F618B0
:100CD300F618F622120A0660171209E9702192F03B
:100CE3001209E07019501720F014080808090909BF
:100CF300E7F61819E7F61819E7F61819E7F62212B6
:100D030009E060E6E869701F0808E62480F608E455
:100D130036F618547FB47F0CE654806007F6E41867
:100D2300F618F622181822E9C6CC08C6CD08C6CE96
:100D330008C6CFC0E0E8C0E0EAC0E0EBC0E009E9E4
:100D4300F809E7FA09E7FBE6F918E6F8C3EC98EDCA
:100D530099EE9AEBC2E7F5F0EFC2E795F0500E601B
:100D63000CEBCFFBEACEFAE9CDF9E8CCF8EAA2E73F
:100D7300D2E7FAEB33FB13F5F0EEA2E7D2E7FEEF8F
:100D830033FFC5F013A2E730E601B313C5F0C3C0C8
:100D9300E0C0F07F00C39BFB605E9418600F401DB2
:100DA30014601AD0E023F9D0E0F8020E858AF0E946
:100DB300486003D2F0E4AFF0FAF9F8803BEB30E49B
:100DC3000D89F0EA6003D2F0E4AFF0F9CAF8EB3032
:100DD300E30D88F0EF6002D2F0AFF0E4CAC9F8EB9C
:100DE30054076014FBC3EA13FAE913F9E813F8EFA5
:100DF300135002D2E0FFDBEDD0E0C0E030E739C3AF
:100E0300E49FFFF5F0EC98FC42F0ED99FD42F0EE23
:100E13009AFE42F0D0E0F9D0E0F8E5F0607AE923F9
:100E2300F9EE20E742D8028067C3EF33FFEC33FCCF
:100E3300ED33FDEE33FE80EAEC28FCED39FDEE3AAE
:100E4300FED0E023F9D0E0F84002801BC3EE13FE8E
:100E5300ED13FDEC13FCEF135002D2E0FF08B800D2
:100E6300067F7F74FF802EEF3350178CF020F00243
:100E730060100CBC000C0DBD00080EBE000408E899
:100E830060DFE933E813FFEE2313FE4F4D4C800878
:100E9300E95480FFE4FEFDFCEE33EF33F47004FC11
:100EA300FD7E80D0E0FBD0E0FAD0E0F8D0E0CFC602
:100EB30018CEC618CDC618CCC6F922120A1A700469
:100EC30018181822120A29700D74FFF61819F6184B
:100ED30019F61819F622E7548066F61209E0700F26
:100EE3001209E970F014F608F608F608F680D11234
:100EF30009E9700CF608F608768008E6447F80EC72
:100F0300120A09700C1209F560BFE65480F6E480FA
:100F1300BB1209F5700519191980A5E869700C76DB
:100F23003F18768018F618F6E8F922E6CDC0E018E7
:100F3300ECC0E0E633CD33CDD313F6E719FCE71964
:100F43001933CC33C3947F400ECD9D502408E6540F
:100F530080F6E418F6800FF4043D14501408E644B8
:100F63007FF6187680E418F618F6D0E0FCD0E0FDA2
:100F730022CCD313CCFD18E4C6CBC0E018E4C6CA18
:100F8300C0E00808ED08C633E613F618E433C67567
:100F9300F003C3CA97CA09CB97CB199C40047D08B9
:100FA300802EBD000302106716B6FF05060608165D
:100FB30018C3CA33CACB33CB33CA27CA09CB37CBFF
:100FC300193CC37D08803E187D0820E75CC633C604
:100FD300CA33CACB33CB33DDF1D5F0EB30E77BCA71
:100FE30097CA09CB974ACB199C406F4B7025E620D3
:100FF300E0218066187D08C3CA97CA09CB97CB192D
:101003009CD3C633C6CA33CACB33CB3350C9DDE70F
:10101300D5F0E1D3E4C636C608C636C608C636C61A
:1010230008C636C61818188031C3CA97CA09CB97A1
:10103300CB199CB34097C633C6CA33CACB33CB3321
:10104300DD34D5F02EC6A2E0C640C8CA27CA09CBF4
:1010530037194A70BECB3CB480B90808E63308E6BA
:1010630033601F181818D0E0FAD0E0FBD0E0FCD0B2
:10107300E0FD22187D08CA27CA09CB37CB193CD318
:10108300808013F618E4B67F11F618B6FF0EF61833
:10109300C60470D20808768080CAF618F618F6805F
:1010A300C5E4CFC0E0E4CEC0E0E4CDC0E0E4CCC012
:1010B300E075F020E626F608E633F608E633F60890
:1010C300E633F6181818EC33FCED33FDEE33FEEF80
:1010D30033FFC3EC9709ED9709EE9709EF971919B9
:1010E30019400FFFEC97FC09ED97FD09EE97FE19E8
:1010F3001906D5F0BFECF709EDF709EEF709EFF79D
:10110300191919D0E0FCD0E0FDD0E0FED0E0FF22B9
:10111300181818E4C396F608E496F608E496F60859
:10112300E496F6226016080808C6C313C618C61349
:10113300C618C613C618C613C6D5E0EA2270090836
:101143000808226016181818C6C333C608C633C663
:1011530008C633C608C633C6D5E0EA22E026F60839
:10116300A3E036F608A3E036F608A3E036F622E05D
:1011730026F008A3E036F008A3E036F008A3E03633
:10118300F022E056F608A3E056F608A3E056F60868
:10119300A3E056F622E647F60809E647F60809E60D
:1011A30047F60809E647F622E046F608A3E046F6C6
:1011B30008A3E046F608A3E046F622E0F608A3E01B
:1011C300F608A3E0F608A3E0F622E6F008A3E6F0AB
:1011D30008A3E6F008A3E6F022E0FAA3E0FBA3E00D
:1011E300FCA3E0FD22EAF0A3EBF0A3ECF0A3EDF007
:1011F30022E0FCA3E0FDA3E0FEA3E0FF22ECF0A3CA
:10120300EDF0A3EEF0A3EFF022E0F8A3E0F9A3E002
:10121300FAA3E0FB22E8F0A3E9F0A3EAF0A3EBF0E2
:1012230022CAC0E0E6F0A308DAFAD0E0FA22CAC084
:10123300E0E0A3C582CCC582C583CDC583F0A3C539
:1012430082CCC582C583CDC583DAE6D0E0CA22C38A
:10125300E498F8E499F91212938026C3E49AFAE425
:101263009BFBE920E7E9121293E498F8E499F92249
:10127300C3E498F8E499F9121293E498F8E499F91D
:10128300C3E49AFAE49BFB22EB20E7CFE920E7E0F3
:10129300B90010BB0008E88AF084F8AAF022E4FB46
:1012A300C8FA22EB70227B10C833C8C933C9335044
:1012B30007C39AC3DBF280069A50012ADBEAC833DC
:1012C300F4C8C933F4C9FA2275F008E4C833C8C9AD
:1012D30033C933C99AC99B5004C92AC93BD5F0EC19
:1012E300FBC833F4C8E4C9FA22700422600D18C69F
:1012F300C333C608C633C6D5E0F41822251010AF91
:1013030008F510400C15118008F51040021511D294
:10131300AF2200C0D0251010AF08F510500C0511F6
:101323008008F51050020511D2AFD0D0222510F558
:101333008210AF08F510400C15118008F51040021B
:101343001511D2AF85118322C5822510C582C583AD
:10135300351110AF07F5118582108007F5118582CD
:1013630010D2AFC583222510F582E43511F583220F
:101373002510F8E43511F9222510FAE43511FB2282
:101383002510FCE43511FD22E4732510C582C0E06D
:10139300E51134FFC583C0E0E510C3958224F8103E
:1013A300AF0885831185821080088583118582109B
:1013B300D2AFCEF0A3E520F0A37808E608F0A3DED1
:1013C300FAEFF0A3E58124FAF8E608F0A3E608F0C3
:1013D300A3E608F0A30808E608F0A3E608F0A315BF
:1013E300811581D0E0FED0E0F8158115811581E8E3
:1013F300C0E0EEC0E022851183851082E0A3FEE009
:10140300A3F5207808E0A3F608DFFAE0A3FFE0A342
:10141300C0E0E0A3C0E0E0A3C0E0E0A3C0E0E0A33D
:10142300C0E010AF08858210858311800885821083
:10143300858311D2AFD083D08202007FC0D0251024
:10144300C582C0E0E51134FFC583C0E0E510C39554
:101453008224F310AF088583118582108008858369
:1014630011858210D2AFC8F0A3E9F0A3EAF0A3EB91
:10147300F0A37908E709F0A3D8FAECF0A3EDF0A301
:10148300EEF0A3EFF0A3D0E0F0A3D0E0F0A3D0E020
:10149300F0A3E520F0A3E5F0F0A3228511838510E6
:1014A30082E0C0E0A3E0F9A3E0FAA3E0FBA378089D
:1014B300E0F608A3DFFAE0FCA3E0FDA3E0FEA3E06F
:1014C300FFA3E0C0E0A3E0C0E0A3E0F5D0A3E0F514
:1014D30020A3E0A3F5F010AF088583118582108067
:1014E30008858311858210D2AFD082D083D0E0F8F3
:1014F300D0E0327404800474028000C0E0F404126B
:101503001330D0E012122422740480047402800089
:10151300CCC0E0EDC0E0E510C39CCCAD1150011D83
:1015230010AF068C108D1180068C108D11D2AF1266
:101533001231D0E0FDD0E0FC22002020202020202A
:101543002020202828282828202020202020202070
:101553002020202020202020202088101010101070
:1015630010101010101010101010040404040404C0
:1015730004040404101010101010104141414141A3
:101583004101010101010101010101010101010108
:101593000101010101101010101010424242424299
:1015A30042020202020202020202020202020202D8
:1015B30002020202021010101020C0E074F2121492
:1015C3003FAC88E5C1C0E0900563E02461F8A3E087
:1015D3003404F988828983D0E0F0900563E0240124
:1015E300F0A3E03400F0900563E0F8A3E0F97A009B
:1015F3007B01121293900563EAF0A3EBF0C28B7F99
:101603000102149E74F412138D8A828B83E0FCA36F
:10161300E0FD740C12136978081211BE80098C82E4
:101623008D83E0FCA3E0FDEC4D602EECFAEDFB8A2C
:10163300828B83A3A3A3A3A3A378081208BA4006AB
:101643007A007B0080178A828B83A3A3A3A3A3A31F
:10165300780812085A70C780047A007B007F04025E
:1016630013F974F412138DEAF8EBF9E8FAE9FB8045
:10167300098A828B83E0FAA3E0FB8A828B83E0F8FA
:10168300A3E0F9E84960578A828B83E0F8A3E0F985
:10169300E8FEE9FF8E828F83A3A3A3A3A3A3780805
:1016A3001211BE8C828D83A3A3A3A3A3A3780812D4
:1016B300085A700A7AFF7BFF7CFF7DFF80438E828E
:1016C3008F83A3A3A3A3A3A378081211BE8C828D37
:1016D30083A3A3A3A3A3A378081208AA50938A827F
:1016E3008B83E0F8A3E0F98C828D83E8F0A3E9F023
:1016F3008A828B83ECF0A3EDF07A007B007C007D83
:10170300007F040213F974F012138D74F21212FFA6
:101713007402121369EAF0A3EBF07408121369EC74
:10172300F0A3EDF07C007D007E007F0074041213B3
:1017330069ECF0A3EDF0A3EEF0A3EFF07E007F00E1
:10174300900301E0F8A3E0F9851082851183E8F0A6
:10175300A3E9F07402121369E0F8A3E0F583888229
:10176300E0F50CE4F50DF50EF50F741A780C121173
:1017730040741E12136978081211BE74157808128A
:101783001140780C79081211987402121369E0F869
:10179300A3E0F5838882E0F87900E82401F508E402
:1017A30039F509E5093395E0F50AF50B741A78085C
:1017B300121140740A12136978081211CD801E8524
:1017C3001082851183E0F8A3E0F5838882E0F8A313
:1017D300E0F9851082851183E8F0A3E9F085108292
:1017E300851183E0F8A3E0F9E849601C8510828540
:1017F3001183E0FEA3E0FF8E828F83A3A3A3A3A3A1
:10180300A3780C1208BA40B774221213697808122D
:1018130011BE801E851082851183E0F8A3E0F58355
:101823008882E0F8A3E0F9851082851183E8F0A3AC
:10183300E9F0851082851183E0F8A3E0F9E84960B7
:1018430026851082851183E0FEA3E0FF8E828F83BD
:10185300A3A3A3A3A3A3780C1211BE740A12136942
:10186300780C1208AA501274041213691211DC7452
:101873000E1213157F080213F9741E121369780CE4
:101883001211BE780C1214FA7404121369E0FCA34B
:10189300E0FD8E828F83A3A3E0FAA3E0FB12081579
:1018A30074021213158A0C8B0DE50C450D600302AF
:1018B30018177404121369780C1211BEE50C75F035
:1018C30002A4C50CA8F075F000A428F875F002E591
:1018D3000DA428F50D7408121369E0250CF8A3E094
:1018E300350D8882F583EEF0A3EFF07404121369CB
:1018F300780C1211BE900B00780C12115F74041255
:101903001369780C1211CD780C790812086F400313
:101913000218177A007B007C007D0002187274F4B1
:1019230012138DEAFEEBFFEE246CF582E43FF583A0
:10193300E0F87900E875F032A4C8AAF075F000A4C5
:101943002AFA75F032E9A42AF9EE28F8EF39F9E812
:10195300246EF508E439F509EE246CF582E43FF5CD
:1019630083E0F87900E82401F85001097A047B0048
:1019730012128BEAC0E0EE246CF582E43FF583D0CB
:10198300E0F0EE246CF582E43FF583E0C0E0EE2462
:101993006DF582E43FF583D0E0F0EE246BF582E44D
:1019A3003FF583E0F50A750B00780A1214FAEE246A
:1019B30038FCE43FFDAA08AB0912081B740212139A
:1019C30015EE246BF582E43FF583E0F87900E50832
:1019D30028F582E50939F5837400F0AA08AB097F7D
:1019E300040213F974F212138D74FF1212FFEAFE4C
:1019F300EBFF750800750900750A00750B00EE24EE
:101A030006F50CE43FF50D780C1214FA7AB17B0558
:101A13001207F17402121315740F12136912120CC8
:101A2300E8494A4B7045EE246DF582E43FF583E0C7
:101A3300700B8510828511837403F08017EE246D7B
:101A4300F582E43FF583E024FFC0E0851082851131
:101A530083D0E0F0851082851183E0C0E0EE246D31
:101A6300F582E43FF583D0E0F08042EE246DF58209
:101A7300E43FF583E0F8EE246CF582E43FF583E080
:101A830068602AEE246DF582E43FF583E0F879007F
:101A9300E82401F85001097A047B0012128BEAC092
:101AA300E0EE246DF582E43FF583D0E0F0EE246DA3
:101AB300F582E43FF583E0F8EE246CF582E43FF52C
:101AC30083E068606AEE246DF582E43FF583E0F815
:101AD3007900E875F032A4C8AAF075F000A42AFAD8
:101AE30075F032E9A42AF9EE28F8EF39F9E8246E03
:101AF300FAE439FB80328A828B83E0C0E085080CEC
:101B030085090DEE250CF8EF350DF9E82438F5823B
:101B1300E439F583D0E0F08A828B83A3AA82AB8376
:101B2300900B00780812115F8A828B83E070C7855F
:101B3300080C85090DEE250CF8EF350DF9E824386E
:101B4300F582E439F5837400F0A808A909E8C0E038
:101B5300EE246BF582E43FF583D0E0F0A808A909F1
:101B6300E8C0E0EE246AF582E43FF583D0E0F0E5D7
:101B7300084509450A450B602590056FE0F8A3E089
:101B8300F9E8496019AC08AD09EE2438FAE43FFBE3
:101B930090056FE0F8A3E0F583888212138B74013C
:101BA3001213157F060213F974F012138D74E612E3
:101BB30012FF851082851183EAF0A3EBF085108272
:101BC300851183E02438FAA3E03400FB8510828575
:101BD3001183E0F8A3E0C8246BF582C83400F583D1
:101BE300E0FCE4FDFEFF7402121369ECF0A3EDF0D8
:101BF300A3EEF0A3EFF0750800750900750A0075F0
:101C03000B00801B900B0478081211BE7402121390
:101C13006978081211728A828B83A3AA82AB838AA2
:101C2300828B83E0642060DC8A828B83E0600E74A5
:101C3300021213691211F4EC4D4E4F7003021F2B65
:101C4300900B0812150B740612136912150B740E00
:101C530012138312073D74081213158A088B098C1B
:101C63000A8D0BE5084509450A450B7003021F2B36
:101C7300851082851183E0F8A3E0C8246AF582C841
:101C83003400F583E0F8851082851183E0F9A3E041
:101C9300C9246BF582C93400F583E0687003021D23
:101CA3004F90056FE0F8A3E0F9E849607185108271
:101CB300851183E0F8A3E0C8246BF582C83400F5EE
:101CC30083E0FA7B00851082851183E0F8A3E0C8E6
:101CD300246AF582C83400F583E0F87900EAC398F2
:101CE300FCEB99FD851082851183E0F8A3E0C824FD
:101CF3006AF582C83400F583E0F87900851082859F
:101D03001183E028F8A3E039F9E82438FAE439FB31
:101D130090056FE0F8A3E0F583888212138B85109A
:101D230082851183E0F8A3E0C8246BF582C83400F0
:101D3300F583E0C0E0851082851183E0F8A3E0C855
:101D4300246AF582C83400F583D0E0F0900B007864
:101D53000812085A705B740212136978081211BED4
:101D63007406121369E0F8A3E0F5838882A3A3E065
:101D73002508FEA3E03509FF801D8E828F83E0F9DD
:101D8300851082851183E0FAA3E0FB12075B8E8244
:101D93008F83A3AE82AF838E828F83E070DC792042
:101DA300851082851183E0FAA3E0FB12075B021F13
:101DB3002B7E007F008046EEF8EFF9E875F002A471
:101DC300C8AAF075F000A42AFA75F002E9A42AF96A
:101DD3007406121369E58228F582E58339F583E0F9
:101DE300F8A3E0F5838882A3A312150F7AB97B05C4
:101DF3001207F174021213150EEE70010F8E0CEF21
:101E0300F50D3395E0F50EF50F7808790C12086F90
:101E130040A5851082851183E02438F50CA3E034B6
:101E230000F50D780C1214FA7402121369E02406FB
:101E3300F50CA3E03400F50D780C1214FA7ABF7B8D
:101E4300051207F174041213158047740212136903
:101E5300780C1211BE7406121369E0F8A3E0F5833F
:101E63008882A3A3E0250CF8A3E0350D8882F583CF
:101E7300E0F9851082851183E0FAA3E0FB12075B8A
:101E8300900B00780C1211BE7402121369780C12B5
:101E930011727A017B0080050AEA70010B8A0CEB50
:101EA300F50D3395E0F50EF50F7808790C12086FF0
:101EB30050997402121369780C1211BE740612132E
:101EC30069E0F8A3E0F5838882A3A3E0250CF8A3D7
:101ED300E0350D8882F583E0FC7402121369780CF7
:101EE3001211BEEAF8EBF9E875F002A4C8ADF0757B
:101EF300F000A42DFD75F002E9A42DF97406121368
:101F030069E58228F582E58339F583E0F8A3E0F5F6
:101F1300838882A3A3E0250CF8A3E0350D8882F51E
:101F230083E06C7003021E9B741A1213157F080260
:101F330013F974F312138D749C1212FF9005C6AC3F
:101F430010AD1174641212317401121369AC82ADB5
:101F530083EA246BF582E43BF583E0FE7F00EA2409
:101F63006AF582E43BF583E0F87900EEC398F8EF75
:101F730099F9EC28F582ED39F583A3A882A983EAC0
:101F8300246AF582E43BF583E0FE7F00EA2EFEEB54
:101F93003FFFEE2438FE50010FEA246AF582E43B4A
:101FA300F583E024FFF0EA246BF582E43BF583E05C
:101FB300F508750900EA2508F508EB3509F509E583
:101FC300082438F50AE43509F50BEA246BF582E4B5
:101FD3003BF583E024FFF0EE24FFF508EF34FFF533
:101FE30009804D8E828F83E0C0E08C828D83D0E0A8
:101FF300F08C828D83A3AC82AD838882898374083D
:10200300F088828983A3A882A9838E828F83E0C00C
:10201300E0850882850983D0E0F08E828F83A3AEAA
:1020230082AF83850882850983A385820885830916
:10203300C3EE950AEF950B40AA8510828511837430
:1020430008F08C828D837420F0888289837408F071
:1020530088828983A3A882A983EA246BF582E43B5F
:10206300F583E0FC7D00EA2CFAEB3DFBEA2438F52E
:1020730082E43BF5837400F090056FE0FAA3E0FB84
:10208300EA4B6023AA10AB118A088B09E8C39508B1
:10209300FCE99509FDAA10AB1190056FE0F8A3E0E8
:1020A300F583888212138B74641213157F05021350
:1020B300F974F312138D749B1212FFE9C0E08510BB
:1020C30082851183D0E0F0EA246BF582E43BF5834B
:1020D300E0F87900E82401F8500109C3E89432E9F3
:1020E3009400A2D265D03340030222E9EA246BF5BF
:1020F30082E43BF583E0F8EA246AF582E43BF58366
:10210300E0686003022194851082851183E0C0E0BA
:10211300EA246AF582E43BF583E0F87900EA28F8DB
:10212300EB39F9E82438F582E439F583D0E0F0EAB5
:10213300246AF582E43BF583E02401F0EA246BF59D
:1021430082E43BF583E02401F8E8C0E0EA246BF580
:1021530082E43BF583D0E0F07900EA28F8EB39F923
:10216300E82438F582E439F5837400F090056FE0D4
:10217300F8A3E0F9E84960167C017D00AA10AB11D1
:1021830090056FE0F8A3E0F583888212138B022297
:10219300E990062A74011213837464121231EA243B
:1021A3006BF582E43BF583E0F87900EA28F8EB3934
:1021B300F9E82438FEE439FFEA246BF582E43BF5C1
:1021C30083E02401F0EA246AF582E43BF583E0F836
:1021D3007900EA28F8EB39F9E82438FCE439FDEA18
:1021E300246AF582E43BF583E02401F0EEC39CF816
:1021F300EF9DF97401121369E58228F50AE5833925
:10220300F50B850A82850B83A3A882A983EE24FF9D
:10221300F508EF34FFF5098052850882850983E0CC
:10222300C0E0850A82850B83D0E0F0E50A24FFF540
:102233000AE50B34FFF50B888289837408F08882E2
:102243008983A3A882A983850882850983E0C0E0E6
:102253008E828F83D0E0F0E50824FFF508E509348A
:10226300FFF509EE24FFFEEF34FFFFC3E5089CE50D
:10227300099D50A5851082851183E0C0E0850A82FF
:10228300850B83D0E0F0851082851183E0C0E08C5C
:10229300828D83D0E0F0EA246BF582E43BF583E0A2
:1022A300FC7D00EA2CFAEB3DFBEA2438F582E43BA3
:1022B300F5837400F090056FE0FAA3E0FBEA4B604E
:1022C30025740112137B8A088B09E8C39508FCE97E
:1022D3009509FD740112137B90056FE0F8A3E0F5F7
:1022E30083888212138B74651213157F050213F909
:1022F30074F012138D74E81212FF7416121369EA44
:10230300F0A3EBF0851082851183ECF0A3EDF07C54
:10231300007D007E007F007412121369ECF0A3EDC0
:10232300F0A3EEF0A3EFF07C007D007E007F00744D
:102333000E121369ECF0A3EDF0A3EEF0A3EFF07C23
:10234300007D007E007F00740A121369ECF0A3ED98
:10235300F0A3EEF0A3EFF07C007D007E007F00741D
:1023630006121369ECF0A3EDF0A3EEF0A3EFF085F2
:102373001082851183E02438FAA3E03400FB80093E
:102383008A828B83A3AA82AB838A828B83E06420B5
:1023930060EE8A828B83E0700302263B8A828B8302
:1023A300E0F508E4F509F50AF50B740212136978F0
:1023B3000C1211BE900B0C780C121185741A78084C
:1023C300121140780C79081211987402121369786B
:1023D3000C1211CD0224818A828B83E0F508E4F587
:1023E30009F50AF50B740E12136978081211727449
:1023F3000A12136978081211BE8A828B83E0F87976
:1024030000E50868F8E50969F9742C28F582740772
:1024130039F583E0FCE4FDFEFF740A121369ECF066
:10242300A3EDF0A3EEF0A3EFF0740612136978089E
:102433001211BE8A828B83E0F87900E50868F8E51B
:102443000969F9742C28F582740839F583E0FCE4F2
:10245300FDFEFF7406121369ECF0A3EDF0A3EEF09A
:10246300A3EFF08A828B83A3AA82AB83900B0078BD
:10247300081211BE741212136978081211728A823B
:102483008B83E0600C8A828B83E0642060030223E9
:10249300DA740212136978081211BE900B107808CF
:1024A3001211857412121369780C1211BE74157807
:1024B3000C121140900B14780C1211857808790CCA
:1024C300121198740212136978081211CD74021252
:1024D300136978081211BE900B18780812118574CD
:1024E3000E121369780C1211BE7410780C1211407D
:1024F300900B1C780C1211857808790C12119874C2
:102503000212136978081211CD7402121369780844
:102513001211BE900B207808121185740A121369E8
:10252300780C1211BE7408780C121140900B2478A9
:102533000C1211857808790C121198740212136920
:1025430078081211CD740212136978081211BE9023
:102553000B2878081211857406121369780C12116E
:10256300BE900B2C780C1211857808790C121198F7
:10257300740212136978081211CD740212136912CE
:10258300150B741A121369E0FAA3E0FB12073174F6
:10259300041213158A088B09AC08AD09EC4D60765B
:1025A300ECF8EDF9E8FAE9FB900B3078081211BE6C
:1025B300EA240CF582E43BF583780812085A70325A
:1025C3008C828D83A3A3A3A312150F8A828B83A36B
:1025D300A3A3A3A3A3A3A3A3A3E0FCA3E0FD74026B
:1025E300121369E0FAA3E0FB12079D74021213159C
:1025F3008046851082851183E02438FAA3E03400F5
:10260300FB8C828D83A3A3A3A3E0F8A3E0F58388C7
:102613008212138B8022851082851183E02438F582
:1026230008A3E03400F50978081214FA7A8E7B06C1
:102633001207F17402121315851082851183E0F8D5
:10264300A3E0C8246BF582C83400F5837400F085D9
:102653001082851183E0F8A3E0C8246AF582C834A8
:1026630000F5837400F074181213157F080213F930
:1026730074F612138DEA24C8F8EB34FFF9E8240644
:10268300F508E439F50978081214FAE4F508F509B0
:1026930078081214FAE4F508F50978081214FA7A9E
:1026A3009F7B061207F174061213157F020213F9BA
:1026B30074F012138D74FC1212FF7402121369EA80
:1026C300F0A3EBF0750C00750D00750E00750F008F
:1026D300900301E0FEA3E0FF0227888510828511A5
:1026E30083EEF0A3EFF0851082851183E0F8A3E079
:1026F300C82406F582C83400F58378081211BE9009
:102703000B347808121185780C7908120845604D4E
:10271300851082851183E0F8A3E0C82406F582C8FA
:102723003400F583780C1211BE900B34780C12111F
:1027330085850C08850D09850E0A850F0B741A789B
:1027430008121127900B3878081211AB780812146D
:10275300F67AAE7B061207F1740412131585108204
:10276300851183E0F8A3E0F5838882A3A312150FF4
:102773007AB97B051207F174021213158E828F83C7
:10278300E0FEA3E0FFEE4F60030226DE74021213A5
:1027930069E024C8F8A3E034FFF9E82406F508E467
:1027A30039F50978081214FA7ABB7B061207F1741B
:1027B3000212131574041213157F080213F974F629
:1027C30012138D7508CA75090678081214FA7AC2AD
:1027D3007B061207F174021213157F020213F974B8
:1027E300F612138D74FE1212FF7508017509007835
:1027F300081214FA74021213831207857402121357
:10280300158A088B09A808A909C3E89401E994006B
:10281300A2D265D0334031851082851183E0F8A3BD
:10282300E0F9E84970227C257D007A5E7B099005FA
:102833006FE0F8A3E0F583888212138B900571741F
:1028430000F0A37400F080267C1C7D007A847B0951
:1028530090056FE0F8A3E0F583888212138B90054F
:102863006FE0F8A3E0F9900571E8F0A3E9F07402D2
:102873001213157F020213F974F012138D74EC1204
:1028830012FF7404121369EAF0A3EBF07406121337
:1028930069ECF0A3EDF07406121369E0FAA3E0FB10
:1028A300750800750900750A00750B007C007D0032
:1028B3007E007F007408121369ECF0A3EDF0A3EE21
:1028C300F0A3EFF07C007D007E007F00740C1213F8
:1028D30069ECF0A3EDF0A3EEF0A3EFF07C007D0034
:1028E3007E007F007410121369ECF0A3EDF0A3EEE9
:1028F300F0A3EFF002298B8A828B83E0F50CE4F5D9
:102903000DF50EF50F740C121369780C1211728AFF
:10291300828B83E0F87900E50868F8E50969F974C2
:102923002C28F582740739F583E0F508E4F509F5F9
:102933000AF50B7408121369780C1211BE8A828B84
:1029430083E0F87900E50C68F8E50D69F9742C2843
:10295300F582740839F583E0FCE4FDFEFF74081288
:102963001369ECF0A3EDF0A3EEF0A3EFF0900B00EE
:10297300780C1211BE7410121369780C1211728A3A
:10298300828B83A3AA82AB838A828B83E060030258
:1029930028FA851082851183780C1211BE900B20C2
:1029A300780C12118574087808121140900B247862
:1029B30008121185780C79081211988510828511F7
:1029C30083780C1211CD851082851183780812113A
:1029D300BE900B2878081211857408121369780CBD
:1029E3001211BE900B2C780C1211857808790C12F9
:1029F300119885108285118378081211CD85108274
:102A030085118378081211BE900B10780812118576
:102A13007410121369780C1211BE7415780C12110C
:102A230040900B14780C1211857808790C121198C8
:102A330085108285118378081211CD851082851146
:102A43008378081211BE900B187808121185740C44
:102A5300121369780C1211BE7410780C1211409085
:102A63000B1C780C1211857808790C1211988510BB
:102A73008285118378081211CD7406121369E0F868
:102A8300A3E0F5838882E0F508E4F509F50AF50B80
:102A9300851082851183780C1211BE900B0C780C73
:102AA300121185741A7808121140780C79081211E2
:102AB30098851082851183780C1211CD851082853B
:102AC300118312120C7404121369E0FCA3E0CC24EA
:102AD30006F582CC3400F5831212187406121369BA
:102AE300E0F8A3E0F97404121369E0FAA3E0F583B4
:102AF3008A82A3A3E8F0A3E9F07424121369E0F82F
:102B0300A3E0F97404121369E0FAA3E0F5838A825F
:102B1300A3A3A3A3E8F0A3E9F07404121369E0FCF0
:102B2300A3E0FD7A017B0312073774141213157F98
:102B3300080213F974F112138D8C0A8D0B80098A24
:102B4300828B83A3AA82AB838A828B83E064206017
:102B5300EE8A828B83E06420601B8A828B83E06031
:102B6300148A828B83A3AA82AB8380E58A828B83B8
:102B7300A3AA82AB838A828B83E0642060EE8A827D
:102B83008B83E0643F70077AFF7BFF022D9A7E0000
:102B93007F00740F121369E0F50CA3E0F50D80219B
:102BA3008A828B83A3AA82AB838A828B83E064208D
:102BB30060EE0EEE70010FE50A2402F50A500205DD
:102BC3000B8A828B83E07003022D96C3EE950CEF84
:102BD300950DA2D265D0334003022D96850A8285D6
:102BE3000B837400F0A37400F08A828B83E064305B
:102BF3006003022CC98A828B83A3E064786003029A
:102C03002CC9EA2402FA50330B8030850A82850BE3
:102C130083E0F508A3E0F509740478081212ECE5E3
:102C2300084CF8E5094DF9850A82850B83E8F0A382
:102C3300E9F08A828B83A3AA82AB838A828B83E0A7
:102C4300F87900E824D0F8E934FFF9E8FCE9FDC39A
:102C5300E8940AE9940040B38A828B83E0F8790010
:102C6300E824BFF8E934FFF9E8FCE9FDC3E894067A
:102C7300E99400401D8A828B83E0F87900E8249F61
:102C8300F8E934FFF9E8FCE9FDC3E89406E99400A8
:102C93005031850A82850B83E0F508A3E0F50974BA
:102CA3000478081212ECE5082CF8E5093DF9E8244C
:102CB3000AF8500109850A82850B83E8F0A3E9F03D
:102CC300022C35022D7A8A828B83E0642D7004D224
:102CD300F08002C2F0A2F0E433F87900E849600919
:102CE3008A828B83A3AA82AB838A828B83E0FC7D57
:102CF30000EC24D0FCED34FFFD8052850A82850B65
:102D030083E0F508A3E0F509E50875F00AA4C50812
:102D130085F00E75F000A4250EF50E75F00AE50991
:102D2300A4250EF509E5082CFCE5093DFD850A827D
:102D3300850B83ECF0A3EDF08A828B83A3AA82AB8D
:102D430083E0FC7D00EC24D0FCED34FFFDC3EC9468
:102D53000AED940040A5E849601D850A82850B832E
:102D6300E0F8A3E0F9C3E498F8E499F9850A8285C9
:102D73000B83E8F0A3E9F08A828B83E07003022BD4
:102D8300AC8A828B83E064207003022BAC7AFE7BD7
:102D9300FF8004EEFAEFFB7F070213F974F61213B8
:102DA3008DEAFEEBFF8C088D0990056FE0F8A3E038
:102DB300F9E84960167C5E7D017AA17B0990056F75
:102DC300E0F8A3E0F583888212138B8E828F8374DD
:102DD30091F0A37407F0740A12136912150FAC086B
:102DE300AD09EEFAEFFB12079174021213157F027D
:102DF3000213F974F012138DEAFEEBFF8C088D09B0
:102E0300750A00750B007410121369E0F8A3E0F95A
:102E1300E50828F50EE50939F50F8048EE246AF533
:102E230082E43FF583E0602FEE246AF582E43FF508
:102E330083E024FFF090056FE0F8A3E0F9E8496030
:102E4300167C017D007AE07B0690056FE0F8A3E035
:102E5300F583888212138B850882850983A3858273
:102E630008858309C3E508950EE509950F4003021C
:102E7300303AE50A450B6003022F6985088285090C
:102E830083E0C39420C3945F50118508828509832E
:102E9300E0F9EEFAEFFB12075B80BC850882850937
:102EA30083E024FD606B24FB7003022F491470033D
:102EB300022F5F24FC600D24F2604D249C700302FA
:102EC3002F498093EE246BF582E43FF583E0601B8A
:102ED3007AD17B061207F1EEFAEFFB120743EEFC01
:102EE300EFFD7A017B03120761801AEE2406F50CCD
:102EF300E43FF50D780C1214FA7AD47B061207F12D
:102F03007402121315022E5A750A01750B00022E54
:102F13005AEE246AF582E43FF5837400F0EE246BE5
:102F2300F582E43FF5837400F0EE2406F50CE43FEC
:102F3300F50D780C1214FA7AD97B061207F1740294
:102F4300121315022E5AEE246AF582E43FF583E04C
:102F53006007EEFAEFFB120755022E5AEEFAEFFB6B
:102F630012074F022E5A7401650A70047400650B30
:102F7300701D850882850983E0645B7009750A0208
:102F8300750B00022E5A750A00750B00022E5A8526
:102F93000882850983E024BF600F14602114603325
:102FA300147003022E1F022E5A900B3C12150BEEC7
:102FB300FAEFFB1207497404121315022E5A900BF1
:102FC3000012150BEEFAEFFB1207497404121315E6
:102FD300022E5AEE246BF582E43FF583E0F8EE24EB
:102FE3006AF582E43FF583E068604990056FE0F895
:102FF300A3E0F9E849603DEE246AF582E43FF583F6
:10300300E0F8740128C0E0EE246AF582E43FF5831A
:10301300D0E0F07C017D007900EE28F8EF39F9E883
:103023002438FAE439FB90056FE0F8A3E0F58388D0
:103033008212138B022E5A7F080213F974F41213AF
:103043008D74FE1212FF8A088B09ECFAEDFBE5087A
:103053002469FEE43509FF8E828F83E070568A82ED
:103063008B83E06459601E8A828B83E064796015E8
:103073008A828B83E0644E600C8A828B83E0646E69
:10308300600302319F8A828B83E0C0E08E828F834C
:10309300D0E0F090056FE0F8A3E0F9E84960127C16
:1030A300017D0090056FE0F8A3E0F5838882121399
:1030B3008B02319F8A828B83E06408702C90056FAA
:1030C300E0F8A3E0F9E84960167C037D007AE27B2F
:1030D3000690056FE0F8A3E0F583888212138B8EC8
:1030E300828F837400F002319F8A828B83E0640DA8
:1030F300600C8A828B83E0640A600302319F750A45
:1031030002750B00780A1214FAE5082404FCE4356E
:1031130009FD740212137B12081B74021213158E1D
:10312300828F83E0F50A8E828F837400F085088294
:103133008509837491F0A37407F085088285098358
:10314300A3A3A3A37400F0A37400F090056FE0F8A9
:10315300A3E0F9E84960167C027D007AD17B0690F2
:10316300056FE0F8A3E0F583888212138B74596529
:103173000A60067479650A701CE5082438FAE43598
:1031830009FB851082851183E0F8A3E0F58388822B
:1031930012138B80077AE67B061207F1740212136F
:1031A300157F040213F974F612138DEAFEEBFF8CFC
:1031B300088D0978081214FA7AFE7B061207F17457
:1031C300021213158E828F837497F0A37407F07520
:1031D300080275090078081214FA740C121383EEAE
:1031E3002404FAE43FFB12081B7402121315EE24A5
:1031F30069F582E43FF5837400F07F020213F974EA
:10320300F012138D74FA1212FFECFEEDFF7C2C7D8D
:10321300097402121369748BF0A37407F074161205
:103223001373851082851183E8F0A3E9F08510827A
:10323300851183E0F8A3E0F5838882E0F50CA3E031
:10324300F50DE4F50EF50F851082851183E0240258
:10325300F8A3E03400F9851082851183E8F0A3E92F
:10326300F00232F0900B40780C12085A704B851024
:1032730082851183E0F8A3E0F5838882E0F8A3E078
:10328300F97404121369E8F0A3E9F085108285113B
:1032930083E02402F8A3E03400F9851082851183CA
:1032A300E8F0A3E9F07404121369E0F8A3E0F974F9
:1032B30002121369E8F0A3E9F0851082851183E017
:1032C300F8A3E0F5838882E0F50CA3E0F50DE4F5BF
:1032D3000EF50F851082851183E02402F8A3E034F4
:1032E30000F9851082851183E8F0A3E9F0900B487B
:1032F300C082C083850C08850D09850E0A850F0BD6
:10330300900B447808121185D083D0827808120874
:103313005A703D900B4C780C12085A6003023267C6
:10332300851082851183E0F8A3E0F5838882E0FCB1
:10333300A3E0FD851082851183E02402F8A3E03425
:1033430000F9851082851183E8F0A3E9F00232BC0D
:10335300EA246BF582E43BF5837400F0EA246AF512
:1033630082E43BF5837400F08A828B83A3A3EEF09F
:10337300A3EFF07402121369E0F8A3E0F98A828BD9
:1033830083E8F0A3E9F08A828B837491F0A3740736
:10339300F0EA246CF582E43BF5837400F0EA246DD3
:1033A300F582E43BF5837400F08A828B83A3A3A3A5
:1033B300A37400F0A37400F0EA2406FA50010B1280
:1033C300082D74061213157F080213F974F61213ED
:1033D3008DECFEEDFFEA4B601B7508327509007832
:1033E300081214FAEAFCEBFD7A2C7B0912083974F3
:1033F3000212131590056FEEF0A3EFF0900571EE36
:10340300F0A3EFF075086D75090778081214FA7CBC
:10341300087D077A037B0312077F74021213157565
:10342300087375090778081214FA7C0D7D077A0D65
:103433007B0312077F74021213157508677509075A
:1034430078081214FA7C1B7D077A177B0312077F17
:10345300740212131575087975090778081214FA9E
:103463007C217D077A217B0312077F7402121315D7
:103473007F020213F974F012138D74B11212FF85D7
:103483001082851183EAF0A3EBF07406121369EC42
:10349300F0A3EDF07467121369E0FAA3E0FBEA54BA
:1034A30020C0E07405121369D0E0F0EA54106008FC
:1034B30074FE5AFA74FF5BFBEAA2E0500474308096
:1034C300027420C0E07408121369D0E0F074021291
:1034D30013697400F0745F12136978081211BEEA5D
:1034E3005402605F900B3C7808120884401D7402FC
:1034F300121369742DF0780812111674631213698C
:10350300E024FFF0A3E034FFF08038EA54046018AD
:103513007402121369742BF07463121369E024FFAD
:10352300F0A3E034FFF0801BEA5408601674021223
:1035330013697420F07463121369E024FFF0A3E0AD
:1035430034FFF0EA5440603E7406121369E06410DD
:103553007004A3E0640070107463121369E024FE26
:10356300F0A3E034FFF0801E7406121369E06408D0
:103573007004A3E06400700E7463121369E024FF07
:10358300F0A3E034FFF074031213697400F0A37422
:1035930000F0AC08AD09E4FEFF74091213691212BE
:1035A300007405121369E0FC7409121369780C1294
:1035B30011BE7406121369E0F508A3E0F509E509E5
:1035C3003395E0F50AF50B780C79081210A4748191
:1035D3002508F582740B3509F583E04CC0E07403CC
:1035E300121369740D12137388088909E02508F80A
:1035F300A3E03509F988828983D0E0F074031213BC
:1036030069E02401F0A3E03400F07409121369782F
:103613000C1211BE7406121369E0F508A3E0F50954
:10362300E5093395E0F50AF50B780C79081210A437
:103633007409121369780C1211CD740912136912EB
:1036430011F4EC4D4E4F60030235A47465121369F7
:10365300E0F8A3E0F97403121369E0FCA3E0FDC3EF
:10366300E89CE99DA2D265D033500A740312136912
:10367300E0F8A3E0F97463121369C3E098F0A3E0E0
:1036830099F0EA5411704F8039851082851183E0D7
:10369300FCA3E0F5838C827420F08510828511836E
:1036A300E02401FCA3E03400FD851082851183EC46
:1036B300F0A3EDF07463121369E024FFF0A3E03488
:1036C300FFF07463121369C3E09401A3E09400A2B2
:1036D300D265D03350B37402121369E060337402BD
:1036E300121369E0C0E0851082851183E0FCA3E03A
:1036F300F5838C82D0E0F0851082851183E024016C
:10370300FCA3E03400FD851082851183ECF0A3ED6A
:10371300F0EA544070030237C97406121369E06477
:10372300087004A3E06400702D851082851183E086
:10373300FCA3E0F5838C827430F0851082851183BD
:10374300E02401FCA3E03400FD851082851183ECA5
:10375300F0A3EDF080707406121369E06410700436
:10376300A3E064007060851082851183E0FCA3E010
:10377300F5838C827430F0851082851183E02401F7
:10378300FCA3E03400FD851082851183ECF0A3EDEA
:10379300F07405121369E04458C0E0851082851166
:1037A30083E0FCA3E0F5838C82D0E0F08510828572
:1037B3001183E02401FCA3E03400FD851082851110
:1037C30083ECF0A3EDF0EA541070578041740812B3
:1037D3001369E0C0E0851082851183E0FAA3E0F568
:1037E300838A82D0E0F0851082851183E02401FA78
:1037F300A3E03400FB851082851183EAF0A3EBF08C
:103803007463121369E024FFF0A3E034FFF07463E0
:10381300121369C3E09401A3E09400A2D265D033EC
:1038230050AB7403121369C3E098A3E099A2D26565
:10383300D03340030238C4851082851183E0FAA394
:10384300E0F5838A827430F0851082851183E02449
:1038530001FAA3E03400FB851082851183EAF0A30B
:10386300EBF0E824FFF8E934FFF980B67403121390
:1038730069E024FFF8A3E034FFF97403121369E845
:10388300F0A3E9F0740D121369E58228F582E5834C
:1038930039F583E0C0E0851082851183E0F8A3E069
:1038A300F5838882D0E0F0851082851183E02401BE
:1038B300F8A3E03400F9851082851183E8F0A3E9C9
:1038C300F07403121369C3E09401A3E09400A2D23D
:1038D30065D03350977463121369C3E09401A3E076
:1038E3009400A2D265D033403B851082851183E0DA
:1038F300F8A3E0F58388827420F085108285118314
:10390300E02401F8A3E03400F9851082851183E8EF
:10391300F0A3E9F07463121369E024FFF0A3E03429
:10392300FFF080B1851082851183E0FAA3E0FB7478
:103933004F1213157F080213F974F012138D74B626
:103943001212FF7401121369EAF0A3EBF07406126A
:103953001369ECF0A3EDF07460121369E0FEA3E0C9
:10396300FFEE5410600874FE5EFE74FF5FFFEEA26C
:10397300E0500B8510828511837430F08009851027
:10398300828511837420F0851082851183E0C0E065
:103993007405121369D0E0F0745E121369E0C394E6
:1039A30000F8A3E09400F9C3E89407E99400400CFD
:1039B300745E1213697406F0A37400F0745A121340
:1039C3006978081211BE900B3C780C1211BE78086E
:1039D300790C120AB3501F851082851183742DF060
:1039E300C50BB2E7C50B7406121369E024FFF0A3FD
:1039F300E034FFF080098510828511837400F07430
:103A0300031213697400F0A37400F085080C850990
:103A13000D850A0E850B0F780C120951AC0CAD0DF8
:103A2300745E121369E0F8A3E0F9E8497003023BFE
:103A3300348C0C8D0DE4F50EF50F780C1208F47828
:103A430008790C120C7F745E121369E0F8A3E0F995
:103A5300E875F004A4C8AAF075F000A42AFA75F07A
:103A630004E9A42AF9749128F582740B39F5837853
:103A73000C1211BE7808790C120AFF78081209514A
:103A830085080A85090B850A08850B09750C0075DD
:103A93000D008059A808A9097A0A7B00121293EA3B
:103AA3002430C0E074031213697408121373880A74
:103AB300890BE0250AF8A3E0350BF988828983D0C6
:103AC300E0F07403121369E02401F0A3E03400F082
:103AD300A808A9097A0A7B00121293880A890B8520
:103AE3000A08850B09050CE50C7002050D745E12BE
:103AF3001369E0F8A3E0F9C3E50C98E50D99A2D2A8
:103B030065D033408F7403121369740812137388DA
:103B1300088909E02508F8A3E03509F98882898333
:103B2300742EF07403121369E02401F0A3E034004F
:103B3300F0ECF8EDF97A0A7B00121293EA2430C014
:103B4300E07403121369740812137388088909E077
:103B53002508F8A3E03509F988828983D0E0F07459
:103B630003121369E02401F0A3E03400F0ECF8ED54
:103B7300F97A0A7B0012129388088909AC08AD0907
:103B8300EC4D70AD7403121369E0F8A3E0F9740609
:103B9300121369C3E098F0A3E099F0EE54106003A8
:103BA300023C4A7405121369E064306003023C3638
:103BB300851082851183E0607A851082851183E008
:103BC300C0E07401121369E0F8A3E0F5838882D0A2
:103BD300E0F07401121369E02401F8A3E03400F962
:103BE3007401121369E8F0A3E9F08510828511834B
:103BF3007400F0803E7405121369E0C0E074011292
:103C03001369E0F8A3E0F5838882D0E0F074011231
:103C13001369E02401F8A3E03400F9740112136975
:103C2300E8F0A3E9F07406121369E024FFF0A3E0BF
:103C330034FFF07406121369C3E09401A3E0940007
:103C4300A2D265D03350AE851082851183E0700314
:103C5300023CDB851082851183E0C0E074011213FE
:103C630069E0F8A3E0F5838882D0E0F074011213D1
:103C730069E02401F8A3E03400F97401121369E840
:103C8300F0A3E9F080527403121369E024FFF8A350
:103C9300E034FFF97403121369E8F0A3E9F0740840
:103CA300121369E58228F582E58339F583E0C0E0E4
:103CB3007401121369E0F8A3E0F5838882D0E0F081
:103CC3007401121369E02401F8A3E03400F97401CC
:103CD300121369E8F0A3E9F07403121369C3E094C3
:103CE30001A3E09400A2D265D033509A7406121354
:103CF30069C3E09401A3E09400A2D265D0334038B5
:103D03007401121369E0F8A3E0F58388827420F04C
:103D13007401121369E02401F8A3E03400F974017B
:103D2300121369E8F0A3E9F07406121369E024FFA3
:103D3300F0A3E034FFF080B47401121369E0FAA336
:103D4300E0FB744A1213157F080213F974F012137F
:103D53008D749C1212FF90056FE0F8A3E0F9E84917
:103D63007003024638EAFEEBFF851082851183EE6D
:103D7300F0A3EFF074741213737402121369E8F072
:103D8300A3E9F0023E557402121369E0F8A3E0F5CB
:103D9300838882E0FCA3E0FDED3395E0FEFF740829
:103DA300121369ECF0A3EDF0A3EEF0A3EFF07402AD
:103DB300121369E02402F8A3E03400F97402121329
:103DC30069E8F0A3E9F078081214FA8A088B0978F5
:103DD300081214FA780A1214FA740E1213691215DF
:103DE3000B740E121369E0FCA3E0FD741612137B2F
:103DF3001207E5740A1213158A088B0985080E85C4
:103E0300090F740C12137388088909E50EC395080A
:103E1300FCE50F9509FD740C12137B90056FE0F818
:103E2300A3E0F583888212138B851082851183E0CA
:103E33002401FEA3E03400FF851082851183E02472
:103E430001F8A3E03400F9851082851183E8F0A31B
:103E5300E9F0851082851183E0F8A3E0F583888279
:103E6300E07003024601851082851183E0F8A3E028
:103E7300F5838882E0642570BF740C12137388087D
:103E8300890985080E85090F851082851183E0F85D
:103E9300A3E0F9EE687002EF69602F851082851147
:103EA30083E0F8A3E0F9E8C39EFCE99FFDEEFAEF97
:103EB300FB90056FE0F8A3E0F583888212138B85EE
:103EC3001082851183E0FEA3E0FF750800750900E9
:103ED30074041213697400F0A37400F085108285D2
:103EE3001183E02401F8A3E03400F98510828511E1
:103EF30083E8F0A3E9F0851082851183E0F8A3E05D
:103F0300F5838882E024E0602E24FD603824F86085
:103F13001824FE600624FD603A804674104508F5B7
:103F23000874004509F509804474044508F50874CC
:103F3300004509F509803674084508F508740045FD
:103F430009F509802874404508F50874004509F50A
:103F530009801A74014508F50874004509F50980BC
:103F63000C74041213697401F0A37400F074041246
:103F73001369E0F8A3E0F9E8497003023EDF851016
:103F830082851183E0F8A3E0F5838882E0F8790065
:103F9300743D28F582741539F583E493A2E2400356
:103FA300024038750A00750B00E50A75F00AA4C5CE
:103FB3000AA8F075F000A428F875F00AE50BA42808
:103FC300F50B851082851183E0F8A3E0F5838882E1
:103FD300E0F87900E50A28F8E50B39F9E824D0F58B
:103FE3000AE934FFF50B851082851183E02401F87B
:103FF300A3E03400F9851082851183E8F0A3E9F08A
:10400300851082851183E0F8A3E0F5838882E0F8C8
:104013007900743D28F582741539F583E493A2E29F
:104023004087C3E50A9459E50B9400400E750A587E
:10403300750B008006750AFF750BFF8510828511CD
:1040430083E0F8A3E0F5838882E0642E60030240F6
:10405300F47A007B00851082851183E02401F8A3A4
:10406300E03400F9851082851183E8F0A3E9F0803C
:104073004FEA75F00AA4CAA8F075F000A428F875F1
:10408300F00AEBA428FB851082851183E0F8A3E0F6
:10409300F5838882E0F87900EA28F8EB39F9E82417
:1040A300D0FAE934FFFB851082851183E02401F8FF
:1040B300A3E03400F9851082851183E8F0A3E9F0C9
:1040C300851082851183E0F8A3E0F5838882E0F808
:1040D3007900743D28F582741539F583E493A2E2DF
:1040E300408FC3EA9459EB9400400A7A587B0080CE
:1040F300047AFF7BFF851082851183E0F8A3E0F546
:10410300838882E0646C702E851082851183E0F8C9
:10411300A3E0F5838882E0FC7D008510828511830E
:10412300E02401F8A3E03400F9851082851183E8C7
:10413300F0A3E9F080047CFF7DFF7404121369741B
:104143000AF0A37400F0851082851183E0F8A3E0E0
:10415300F5838882E024A870030245E524F56039DD
:104163001470030245F324FE700302450524FD7019
:10417300030245F324FA700302458D1470030244CD
:104183004C24FD700302428624FE700302459924E9
:10419300FD70030245D9023E3BE50854107034809C
:1041A30016850E82850F837420F0850E82850F831A
:1041B300A385820E85830FE50A24FFF8E50B34FF00
:1041C300F9880A890BC3E89401E99400A2D265D067
:1041D3003350CE7402121369E0F8A3E0F5838882AA
:1041E300E0F8A3E0F9E8C0E0850E82850F83D0E014
:1041F300F07402121369E02402F8A3E03400F974A6
:1042030002121369E8F0A3E9F0850E82850F83A3F8
:1042130085820E85830F8016850E82850F83742019
:10422300F0850E82850F83A385820E85830FE50AB1
:1042330024FFF8E50B34FFF9880A890BC3E89401DE
:10424300E99400A2D265D03350CE740C1213738854
:10425300088909E50EC39508FCE50F9509FD740C63
:1042630012137B90056FE0F8A3E0F58388821213A5
:104273008B851082851183E02401FEA3E03400FFC7
:10428300023E3B7402121369E0F8A3E0F5838882CF
:10429300E0F8A3E0F97406121369E8F0A3E9F074F7
:1042A30002121369E02402F8A3E03400F974021245
:1042B3001369E8F0A3E9F07406121369E0F8A3E0C8
:1042C300F9E849700C7406121369747AF0A3740B3D
:1042D300F07406121369E0F50EA3E0F50FC3EA9438
:1042E30001EB9400A2D265D0334028A80EA90F8811
:1042F300828983A385820E85830F88828983E06008
:1043030028EA24FFF8EB34FFF9E8FAE9FBE84970FF
:10431300DA8016A80EA90F88828983A385820E8569
:10432300830F88828983E070EA7406121369E0F8C8
:10433300A3E0F9E50EC398FEE50F99FF740C121381
:1043430073880C890D850C0E850D0FE508541070CC
:1043530065C3EE950AEF950BA2D265D0335057850E
:104363000E82850F837420F0850E82850F83A385CB
:10437300820E85830FE50A24FFF8E50B34FFF988E5
:104383000A890BC3EE98EF99A2D265D03340D0745B
:104393000C12137388088909E50EC39508FCE50F11
:1043A3009509FD740C12137B90056FE0F8A3E0F5FB
:1043B30083888212138BEEFCEFFD7406121369E0FF
:1043C300FAA3E0FB90056FE0F8A3E0F5838882127F
:1043D300138BC3EE950AEF950BA2D265D0335057DA
:1043E300850E82850F837420F0850E82850F83A34B
:1043F30085820E85830FE50A24FFF8E50B34FFF968
:10440300880A890BC3EE98EF99A2D265D03340D0C6
:10441300740C12137388088909E50EC39508FCE52B
:104423000F9509FD740C12137B90056FE0F8A3E060
:10443300F583888212138B851082851183E0240112
:10444300FEA3E03400FF023E3B74FF650A70047470
:10445300FF650B7012750A04750B0074014508F5AE
:104463000874004509F5097402121369E0F8A3E022
:10447300F9E8FCE9FDEC2402F8E43DF974021213B7
:1044830069E8F0A3E9F078081214FA8A088B09782E
:10449300081214FA780A1214FA8C828D83E0F50854
:1044A300A3E0F509E4F50AF50B78081214F67C107D
:1044B3007D00741612137B1207E5740A1213158A12
:1044C300088B0985080E85090F740C12137388086D
:1044D3008909E50EC39508FCE50F9509FD740C12D7
:1044E300137B90056FE0F8A3E0F583888212138BAA
:1044F300851082851183E02401FEA3E03400FF02CE
:104503003E3B7402121369E0F8A3E0F9E8FCE9FD0D
:10451300EC2404F8E43DF97402121369E8F0A3E90A
:10452300F078081214FA8A088B0978081214FA8CA6
:10453300828D8312150BAC0AAD0B741412137B120C
:1045430007EB74081213158A088B0985080E850971
:104553000F740C12137388088909E50EC39508FCC0
:10456300E50F9509FD740C12137B90056FE0F8A31A
:10457300E0F583888212138B851082851183E024F2
:1045830001FEA3E03400FF023E3B7404121369747E
:1045930008F0A37400F0746C6C700374006D600316
:1045A300023D897402121369E0F8A3E0F58388825F
:1045B3001211F474081213691212007402121369AF
:1045C300E02404F8A3E03400F97402121369E8F05C
:1045D300A3E9F0023DC974204508F50874004509B4
:1045E300F50974041213697410F0A37400F080A623
:1045F30074024508F50874004509F509809885108B
:1046030082851183E0F8A3E0F9EE687002EF696038
:1046130024851082851183E0F8A3E0F9E8C39EFCAA
:10462300E99FFDEEFAEFFB90056FE0F8A3E0F58359
:10463300888212138B74641213157F080213F974A2
:10464300F012138D74FA1212FF851082851183EC18
:10465300F0A3EDF0EAFEEBFF7A007B247CF47D4BC4
:104663007402121369EAF0A3EBF0A3ECF0A3EDF0EC
:104673008E828F83780C1211BE900B53780812111F
:10468300BE780C7908120AB3501485108285118301
:10469300E0F8A3E0F58388827406F00248188E825E
:1046A3008F83780C1211BE900B5378081211BE78C9
:1046B3000C7908120A64502E8E828F83780C1211A3
:1046C300BE900B5778081211BE780C7908120AB302
:1046D3005014851082851183E0F8A3E0F583888266
:1046E3007407F00248188E828F83780C1211BE90E3
:1046F3000B5778081211BE780C7908120A64502EF1
:104703008E828F83780C1211BE900B5B7808121186
:10471300BE780C7908120AB3501485108285118370
:10472300E0F8A3E0F58388827408F00248188E82CB
:104733008F83780C1211BE900B5B78081211BE7830
:104743000C7908120A64502E8E828F83780C121112
:10475300BE9005AD78081211BE780C7908120AB321
:104763005014851082851183E0F8A3E0F5838882D5
:104773007409F00248188E828F83780C1211BE9050
:1047830005AD78081211BE780C7908120A64502D11
:104793008E828F83780C1211BE900B5F78081211F2
:1047A300BE780C7908120AB35013851082851183E1
:1047B300E0F8A3E0F5838882740AF080588E828F34
:1047C30083780C1211BE900B5F78081211BE780C1F
:1047D3007908120A64502D8E828F83780C1211BED1
:1047E300900B6378081211BE780C7908120AB35043
:1047F30013851082851183E0F8A3E0F58388827422
:104803000BF08011851082851183E0F8A3E0F58316
:104813008882740CF0900B6712150B900B6B1211BE
:10482300DC12082774041213158A088B098C0A8D6D
:104833000B8E828F83780C1211BE780C7908120AC2
:10484300FFC00CC00DC00EC00F7402121369780CA8
:104853001211BE851082851183E0F8A3E0F58388E9
:1048630082E0F508E4F509F50AF50B78081208F477
:1048730078081214F6900B6B1211DC1208277404DB
:104883001213158A088B098C0A8D0B780C79081280
:104893000AFFD00BD00AD009D0087808790C120E81
:1048A300BE900B6F780C1211BE7808790C120CA411
:1048B3007808120951E508C0E07416121369E0F88C
:1048C300A3E0F5838882D0E0F074061213157F0805
:1048D3000213F974F612138D74FA1212FF74021292
:1048E3001369EAF0A3EBF0A3ECF0A3EDF043F30CB0
:1048F30053F1FE53FDFB43FD0853FF3F7586C0A8EC
:1049030010A9118808890978081214FA740312137C
:1049130083740412137B1207B57402121315740106
:10492300121369E0F5C5851082851183E0F5C24352
:10493300A90443B904D2AAD2AF74061213157F0295
:104943000213F989C1A2E950FCC2E902007F74F69F
:1049530012138DEAFEEBFF8C088D0980128E828F75
:1049630083E0F91207C18E828F83A3AE82AF83A83F
:1049730008A909E824FFF508E934FFF509E84970B7
:10498300DC7F020213F9C082C083900563E0F8A3C1
:10499300E0F9900561E0FAA3E0FBC3E89AE99B40E4
:1049A30011900561E0FAA3E0FBE8C39AFAE99BFBE7
:1049B3008017900561E0FAA3E0FB7400C39AFA74D0
:1049C300019BFBEA28FAEB39FBD083D08202007FFC
:1049D30074F212138D7582FD7583FE12134B9005CD
:1049E30063E0F8A3E0F9900561E0687003A3E06970
:1049F3007003024BD675080075090178081214FA82
:104A03007C007D00740512137B12082174021213BB
:104A1300151207CD8A0A8B0B850A08850B099005A9
:104A230061E02508F8A3E03509F9C3E89401E994A6
:104A3300014060900561E0F8A3E0F97400C398F5C4
:104A43000C740199F50DE508C3950CF50AE5099574
:104A53000DF50B780C1214FA900561E02461FCA3A8
:104A6300E03404FD740512137B12081B7402121345
:104A730015780A1214FA7C617D047405121369E532
:104A830082250CFAE583350DFB12081B7402121301
:104A930015801E78081214FA900561E02461FCA3C6
:104AA300E03404FD740512137B12081B7402121305
:104AB30015900B50AC10AD11740312123185108296
:104AC300851183741BF07401121369745BF0AC10CD
:104AD300AD11740312137B12083F8A0A8B0BE50A8C
:104AE300450B7003024B6E740312137B1208338A57
:104AF3000A8B0BC3E50A9403E50B94005003024BA6
:104B0300D690032BE0F8A3E0F9E849604190032D28
:104B1300E0F8A3E0F990056FE8F0A3E9F078081254
:104B230014FA74051213837A2B7B0390032BE0F89A
:104B3300A3E0F583888212138B7402121315900578
:104B430071E0F8A3E0F990056FE8F0A3E9F09005B0
:104B530061E02508F8A3E03509F97A007B01121218
:104B630093900561EAF0A3EBF0806890032BE0F8E3
:104B7300A3E0F9E849604190032DE0F8A3E0F99040
:104B8300056FE8F0A3E9F078081214FA740512131C
:104B9300837A2B7B0390032BE0F8A3E0F5838882D1
:104BA30012138B7402121315900571E0F8A3E0F948
:104BB30090056FE8F0A3E9F0900561E02508F8A3FC
:104BC300E03509F97A007B01121293900561EAF04E
:104BD300A3EBF092F075820375830112134BA2F0DD
:104BE3007F060213F974F012138D74E81212FF8515
:104BF3001082851183EAF0A3EBF0A3ECF0A3EDF0B0
:104C0300740A121369E4F0A3F07428121369780884
:104C13001211BE900B3C780C1211BE7808790C125D
:104C23000A38700B7A007B007C807D3F024FBD8584
:104C3300108285118378081211BE900B3C780C12F8
:104C430011BE7808790C120A38607A8510828511B2
:104C53008378081211BEE50BC2E7F50B900BED78D4
:104C63000C1211BE7808790C120A38700E90057375
:104C73007422124FC71211DC024FBD74281213693C
:104C830078081211BE900BED780C1211BE780879DA
:104C93000C120A3870149005737422F0A3E4F07AAE
:104CA300FF7BFF7C7F7D7F024FBD742812136978E1
:104CB300081211BE900BF1780C1211BE7808790C12
:104CC300120A38700B7A007B007C007D00024FBD16
:104CD30085108285118378081211BE900B3C780CE5
:104CE3001211BE7808790C120AB350747428121387
:104CF3006978081211BE7428121369780C1211BE58
:104D0300780C120951780C1208D97808790C120C16
:104D13007F900BF5780C1211BE7808790C120A6497
:104D2300500B9005737421F0A3E4F080987428125B
:104D3300136978081211BE7808120951E508540165
:104D4300F8740A121369E8124FC778081211BEE506
:104D53000BC2E7F50B85108285118378081211CDFC
:104D630085108285118378081211BEE50B548044A7
:104D73003FF50BE50AC2E7F50A74061213697808D2
:104D83001211CD85108285118378081211BEE50AB0
:104D930033E50B332482F5083395E0F509F50AF57D
:104DA3000B78081208D97428121369780C1211BEF3
:104DB3007808790C120AFF7410121369780812111B
:104DC300CD74101213691211DC1208038510828549
:104DD30011831211E885108285118378081211BEA0
:104DE30078081209517404121369E508F0A3E50960
:104DF300F074061213691211DC12080F74141213E3
:104E0300691211E8742812136978081211BE740428
:104E1300121369E0F50CA3E0F50D3395E0F50EF5FB
:104E23000F780C1208D97808790C120C7F741412BD
:104E33001369780C1211BE7808790C120AFFC008A6
:104E4300C009C00AC00B741012136978081211BE8E
:104E5300851082851183780C1211BE7808790C12A3
:104E63000C7F900BF9780C1211BE7808790C120A9A
:104E7300FFD00FD00ED00DD00C780C7908120CA4F3
:104E8300AA0CAB0DAC0EAD0F1207FD740C12136917
:104E93001211E8851082851183E4F0A3F0A37480D6
:104EA300F0A3743FF07404121369E0FAA3E0FB1259
:104EB30007F7EA4B702F024F547406121369780CEC
:104EC3001211BE740612136978081211BE780C7998
:104ED30008120AFF7406121369780C1211CDEBC382
:104EE30013FBEA13FAEAA2E05027851082851183A7
:104EF300780C1211BE740612136978081211BE7869
:104F03000C7908120AFF851082851183780C12111F
:104F1300CD74016A4B70A27404121369C3A3E094A5
:104F230000A2D265D0335029750800750900750AAF
:104F330080750B3F851082851183780C1211BE7822
:104F430008790C120EBE8510828511837808121120
:104F5300CD740C12136978081211BE74041213690C
:104F6300E0F9851082851183780C1211BEE9A2E75E
:104F730013F9E413250EF50EE9350FF50F780879CB
:104F83000C120AFF740C12136978081211CD740AFB
:104F9300121369E0A2E0740C50101213697808121E
:104FA30011BEE50BB2E7F50B8008121369780812FE
:104FB30011BEAA08AB09AC0AAD0B74181213157F06
:104FC300080213F9F0A3E4F085108285118322749B
:104FD300F012138D74F81212FF851082851183EA83
:104FE300F0A3EBF0A3ECF0A3ED1252A91211BE90C3
:104FF3000B3C780C1211BE7808790C120A38700B2E
:105003007A007B007C807D3F02529F851082851150
:105013008378081211BEEDC2E7F50B900BAD780C47
:105023001211BE7808790C120A6450449005737407
:1050330022F0A3E41252A91211BE900B3C780C1279
:1050430011BE7808790C120AB3500E750800750961
:1050530000750A00750B00800C7508FF7509FF7554
:105063000A7F750B7FAA08AB09AC0AAD0B02529FEE
:1050730085108285118378081211BE900BB1780CCC
:105083001211BE7808790C120AFF851082851183EC
:1050930078081211CD85108285118378081211BE0C
:1050A300E50BC2E7F50B7808120951E508FA8510FC
:1050B30082851183780C1211BE900B3C7808121173
:1050C300BE780C7908120AB3503985108285118392
:1050D30078081211BEEAF50C3395E0F50DF50EF5DF
:1050E3000F780C1208D97808790C120C7F900B3CBE
:1050F300780C1211BE7808790C120A3860010AEA9A
:10510300F404FA851082851183780C1211BEEAF536
:10511300083395E0F509F50AF50B78081208D978F4
:105123000C7908120C7F7404121369780C1211CDD8
:105133007404121369780C1211BE900BB57808121F
:1051430011BE780C7908120AB3502774041213693C
:10515300780C1211BE900BB578081211BE780C7939
:1051630008120CA47404121369780C1211CD7B017C
:1051730080027B00740412136978081211BE900B2D
:10518300B9780C1211BE7808790C120AFF900BBD86
:10519300780C1211BE7808790C120CA47404121343
:1051A30069780C1211BE7808790C120AFF900BC1B2
:1051B300780C1211BE7808790C120CA47404121323
:1051C30069780C1211BE7808790C120AFF900BC58E
:1051D300780C1211BE7808790C120CA47404121303
:1051E30069780C1211BE7808790C120AFF900BC96A
:1051F300780C1211BE7808790C120CA474041213E3
:1052030069780C1211BE7808790C120AFF900BCD45
:10521300780C1211BE7808790C120CA474041213C2
:1052230069780C1211BE7808790C120AFF900BD121
:10523300780C1211BE7808790C120CA485108285A3
:105243001183E508F0A3E509F0A3E50AF0A3E50B54
:10525300F0EBA2E05025851082851183780C1211A2
:10526300BE900BD578081211BE780C7908120AFF8C
:10527300851082851183780C1211CDEAF98510828D
:1052830085118378081211BEAA08AB09AC0AAD0BCD
:10529300E9A2E713F9E4132CFCE93DFD74081213AA
:1052A300157F080213F9F08510828511837808228F
:1052B30074F012138D74F61212FF85108285118318
:1052C300EAF0A3EBF0A3ECF0A3EDF08510828511D7
:1052D3008378081211BE900B00780C1211BE780867
:1052E300790C120AB3503385108285118378081222
:1052F30011BE900B3C780C1211BE7808790C120A7F
:1053030038900573700A74221254B77DFF0254ADAE
:1053130074211254B77D7F0254AD74041213738841
:1053230008890978081214FA74021213691211DC3D
:105333001208097402121315851082851183121144
:10534300E885108285118378081211BE900BD578F9
:105353000C1211BE7808790C120AB35032851082F0
:1053630085118378081211BE7401C31313250AF53E
:105373000AE4350BF50B8510828511837808121129
:10538300CD7404121369E024FFF0A3E034FFF08529
:10539300108285118378081211BE900BDD780C12F0
:1053A30011BE7808790C120CA4C008C009C00AC049
:1053B3000B851082851183780C1211BE900BD17866
:1053C300081211BE780C7908120CA4D00BD00AD0A5
:1053D30009D0087808790C120EBE851082851183D6
:1053E30078081211CD85108285118378081211BEB9
:1053F300851082851183780C1211BE7808790C12FE
:105403000AFF740612136978081211CD740412137B
:1054130069E0F5083395E0F509F50AF50B7808120C
:1054230008D9900BF9780C1211BE7808790C120A7E
:10543300FFC008C009C00AC00B74061213697808BC
:105443001211BE900BE1780C1211BE7808790C1280
:105453000AFF900BE5780C1211BE7808790C120C38
:10546300A47406121369780C1211BE7808790C1211
:105473000AFF900BE9780C1211BE7808790C120C14
:10548300A4851082851183780C1211BE7808790CDB
:10549300120AFFD00FD00ED00DD00C780C79081261
:1054A3000CA4AA0CAB0DAC0EAD0F740A1213157F2E
:1054B300080213F9F0A3E4F07AFF7BFF7C7F2274E8
:1054C300F012138D74F81212FF851082851183EA8E
:1054D300F0A3EBF0A3ECF0A3EDF08510828511832C
:1054E30078081211BEEDC2E7F50B900BD9780C12B8
:1054F30011BE7808790C120A6485108285118350D5
:10550300061211DC0255D678081211BE900B3C78B6
:105513000C1211BE7808790C120AB385108285111A
:105523008378081211BE40030255C4EDC2E7F50BA0
:1055330085108285118378081211CD85108285111B
:105543008378081211BE780812095178081208D915
:10555300740412136978081211CD851082851183A2
:1055630078081211BE7404121369780C1211BE78F4
:1055730008790C120C7F900B3C780C1211BE780842
:10558300790C120A38602374041213697808121113
:10559300BE900BD1780C1211BE7808790C120CA4B2
:1055A300740412136978081211CD74041213697804
:1055B300081211BEAA08AB09AC0AE50BB2E7FD80DD
:1055C30012780812095178081208D9AA08AB09AC55
:1055D3000AAD0B74081213157F080213F974F6123F
:1055E300138D1207AF9005AD1211DC1207BB7CC7F8
:1055F3007D077A757B051207A97CC77D077A2B7B0C
:10560300031207A3E4F508F50978081214FA7C00DD
:105613007D007A2B7B0312078B74021213157A7D9C
:105623007B051207F175080175090078081214FA51
:105633007CAB7D057A2B7B03120791740212131541
:105643007F020213F902007FC082C0831207DFD0FA
:1056530083D08202007F12071F12072512072B1225
:1056630007D380FB74F012138D8A088B098C0A8D83
:105673000B7410121369E0F8A3E0F9E8FAE9FB9060
:105683000B3C780C1211BE7808790C120A38700E94
:105693008A828B83E4F0A3F0FAFBFCFD8022EC33D7
:1056A300ED332482F83395E0F98A828B83E8F0A303
:1056B300E9F0AA08AB09ED5480443FFDECC2E7FCD6
:1056C3007F080213F974F612138DEAF8EBF9740AE2
:1056D300121369E0FEA3E0FF8E088F09E50824FF9B
:1056E3001EE50934FFFFE5084509602A8C828D8396
:1056F300E0F508A3AC82AD838A828B83F0A3AA82F0
:10570300AB8370D4EE4F600EE4F0A3EE24FF1EEFE4
:1057130034FFFF4E70F2E8FAE9FB7F020213F974DB
:10572300F612138D8C828D83E070317F020213F9A0
:10573300A3E060F70EEE70010FEC2EF8ED3FF9EAEF
:105743002EF582EB3FF583E0F50888828983E065D7
:105753000860DD8A828B83A3AA82AB838A828B83D0
:10576300E060067E007F0080D07A007B0080BC74FE
:10577300F712138D7409121369E0FEA3E08015A3D9
:10578300AA82AB838C828D83A3AC82AD83EE24FF8C
:105793001EEF34FFFFEE4F60198C828D83E0F88A91
:1057A300828B83E0F9E86960D6E9C398FA95E0FB58
:1057B30080047A007B007F010213F974F612138DC3
:1057C300EAF8EBF9740A121369E0FEA3E0FF80180C
:1057D3008C828D83E088828983F0A3A882A9838C3D
:1057E300828D83A3AC82AD838E088F09E50824FFE5
:1057F3001EE50934FFFFE508450970D47F02021353
:10580300F9C082C083851082851183E0F8A3E0F993
:10581300E84960128A828B83ECF0A3E824FF18E93D
:1058230034FFF94870F2D083D08202007F74F712FC
:10583300138DEAF8EBF98C828D83E0FEA3AC82AD85
:10584300838A828B83F0A3AA82AB8370E9E8FAE9A7
:10585300FB7F010213F902007F74F612138D7508A2
:10586300D975090778081214FA7C737D0B7A657B66
:105873000512077F74021213157F020213F9C08207
:10588300C0838A828B838001A3E070FCE582C39A84
:10589300FAE5839BFBD083D08202007FC3EB9400A5
:1058A300A2D265D0334005EAF8EB8006C3E49AF848
:1058B300E49BF9E8FAE9FB02007F53BEFBE59EA2F5
:0C58C300E650FA53C6B843BE0402007F52
:040000050000006790
:00000001FF
