:020000040800F2
:10000000E81E00203D010008310B0008AB0A000883
:100010002D0B0008F10600087D1500080000000007
:100020000000000000000000000000007110000847
:100030002907000800000000F50B000895110008D2
:100040005701000857010008570100085701000830
:100050005701000857010008570100085701000820
:100060005701000857010008570100085701000810
:100070005701000857010008570100085701000800
:1000800057010008570100085701000857010008F0
:1000900057010008570100085701000857010008E0
:1000A00057010008570100085701000857010008D0
:1000B00057010008570100085701000857010008C0
:1000C00057010008570100085701000857010008B0
:1000D0005701000857010008A9120008570100083D
:1000E000570100085701000857010008DFF810D039
:1000F00000F05EFA00480047B1260008AFF3008028
:10010000E81E0020EFF30980704780F309887047EC
:10011000EFF30880704780F30888704740BA704753
:10012000C0BA70474FF0010080F3138801480249BC
:100130000160FEE70CED00E00400FA050648804788
:1001400006480047FEE7FEE7FEE7FEE7FEE7FEE7BC
:10015000FEE7FEE7FEE7FEE7B1110008ED0000084C
:10016000D2B201E000F8012B491EFBD270470022F9
:10017000F6E710B513460A4604461946FFF7F0FFA6
:10018000204610BD421C10F8011B0029FBD1801A2B
:10019000704730B505460020034600E05B1C9342E3
:1001A00005D2EC5CC85C201A01D1002CF6D130BD20
:1001B00030B50B46014600202022012409E021FA37
:1001C00002F59D4205D303FA02F5491B04FA02F534
:1001D0002844151EA2F10102F1DC30BD2DE9F05FCB
:1001E0000546002092469B468846064681464024A6
:1001F0001BE0284641464746224600F0FAF953469E
:100200005A46C01A914110D311461846224600F0B2
:10021000E1F92D1A67EB01084F4622460120002123
:1002200000F0D8F917EB00094E41201EA4F101049B
:10023000DFDC484631462A464346BDE8F09F2DE9BB
:10024000FE4F804681EA0300C00F0C46009021F06B
:10025000004123F00045B8EB0200A94105D2404619
:10026000214690461C460B46024623F000401043B0
:1002700047D0270DC7F30A00C3F30A510290401A72
:10028000019040286BDAC3F3130040F4801B009800
:10029000924620B10023D2EB030A63EB0B0B0198CB
:1002A0005946C0F14002504600F094F906460D460A
:1002B00050465946019A00F0ACF910EB0800614134
:1002C000002487EA115284EAE7731A4340D0009A67
:1002D00062B3019A012A4FEA075215DC001B61EB59
:1002E00002014FF0004202EA0752CDE90042001C31
:1002F00041F5801132462B4600F0ACF903B0BDE861
:10030000F08F40462146F9E7001B61EB0201001C1B
:1003100041F5801300185B412018A2F5001747EB48
:10032000030140EAD570B6196D4111E06D084FEA3E
:10033000360645EAC0754FEA0752001B61EB020121
:10034000001C41F5801149084FEA30000019514165
:1003500032462B4603B0BDE8F04F00F06CB9009870
:10036000012240000023D0EB020263EBE07300980F
:1003700021464FEAE074B8EB000061EB0401E9E7C5
:1003800083F000435BE781F0004158E72DE9FE4F21
:1003900081EA030404F0004421F0004100944FF08E
:1003A000000B23F0004350EA01045ED052EA03043C
:1003B0005BD0C3F30A54C1F30A552C44A4F2F334BE
:1003C0000194A0FB0254C1F3130141F48011C3F363
:1003D000130343F4801301FB024400FB034E840A21
:1003E000970A44EA815447EA8357A4FB07680295B9
:1003F0008D0A05FB07854FEA932C04FB0C54270557
:10040000029D4FEA065847EA1637B5EB08056EEB32
:10041000070C870E920E47EA811742EA8312A7FB68
:100420000201B6EB0B0164EB00042B0D43EA0C3325
:100430005E1844EB1C50DA465146E7FB0201C5F357
:1004400013044FEA0B3343EA14534FEA0432019C7E
:1004500043EA0603A4F10C040294009CCDE900B425
:1004600000F0F8F803B0BDE8F08F00200146F9E78E
:100470002DE9F04D81EA030404F0004B21F0004522
:1004800014464FF0000A23F0004150EA050220D044
:1004900054EA01021DD0C5F30A570246C5F31303FF
:1004A000C1F31300C1F30A5640F4801543F48013DE
:1004B000A7EB0608101BD64608F2FD3873EB0500C3
:1004C00002D308F1010801E092185B41B8F1000F76
:1004D00003DA00200146BDE8F08D00204FF48011C2
:1004E000064684460EE0171B73EB050705D3121B67
:1004F00063EB050306434CEA010C49084FEA300060
:1005000092185B4150EA0107EDD152EA030012D084
:1005100082EA040083EA0501084305D0101BAB41C1
:1005200006D20122002306E000224FF0004302E041
:100530006FF0010253101AEB06004CEB085110EB60
:100540000A0041EB0B01BDE8F04D00F074B8C1F3B7
:100550000A52C1F3130140F2FF3341F480119A4271
:1005600002DA00200146704740F233439A42A2F279
:10057000334202DC524200F03CB800F02BB80000DD
:1005800030B5041E71F1000404DB4FF0004440421A
:1005900064EB0101141E73F1000405DB1C464FF0EF
:1005A0000043524263EB0403994208BF904230BDBE
:1005B000064C074D06E0E06840F0010394E80700B0
:1005C00098471034AC42F6D3FFF794FDA42A0008F4
:1005D000C42A0008202A04DB203A00FA02F1002095
:1005E00070479140C2F1200320FA03F31943904071
:1005F0007047202A04DB203A21FA02F000217047DC
:1006000021FA02F3D040C2F120029140084319467A
:100610007047202A06DBCB17203A41FA02F043EA62
:10062000E07306E041FA02F3D040C2F120029140AB
:1006300008431946704710B5141E73F1000408DA18
:10064000401C41F1000192185B411A4301D120F096
:10065000010010BD2DE9F04D92469B4611B1B1FA53
:1006600081F202E0B0FA80F220329046FFF7B2FF4A
:1006700004460F4640EA0A0041EA0B0153465A4637
:10068000084313D0114653EA010019D0C8F14002C3
:100690005046FFF7AEFF05460E46504659464246C5
:1006A000FFF798FF084305D0012004E020463946B3
:1006B000BDE8F08D0020054346EAE0762C43374341
:1006C0000A986305E40AA0EB08000022FD0A44EA48
:1006D00047540A3002D500200146E9E70105101908
:1006E0006941DDE9084500196941BDE8F04DA2E71F
:1006F00000BFFEE7F0B505460E460024AF1905E041
:1007000015F8011BA0B200F020FF0446BD42F7D34C
:10071000A0B2002100F019FF04462046002100F09D
:1007200014FF04462046F0BD7047000030B5044673
:1007300004254FF4302000F0B1F80546042D17D100
:100740000C48006940F002000A490861084644610B
:10075000006940F0400008614FF4302000F09EF83E
:1007600005460448006941F6FD71084001490861E9
:10077000284630BD0020024004200B49C96801F022
:10078000010109B101200EE00749C96801F0040127
:1007900009B1022007E00449C96801F0100109B15C
:1007A000032000E004207047002002400348006955
:1007B00040F08000014908617047000000200240BD
:1007C00001B500200099C1F309021AB1012202EB20
:1007D000912000E0880A08BD70B504460D46042645
:1007E000F00200F05BF80646042E11D109480069BA
:1007F00040F00100074908612580F00200F04EF842
:1008000006460448006941F6FE7108400149086146
:10081000304670BD0020024078B506460C460425DF
:1008200000200090E80200F039F80546042D24D19C
:100830001348006940F00100114908613480E80262
:1008400000F02CF80546042D10D1B01C0090200CAF
:1008500000990880E80200F021F805460848006980
:1008600041F6FE7108400649086106E00448006947
:1008700041F6FE71084002490861284678BD000033
:10088000002002400248034948600348486070471E
:100890002301674500200240AB89EFCD00B5024639
:1008A0000423FFF769FF034603E0FFF765FF0346F4
:1008B000521E012B01D1002AF7D102B90523184697
:1008C00000BD000010B504462948844208D101212A
:1008D000042000F0C1F90021042000F0BDF946E039
:1008E0002448844208D10121082000F0B5F90021F4
:1008F000082000F0B1F93AE01F48844208D10121F4
:10090000102000F0A9F90021102000F0A5F92EE038
:100910001A48844208D10121202000F09DF90021CD
:10092000202000F099F922E01548844208D10121E5
:10093000402000F091F90021402000F08DF916E0F0
:100940001048844208D10121802000F085F900215F
:10095000802000F081F90AE00B48844207D1012190
:10096000801500F079F90021A01500F075F910BD8F
:1009700000080140000C014000100140001401403B
:1009800000180140001C0140002001402DE9F04109
:10099000024600250026002000230024002791F8AD
:1009A00003C00CF00F0591F803C00CF0100CBCF163
:1009B000000F03D091F802C04CEA050591F800C081
:1009C000BCF1000F31D0146800202BE04FF0010C77
:1009D0000CFA00F3B1F800C00CEA03069E4220D1E5
:1009E00083004FF00F0C0CFA03F7BC4305FA03FC2D
:1009F0004CEA040491F803C0BCF1280F06D14FF073
:100A0000010C0CFA00FCC2F814C00AE091F803C013
:100A1000BCF1480F05D14FF0010C0CFA00FCC2F8F4
:100A200010C0401C0828D1D31460B1F800C0BCF13C
:100A3000FF0F34DD546800202EE000F1080C4FF069
:100A4000010808FA0CF3B1F800C00CEA03069E4254
:100A500021D183004FF00F0C0CFA03F7BC4305FAC9
:100A600003FC4CEA040491F803C0BCF1280F05D143
:100A700000F1080C08FA0CF8C2F8148091F803C0D1
:100A8000BCF1480F07D100F1080C4FF0010808FA3B
:100A90000CF8C2F81080401C0828CED35460BDE882
:100AA000F081416170470161704700BFFEE70000BF
:100AB0004AF6AA2001490860704700000030004053
:100AC00008B50121042000F0B7F803208DF80200DA
:100AD00010208DF803004001ADF80000694604487D
:100AE000FFF754FF4FF400710148FFF7DAFF08BD2C
:100AF0000008014010B50B48007828B14FF4007190
:100B00000948FFF7CEFF04E04FF400710648FFF7F5
:100B1000CAFF04480078401C00F001000149087039
:100B200010BD0000190000200008014000BFFEE7D2
:100B3000704708B54FF4E06000F048F826208DF8C3
:100B4000000000208DF801008DF8020001208DF8D2
:100B50000300684600F002F808BD000070B50021EF
:100B600000230F22C47804B3154C246804F4E06415
:100B7000C4F5E064210AC1F10403CA40447804FAD0
:100B800003F184781440214309010E4C0678A155E5
:100B9000047804F01F050124AC4005786D11AD0008
:100BA00005F1E025C5F8004109E0047804F01F05CF
:100BB0000124AC40044D0678761145F8264070BDFE
:100BC0000CED00E000E400E080E100E002490143B8
:100BD000024A1160704700000000FA050CED00E0C9
:100BE000024A0A400243024B1A60704780FFFF1F0F
:100BF00008ED00E07047000029B1064AD2690243BF
:100C0000044BDA6104E0034AD2698243014BDA61A2
:100C1000704700000010024029B1064A12690243E1
:100C2000044B1A6104E0034A12698243014B1A61C2
:100C3000704700000010024029B1064A9269024341
:100C4000044B9A6104E0034A92698243014B9A6122
:100C5000704700000010024029B1064AD2680243E2
:100C6000044BDA6004E0034AD2688243014BDA6045
:100C700070470000001002400F48006840F001007B
:100C80000D490860084640680C4908400A49486018
:100C9000084600680A490840074908600846006895
:100CA00020F4802008600846406820F4FE00486078
:100CB0004FF41F0088607047001002400000FFF8EA
:100CC000FFFFF6FE30B500210022002400232D4D49
:100CD0006D6805F00C0121B1042905D0082923D144
:100CE00005E0294D056022E0274D05601FE0254DF8
:100CF0006D6805F47012234D6D6805F4803402258B
:100D000005EB92421CB9214D554305600BE01D4D8A
:100D10006D6805F400351DB11C4D5543056002E0BA
:100D2000194D5543056002E0174D056000BF00BF37
:100D3000144D6D6805F0F0010909154D6B5C0568EF
:100D4000DD4045600F4D6D6805F4E061090A104D06
:100D50006B5C4568DD4085600A4D6D6805F4605147
:100D6000C90A0B4D6B5C4568DD40C560054D6D687B
:100D700005F44041890B074D6B5CC568B5FBF3F585
:100D8000056130BD0010024000127A0000093D00EC
:100D90001C0000202C00002070B505460C460FE01A
:100DA00042F21070B4FBF0F100FB114008B9FFF7FC
:100DB0007FFE284600F064F9012801D1002070BDB3
:100DC000201EA4F10104EBD1401EF8E72DE9F84FF5
:100DD0000446884691460020C8F800004946684607
:100DE000FFF7DAFF18B14FF0FF30BDE8F88F9DF83C
:100DF0000000182815D006DC01280BD002280BD0E3
:100E000004284AD10BE041281DD061281CD0FF28BE
:100E100043D11BE0802643E04FF4806640E0002091
:100E2000E3E749466846FFF7B7FF48B99DF8000079
:100E3000182805D14FF0FF30C8F800000020D4E793
:100E40004FF0FF30D1E700BF0120CEE79DF8000052
:100E50002070012509E060194946FFF79DFF10B198
:100E60004FF0FF30C1E7681C85B2062DF3DB207818
:100E7000FF280FD16078FD280CD1A07850B9E07818
:100E8000FF2807D12079FB2804D1607910B901200F
:100E9000314908704FF0FF30A7E74FF0FF30A4E76B
:100EA00000BF9DF8000020704FF0000A01271EE0EF
:100EB000E0194946FFF770FF10B14FF0FF3094E79B
:100EC00025480078012811D1BAF1010F06D1E05D63
:100ED000FF2803D17F1E4FF0000A07E0E05DFF28E6
:100EE00002D14FF0010A01E04FF0000A7F1C1B48BD
:100EF000007808B1052000E004203044B842D7DC77
:100F00006178A07880F0FF00814202D04FF0FF307E
:100F10006BE71248007838B1B11CE01CFFF7EAFB20
:100F2000A0B14FF0FF3060E70325002103E0605DD2
:100F30000144681C85B2F01C8542F8DBCAB2605DD2
:100F4000824202D04FF0FF304FE700BFC8F8006088
:100F500001F096FC002048E71B0000201A0000204A
:100F60002DE9F0410446394F206839490840B0F175
:100F7000005F05D1374884421AD178884D2817D0B0
:100F8000A2203880FF20788050223049324801F07A
:100F9000C7FA00BF3148006800F4E06030490843F8
:100FA000001D2E490860BFF34F8F00BF00BFFEE752
:100FB0004FF400712B48FFF776FD262000F01F024A
:100FC00001219140284A430942F8231000BF002024
:100FD0004FF0E021086188610021244800F089F980
:100FE000002240F22551214800F015FA40F2255127
:100FF0001E4800F06FF91D4800F088F900214FF4F9
:101000000030FFF7F9FD1748FFF75CFC00210420D2
:10101000FFF712FE1348FFF755FC00210420FFF7ED
:101020000BFE00210120FFF707FEFFF725FE666893
:1010300035462068FFF769F8002080F3148800BF68
:101040002068FFF768F8A847BDE8F081980D0020F8
:101050000000FE2F0040000800FE00080CED00E03C
:101060000000FA050008014080E100E00044004073
:10107000704710B50446204600F008F8002010BD67
:1010800010B50446204601F005FC10BD10B504461D
:101090002146054800F055FA00BF8021024800F0C3
:1010A00083F90028F9D010BD0044004010B500F0CD
:1010B00001F810BD0CB50020019000903348006885
:1010C00040F480303149086000BF3048006800F4C7
:1010D000003000900198401C0190009818B90198C8
:1010E000B0F5A06FF1D12948006800F4003010B1CC
:1010F0000120009001E0002000900098012843D1D9
:101100002348006840F01000214908600846006844
:1011100020F0030008600846006840F00200086004
:101120001A484068194948600846406848600846BF
:10113000406840F4806048600846406820F47C10B5
:1011400048600846406840F4E81048600846006877
:1011500040F08070086000BF0C48006800F000702C
:101160000028F9D00948406820F00300074948608A
:101170000846406840F00200486000BF03484068ED
:1011800000F00C000828F9D10CBD0000001002404E
:10119000002002404FF0FF3000F01F02012191407B
:1011A000024A430942F8231000BF704780E200E082
:1011B00010B51348006840F0010011490860084666
:1011C0004068104908400E494860084600680E49CA
:1011D00008400B4908600846006820F48020086039
:1011E0000846406820F4FE0048604FF41F00886005
:1011F000FFF75CFF4FF000600449086010BD00007D
:10120000001002400000FFF8FFFFF6FE08ED00E0CE
:1012100000B585B001210420FFF70EFD012148042F
:10122000FFF7EAFC0820ADF8100003208DF812004B
:1012300048208DF8130004A91948FFF7A7FB0420E4
:10124000ADF8100003208DF8120018208DF813005F
:1012500004A91348FFF79AFB124800F057F84FF41F
:10126000164000900020ADF80400ADF80600ADF87F
:101270000800ADF80C000C20ADF80A0069460948DA
:1012800000F0EEF80121074800F033F8FFF751FCB9
:10129000012240F22551034800F0BDF805B000BD21
:1012A000000801400044004010B540F225510848B4
:1012B00000F087F858B1064800F03EF9C4B2204665
:1012C00001F018FB40F22551014800F003F810BD71
:1012D0000044004010B50022002340F66A14A142E9
:1012E00000D100BF0A1201249440A3B2DC43048061
:1012F00010BD21B1828942F40052828104E08289CA
:101300004DF6FF731A4082817047000010B5044605
:101310002048844209D101218803FFF79DFC002168
:101320004FF48040FFF798FC32E01B48844209D11B
:1013300001214804FFF770FC00214FF40030FFF753
:101340006BFC25E01548844209D101218804FFF790
:1013500063FC00214FF48020FFF75EFC18E010488A
:10136000844209D10121C804FFF756FC00214FF443
:101370000020FFF751FC0BE00A48844208D101210C
:101380000805FFF749FC00214FF48010FFF744FCEB
:1013900010BD0000003801400044004000480040FB
:1013A000004C00400050004002460020B1F5007F94
:1013B00000D100BF13880B400BB1012000E00020DA
:1013C000704770B50246002400230025002040F637
:1013D0006A16B14200D100BFC1F3421501F01F03EC
:1013E000012606FA03F3012D02D19689334006E067
:1013F000022D02D1168A334001E0968A33400C1246
:10140000012606FA04F41688344013B10CB1012009
:1014100000E0002070BDF0B5034600240026002542
:10142000002040F66A17B94200D100BF1846C1F348
:10143000421401F01F06012707FA06F5012C01D11D
:101440000C3004E0022C01D1103000E014301AB14D
:1014500007682F43076002E00768AF430760F0BDED
:101460002DE9F04786B005460E460024A24600BF8F
:10147000A1460027B08900B100BF2F462C8A4CF648
:10148000FF700440F08804432C82AC894EF6F310C0
:101490000440B08831890843718908430443AC8112
:1014A000AC8A4FF6FF400440B0890443AC8201A8E7
:1014B000FFF708FC1F48874202D1DDF810A001E0C9
:1014C000DDF80CA0A88900F4004040B10AEBCA0086
:1014D00000EB0A1031684900B0FBF1F807E00AEBB5
:1014E000CA0000EB0A1031688900B0FBF1F86420F3
:1014F000B8FBF0F004012009642101FB1089A889E0
:1015000000F4004040B1322000EBC900B0FBF1F024
:1015100000F00700044308E0322000EB09106421CA
:10152000B0FBF1F000F00F0004432C8106B0BDE8E1
:10153000F08700000038014001468888C0F30800A9
:101540007047C1F308028280704710B503460C460D
:10155000194644F4807200BF4900520002F48070C2
:1015600000B1491C01F4803010B141F2210041402A
:1015700002F480300028EFD088B210BD00BFFEE733
:101580002DE9F04FADF2444D07464FF000099C4E57
:10159000002009900790069000BF4FF0000800203F
:1015A00008900B9700BF4FF4C0220AA910A8FFF7BC
:1015B0000DFC10B1012876D1D2E0002007900A98E6
:1015C000B0F1FF3F01D080B909E00620FFF751FDDF
:1015D00000208C4908700DF2444DBDE8F08F0620C4
:1015E000FFF747FD01200890B8E09DF8410008F0A2
:1015F000FF01884203D01520FFF73BFDADE0B8F1B5
:10160000000F6DD19DF84300002862D000250DF138
:10161000430405E014F8012B28466D1C7A490A544E
:10162000207808B1FF2DF5DB002228466D1C764995
:101630000A540025641C05E014F8012B28466D1C93
:101640000CA90A542078202801D0102DF4DB0022A8
:1016500028466D1C0CA90A5405A90CA801F07AF9BA
:1016600081466A4881450AD91820FFF702FD1820F3
:10167000FFF7FFFC002063490870401EABE74FF402
:10168000806003904FF0000B002002900420019036
:1016900005A90CA801F05EF981464846FFF790F8CD
:1016A000029000BF08E066E0039901FB0B60FFF7C2
:1016B0003DF801900BF1010B0298834502D201988D
:1016C0000428F1D00620FFF7D4FC4320FFF7D1FC1B
:1016D0003FE00620FFF7CDFC0120089009903DE097
:1016E000002005E00DF143010A5C0B990A54401CEF
:1016F0000A998842F6D3BA4605A90CA801F02AF93E
:1017000081464FF0000B19E03046DAF80010FFF781
:1017100083F83068DAF8001088420AD01820FFF702
:10172000A8FC1820FFF7A5FC002036490870801E91
:1017300051E7361D0AF1040A0BF1040B0A988345A0
:1017400003D22F484844B042DED80620FFF791FC70
:1017500000BF08F101080120069000BF00BF24E08F
:101760001820FFF786FC1820FFF783FC002025498E
:101770000870C01E2FE70698002802DD0798401C5D
:1017800007900798062809DD1820FFF772FC18203B
:10179000FFF76FFC00201B4908701CE74320FFF790
:1017A00068FC01201A49087000BF00BF0898002893
:1017B0003FF4F9AE00BF00BF099800B107E015483B
:1017C000007800283FF4E9AEFFF772F9E5E600BFC4
:1017D00000200C4908701048049004E00D4800787F
:1017E00008B1FFF765F90498411E04910028F5D16E
:1017F0000CAA054909A001F011F84846EBE60000E3
:10180000004000081B0000209808002001C00700CD
:101810001A00002018000020AAB965000A46696C69
:10182000652025732028257320627974657329202B
:10183000000000007CB50C001D461646014601D094
:10184000601E00E00020CDE90010064B6A462946E4
:10185000304600F0F7F8002C02D0009A00211170F9
:101860007CBD00004B21000802E008C8121F08C11F
:10187000002AFAD170477047002001E001C1121F11
:10188000002AFBD170472DE9F04105460E460024A1
:101890003046FEF795FF07464FF0040800BF07E00B
:1018A0004FF4806101FB0450FEF740FF8046641C4A
:1018B000BC4202D2B8F1040FF2D0BDE8F0810000C2
:1018C0002DE9FF5F82B00021DDE90430020DDDF873
:1018D00040B0034318D044F61050A2F2FF32424306
:1018E0001514119801281FD0A5EB0B00401C5FEACE
:1018F000000A4FF000064E4FDFF83891B0465046D0
:1019000015D5CAF1000413E0119801244AA3012857
:1019100001D16FEA0B010298119AC0E90031C0E9C8
:10192000024206B0BDE8F09FCBF10000DFE70446BD
:101930000021404A491842EB0450CDE9001012E062
:10194000E00707D032463B4640464946FEF71EFDBB
:101950008046894632463B4610461946FEF716FD3C
:1019600006460F466410002CEAD1DDE90401DDE9EA
:101970000023BAF1000F06DAFEF708FD42464B4697
:10198000FEF704FD05E0FEF773FD42464B46FEF709
:101990006FFD04460E460022284BFEF7F1FD03D8EA
:1019A0004FF0FF30014607E00022254B204631462C
:1019B000FEF745FCFEF7CBFD102409E0002C0ADB06
:1019C0000A220023FEF70AFC039B30321A55641EDC
:1019D00050EA0102F2D1641C039AC4F111031444C9
:1019E000119A012A03D0012208430DD10AE00843CD
:1019F00004D000204FF0110B119072E7A3EB0B0500
:101A00006D1E0DE05B4504DD4FF0000205F10105A0
:101A100004E003DA4FF00002A5F10105002AECD042
:101A200002981199C0E90231C0E9004579E7000048
:101A3000000014400000F03F300000000000F043C0
:101A40000000E03F2DE9FF4F95B09A4688460646D4
:101A50000025EEE1252877D100242746F94A012107
:101A6000039400E0044316F8013F203B01FA03F021
:101A70001042F7D130782A2811D06FF02F03307838
:101A8000A0F13002092A16D8039A44F0020402EBAE
:101A9000820203EB42021044761C0390EFE758F8F1
:101AA000042B0392002A03DA504244F400540390BA
:101AB00044F00204761C30782E2816D116F8010F57
:101AC00044F004042A280DD06FF02F023078A0F1E2
:101AD0003003092B09D807EB870302EB4303C71830
:101AE000761CF3E758F8047B761C30786C280FD00E
:101AF00006DC4C2817D068280DD06A2814D104E0E1
:101B0000742810D07A280FD10DE044F400140AE0B4
:101B100044F4801401E044F440147278824202D10B
:101B200004F58014761C761C307866280BD013DC04
:101B3000582877D009DC002875D04528F6D04628EB
:101B4000F4D047281AD193E118E0632835D06428EF
:101B500079D0652812D18BE1702873D008DC672812
:101B6000F1D069286FD06E280DD06F2806D1ACE077
:101B700073282CD0752874D0782853D052461799E2
:101B800090476D1C54E1C4F30250022809D0032889
:101B90000DD0D8F8001004280DD00D6008F104080D
:101BA00046E1D8F80010EA17C1E90052F6E7D8F884
:101BB00000100D80F2E70D70F0E718F8041B8DF8A7
:101BC000001000208DF80100EB46012003E058F8DA
:101BD00004BB4FF0FF3061074FF0000102D40DE06D
:101BE00009F101018946B9420FDA8145F8DB1BF89A
:101BF00009100029F4D108E009F101018946814268
:101C0000FADB1BF809100029F6D103985346A0EB24
:101C1000090721463846179A00F080FA284400EB5D
:101C2000090507E044E008E10DE01BF8010B52460E
:101C300017999047B9F10109F7D253462146384622
:101C4000179AF2E039E00A21C4F302524FF0000B78
:101C50000091022A06D058F8040BC117032A09D0B4
:101C60000AE023E008F1070020F00702F2E8020191
:101C7000904605E000B2C117042A01D140B2C11755
:101C8000002906DA0A460021404261EB02012D22BA
:101C900002E0220504D52B228DF80420012203E066
:101CA000E20701D02022F7E7914657E00A2100E041
:101CB00010214FF0000B00910BE010214FF0000BB2
:101CC00044F004040827009103E008204FF0000BC3
:101CD0000090C4F30252022A05D058F8040B0021E8
:101CE000032A08D008E008F1070020F00702F2E814
:101CF0000201904603E080B2042A00D1C0B24FF046
:101D0000000922072AD53278702A07D0DDF800C0F2
:101D10008CF0100C5CEA0B0C05D00EE040228DF824
:101D20000420012208E050EA010306D030238DF898
:101D300004308DF8052002229146009B83F00803B1
:101D400053EA0B030AD150EA010201D1620705D51B
:101D500030228DF804204FF001097F1E3278582A76
:101D600004D039A20C920CAA02920BE03BA2F9E734
:101D70005B46009AFEF732FA0C9B9B5C029A521E5D
:101D80000292137050EA0102F2D1029804A9081AD3
:101D900000F1200B600702D524F4803400E0012715
:101DA0005F4502DDA7EB0B0000E0002000EB0B011C
:101DB000009003984944401A0390E00306D4534628
:101DC0002146179A039800F0A9F90544002706E078
:101DD00001A85246C05D179990476D1C7F1C4F4566
:101DE000F6DBE0030CD553462146179A039800F022
:101DF00095F9054404E030205246179990476D1C30
:101E00000099481E00900029F5DC08E0029802992C
:101E100052460078491C0291179990476D1CBBF1FE
:101E20000001ABF1010BF1DC5BE100F065F9054469
:101E3000761C307800287FF40DAE19B02846BDE836
:101E4000F08F000009280100303132333435363745
:101E500038396162636465660000000030313233F6
:101E60003435363738394142434445460000000096
:101E7000600700D4062708F1070020F00700F0E80B
:101E80000223804603F0004C5FEA0C0001D097A0CB
:101E900009E0200501D596A005E0E00701D095A056
:101EA00001E0AFF24C001390307823F00043652836
:101EB0000CD006DC452809D046281DD047287FD104
:101EC0003BE0662818D067287AD136E00021112F30
:101ED00001DB112000E0781CCDE9000104A90CA869
:101EE000FFF7EEFCDDE90D010C9A4FF0000B07F156
:101EF0000109109200914EE04FF000400097CDE9AB
:101F0000011004A90CA8FFF7DBFCDDE90D020C9B16
:101F10000F994FF0000B91461093009211B9791C64
:101F200000EB0109B7EB090003D4C0F1FF3B07F157
:101F30000109A9EB0700019042E0012F00DA012717
:101F40000021112F01DD112000E03846CDE900010C
:101F500004A90CA8FFF7B4FCDDE90D010C9A00916F
:101F60004FF0000BB946109221070FD4009A4A4552
:101F700003DA914601E0A9F10109B9F1010F05DD8C
:101F8000109AA9F10101515C3029F4D0B84202DA6B
:101F900010F1040F03DA0121CDE9011010E000284F
:101FA00003DC8344A9EB000102E0411C494500DD4C
:101FB0008946A0EB0B00401C01904FF000400290BE
:101FC000200705D40198484502DB4FF0FF3001900F
:101FD00000208DF84B0002980DF14B07B0F1004F37
:101FE00025D002200C902B200D90029800280CDAAE
:101FF000404202902D200D9007E00A210298FEF742
:10200000D7F83031029007F8011D0C99481E0C904A
:102010000029F2DC02980028EFD1791E0D98087093
:10202000307800F0200040F0450007F8020D11A8BC
:10203000C01BC01D02901398007800B1012000EB76
:102040000901019801EBE071029801440398401ADC
:10205000401E0390E00306D453462146179A039886
:1020600000F05CF805441398007818B152461799AF
:1020700090476D1CE00323D553462146179A0398D9
:1020800000F04CF805441BE0BBF1000F07DB0098A3
:10209000584504DD1098179910F80B0001E01799C6
:1020A00030205246904701980BF1010B401E05F17C
:1020B0000105019004D12E205246179990476D1CBE
:1020C000B9F10001A9F10109DEDC05E017F8010B07
:1020D0005246179990476D1C0299481E029000299C
:1020E000F4DC53462146179A03989EE62D00000023
:1020F0002B000000200000002DE9F04104460025DF
:102100001E461746880404D405E039462020B0470F
:102110006D1C641EF9D52846BDE8F0812DE9F0411B
:10212000044600251E469046C80301D5302700E02E
:102130002027880404D505E041463846B0476D1C89
:10214000641EF9D52846BDE8F0814A68002A06D009
:102150000A68531C0B6010704868401E4860704746
:102160000649096821B9064908600449086004E085
:1021700003490968886002490860704740000020F0
:10218000440000202DE9F04106460C46022E17D1EE
:102190006068FDF7F7FF07463A4611A16068FDF752
:1021A000F8FF20B910A000F039FBBDE8F0816068AD
:1021B00020600BA060602146304600F03BF9F4E758
:1021C0000EA000F02BFB0F48056804E00EA0E968A4
:1021D00000F024FBAD68002DF8D100BFE5E700005A
:1021E00068656C700000000041726520796F752091
:1021F0006B696464696E673F0A000000557361672C
:10220000653A0A004000002020202025730A0000C3
:102210002DE9F04106460C462F4D022E05D0032E27
:1022200003D0206800F032FA53E006222BA0616848
:10223000FDF7AFFF002828D1A2202880FF2068806A
:102240000021012000F0B0F8FEF71CFB25A000F0F3
:10225000E5FA2A48FFF794F9071E0CDD4D20688047
:10226000394627A000F0DAFAFEF7A0FA0021012093
:1022700000F09AF82DE03A46394628A000F0CEFA50
:10228000FEF794FAFDF74EFF23E004222AA06168CE
:10229000FDF77FFFB8B92AA000F0C0FA3C202880E3
:1022A0000021012000F080F800BF2E48006800F4F3
:1022B000E0602D490843001D2A490860BFF34F8F95
:1022C00000BF00BFFEE729A000F0A8FA206800F0D8
:1022D000DDF9BDE8F0810000980D002075706461A3
:1022E0007465000050726F6772616D6D696E672072
:1022F00053746172742E2E2E0D0A0000E80D00201A
:102300004F4B212050726F6772616D6D656420259F
:10231000642062797465730A0000000045525225FA
:10232000643A2050726F6772616D6D656420256438
:102330002062797465730A00657869740000000092
:102340000945786974204941502C20656E74657286
:10235000206170702070726F6772616D2E2E2E0A70
:10236000000000000CED00E00000FA0509434D44B8
:10237000204572726F72210A0000000070B5044699
:102380000D4603A000F04AFAFDF7CCFE70BD000038
:1023900053797374656D2072657365742E2E2E2EBD
:1023A0002E2E2E0A0000000070B504460D46502265
:1023B0000349044800F0B4F803A000F02FFA70BD00
:1023C000980D002000FE000809506172616D65746F
:1023D0006572205361766564210A000070B5044679
:1023E0000D46012C02D102A000F018FA70BD0000C9
:1023F0004F4B0D0A0000000010B5ADF5027D0446FC
:1024000012E04FF4007101A8FDF7B1FE6B4601AA7E
:1024100081A9204600F0A6F98198002803DD01A9D2
:10242000819800F007F8009C20780028E9D10DF58C
:10243000027D10BD70B506460C46206800F038F8E5
:1024400005463DB906A0216800F0E8F90BA000F0B0
:10245000E5F970BD214630466A68904700BFF8E74D
:102460000943616E6E6F742066696E6420636F6DE0
:102470006D616E6420272573270A000009546F20C0
:10248000696E717569727920617661696C61626CDF
:102490006520636F6D6D616E642C20706C65617377
:1024A0006520696E707574202768656C70270A0056
:1024B00070B50546094804680CE02846FDF762FE41
:1024C0000646324629462068FDF763FE08B92046D5
:1024D00070BDA468002CF0D10020F9E74000002076
:1024E00010B50346B3F1006F0AD30C48834207D2FC
:1024F0009818B0F1006F03D39818084CA04201D38C
:10250000002010BD002004E01C5C01F8014B441CBD
:10251000A0B29042F8DB0120F3E70000FFFF0F08B4
:102520002DE9F041044688461546B4F1006F0AD300
:102530001148844207D26019B0F1006F03D36019CB
:102540000D49884202D30020BDE8F081FEF79AF9D8
:1025500029462046FFF797F94746002606E037F858
:10256000021BA019FEF738F9B01C86B2AE42F6DBAA
:10257000FEF71CF90120E7E7FFFF0F0838B5002040
:10258000009000240CE02046641C0949884202D9CE
:102590000024FEF7AFFA0748007808B1FEF788FA82
:1025A000684600F077F90028EDD09DF8000038BDAE
:1025B00040E20100180000202DE9F041064688465F
:1025C0000024012739023046FDF7D1FD00BFFFF797
:1025D000D5FF05460A2D25D007DC25B3062D0ED0E4
:1025E000072D0DD0082D28D108E00D2D19D0182D5C
:1025F00021D07E2D05D07F2D1FD103E000BF00BF6D
:1026000000BF00BF54B1601EC4B2082000F02AF918
:10261000202000F027F9082000F024F90020305590
:1026200015E000BF00BF0D2000F01CF90A2000F0EB
:1026300019F900240CE0002409E0FF2C06DC3555D4
:1026400017B1284600F00EF9601CC4B200BFBEE707
:10265000BDE8F08100B50848FFF782FD0748FFF7A5
:102660007FFD0748FFF77CFD0648FFF779FD064828
:10267000FFF776FD002000BD7800002088000020D4
:1026800058000020680000204800002010B50446D3
:1026900001A000F0C3F810BD4552524F522120490D
:1026A0006E76616C696420434D44210A000000008D
:1026B000184C00214FF00060FEF792FA164880682F
:1026C00040F6FF71884204D0012014490870FEF7DB
:1026D000EFF9FEF7F5F950220E491148FFF700FF18
:1026E00020883C2805D160884D2802D10D48FEF78E
:1026F00037FCFEF78DFDFFF7ADFF0BA000F08EF865
:1027000006E000F00DF90548007808B1FEF7D0F9B1
:10271000F7E70000980D002000300040180000206E
:1027200000FE00080040000809456E7465722049EB
:102730004150206D6F64652C20696E707574202285
:10274000494150207570646174652220746F207552
:102750007064617465206669726D77617265210AC3
:10276000000000002DE9F0410E4614461F460025EA
:1027700000233FE03B2A04D1022B02D0032B00D0E0
:102780003BE0032B04D1DFF890C09CF800102EE052
:10279000022B08D1222A04D100218C4680F800C0E7
:1027A00025E0022123E0202A01D0092A05D14FF09B
:1027B000000C80F800C0002119E0222A09D1022172
:1027C0004FF0000C00F801CBAC466D1C44F82C0017
:1027D0000DE05C2A05D1DFF840C08CF80030032101
:1027E00005E01BB9AC466D1C44F82C0001210B46DA
:1027F000401C00BF0278002ABCD100BF002144F871
:10280000251006B1356001783B2902D1002100F87E
:10281000011B3860BDE8F0813C0000200FB438B5E2
:1028200005A800904FF480610D48009B049AFFF7C3
:1028300001F8054600200090094C09E020780A289C
:1028400002D10D2000F00EF8207800F00BF8641C87
:1028500020780028F2D1284638BC5DF814FB00002F
:102860009709002000BF0549098801F0800100296F
:10287000F9D00249091D088070470000004400405B
:1028800002480088024908807047000014000020B8
:102890001600002070B50246012413480188134831
:1028A00003888B4206DD1248405C1070481C0E4DB8
:1028B000288017E08B4213DAB1F5006F03DA0C4879
:1028C000405C107002E00A4800781070481CC51780
:1028D00000EB5555ED12A0EBC525034E358001E008
:1028E000002070BD2046FCE71600002014000020E8
:1028F0009800002001460848084A12888154074A77
:102900001288501CC21700EB5252D212A0EBC22206
:10291000024B1A807047000098000020140000202D
:1029200000BF084908A0FFF779FF4FF480710848FD
:10293000FFF742FE064800780028F2D00448FFF76F
:102940005BFDEEE7300000202573203E20000000F4
:10295000E8150020F0B503460A4600240A270025A2
:10296000A4460020106039E025B9302902D14FF08B
:10297000010C31E0BCF1000F09D0012D07D17829FD
:1029800001D1102728E06F2901D1082724E0302940
:1029900005DB392903DCA1F13000C6B213E061295F
:1029A00005DB7A2903DCA1F15700C6B20BE041290F
:1029B00005DB5A2903DCA1F13700C6B203E003208E
:1029C00010600020F0BDBE4203DB04201060002038
:1029D000F8E77C43344400BF5B1C6D1C1978002968
:1029E000C2D12046EEE7000041542B4941503D49F9
:1029F00041500000494150000941542B4941503D8C
:102A0000494150200909092D2D456E7465722049F0
:102A10004150204D6F64650009494150203C636F6F
:102A20006D6D616E643E200909092D2D41505020C5
:102A30005570646174650000736176650000000084
:102A40000968656C702020090909092D2D636F6DD7
:102A50006D616E642068656C7000000068656C7064
:102A60000000000009736176652020090909092D1D
:102A70002D536176652073797374656D2070617272
:102A8000616D657465720000097265736574200973
:102A90000909092D2D53797374656D20726573656D
:102AA00074000000C42A0008000000209800000004
:102AB000681800085C2B000898000020501E0000D9
:102AC000781800080000000000000000000000006E
:102AD00000000000000000000000000000000000F6
:102AE00000000000010203040102030406070809B4
:102AF0000204060856312E320000000000000000DB
:102B00000000000000000000000000005C2A000837
:102B10008521000800000000402A0008382A00082B
:102B2000A923000800000000642A00089C2A00086D
:102B30007D23000800000000882A0008F42900080E
:102B40001122000800000000182A0008E8290008E7
:0C2B5000DD23000800000000F829000848
:04000005080000ED02
:00000001FF
