:020000040000FA
:0300000002006F8C
:0300130002169939
:10001B000216E300000080FBE490030178AD790346
:10002B008002F0A3D8FCD9FA7AAD7B0590009F78BB
:10003B007579088015E493A3AD82AE838A828B8396
:10004B00F0A3AA82AB838D828E83D8E9D9E7758220
:10005B00A1758358740012008175821E758300741C
:10006B000012008175D0007581BF751001751103E9
:10007B00759F00020023C09FF59FE473D09F22D091
:10008B0083D082C09FE493C0E0740193C0E07402FC
:10009B0093F59F227368656C6C203E00456E74650A
:1000AB007265642074686520626F6F746C6F616435
:1000BB0065722070726F6772616D210D0A0000000E
:1000CB0016471B5B324B0D2573000D0A0925730078
:1000DB000D0A2573257300000000000000000000CE
:1000EB000000000000000000000000000000000005
:1000FB0000000000000000000000000000000000F5
:10010B0000000000000000000000000000000000E4
:10011B0000000000000000000000000000000000D4
:10012B0000000000000000000000000000000000C4
:10013B0000000000000000000000000000000000B4
:10014B0000000000000000000000000000000000A4
:10015B000000000000000000000000000000000094
:10016B000000000000000000000000000000000084
:10017B000000000000000000000000000000000074
:10018B000000000000000000000000000000000064
:10019B000000000000000000000000000000000D47
:1001AB000A096E6F207265706C793A25730D0A001F
:1001BB001B5B324A1B5B25643B2564482573000D92
:1001CB000A282563292D2D2D2D2D2D000D0A0D0A05
:1001DB002573000D0A0925730D0A0056322E302E99
:1001EB0034000D0A000D0A2573005E430D0A2573BA
:1001FB000008000820080063616E63656C2074685A
:10020B006973206F7065726174696F6E0D0A0025DA
:10021B0073205B592F4E5D200068656C700073680E
:10022B00656C6C2D76657273696F6E00636C6561BE
:10023B00720064656275672D696E666F00003162CE
:10024B0053C4F5A697B988DBEA7D4C1F2E43722168
:10025B001087B6E5D4FACB98A93E0F5C6D86B7E450
:10026B00D5427320113F0E5D6CFBCA99A8C5F4A74C
:10027B0096013063527C4D1E2FB889DAEB3D0C5F33
:10028B006EF9C89BAA84B5E6D7407122137E4F1C2A
:10029B002DBA8BD8E9C7F6A59403326150BB8AD926
:1002AB00E87F4E1D2C02336051C6F7A495F8C99A0E
:1002BB00AB3C0D5E6F4170231285B4E7D67A4B18B9
:1002CB0029BE8FDCEDC3F2A1900736655439085B6C
:1002DB006AFDCC9FAE80B1E2D344752617FCCD9E50
:1002EB00AF38095A6B4574271681B0E3D2BF8EDD48
:1002FB00EC7B4A192806376455C2F3A09147762543
:10030B001483B2E1D0FECF9CAD3A0B58690435662D
:10031B0057C0F1A293BD8CDFEE79481B2AC1F0A325
:10032B00920534675678491A2BBC8DDEEF82B3E009
:10033B00D1467724153B0A5968FFCE9DAC005EBCB5
:10034B00E2613FDD83C29C7E20A3FD1F419DC32143
:10035B007FFCA2401E5F01E3BD3E6082DC237D9FDC
:10036B00C1421CFEA0E1BF5D0380DE3C62BEE00229
:10037B005CDF81633D7C22C09E1D43A1FF4618FAC2
:10038B00A427799BC584DA3866E5BB5907DB8567FB
:10039B0039BAE406581947A5FB7826C49A653BD9A8
:1003AB0087045AB8E6A7F91B45C6987A24F8A644E1
:1003BB001A99C7257B3A6486D85B05E7B98CD2308E
:1003CB006EEDB3510F4E10F2AC2F7193CD114FADAB
:1003DB00F3702ECC92D38D6F31B2EC0E50AFF11374
:1003EB004DCE90722C6D33D18F0C52B0EE326C8E91
:1003FB00D0530DEFB1F0AE4C1291CF2D73CA947652
:10040B0028ABF517490856B4EA6937D58B5709EB72
:10041B00B536688AD495CB2977F4AA4816E9B7552F
:10042B000B88D6346A2B7597C94A14F6A8742AC858
:10043B0096154BA9F7B6E80A54D7896B357E20235E
:10044B002000000000000000000000000000000081
:10045B000000000000000000000000000000000091
:10046B000000000000000000000000000000000D74
:10047B000A09636C6F736520646562756720696E2A
:10048B00666F726D6174696F6E2073747265616DE6
:10049B000D0A0D0A000D0A09676574206465627503
:1004AB006720696E666F726D6174696F6E0D0A0DF0
:1004BB000A000D0A20205F5F5F5F5F202020202055
:1004CB002020202020202020202020202020202021
:1004DB002020205F5F0D0A202F205F5F5F5F5C2075
:1004EB002020202020202020202020202020202001
:1004FB0020202020202F5C205C0D0A2F5C205C5FCD
:10050B005F5F2F2020205F5F5F5F20205F5F5F5F5B
:10051B0020205F5F5F5F20205F5C5F5C205C2020A2
:10052B002020205F5F5F5F0D0A5C205C205C202039
:10053B002020202F205F5F205C2F205F5F205C2F0F
:10054B00205F5F5F5C2F205F5F205C205C202020A2
:10055B002F205F5F205C0D0A205C205C205C5F5FBE
:10056B005F4C5C205C4C5C205C205C2F5C205C5FF7
:10057B005F5F5F205C205C4C5C205C205C5F4C5CB4
:10058B0020205F5F5F4C0D0A20205C205C5F5F5F6B
:10059B005F5F5F5C5F5F5F5F2F5C5F5C205C5F5CDE
:1005AB005F5F5F5F2F5C5F5F5F5F2F5C5F5F5F5FB6
:1005BB005C5F5F5F5F2F0D0A2020205C2F5F5F5F0A
:1005CB005F5F5F2F5F5F5F2F5C2F5F2F5C2F5F2F56
:1005DB005F5F5F2F5C2F5F5F5F2F5C2F5F5F5F5FE6
:1005EB002F5F5F5F2F0D0A20202020434F50595261
:1005FB00494748542863293A476F6F644D6F726EB1
:10060B00696E670909323031392F30360D0A0D0A00
:10061B000001000000FFFFFFFF0A000000FFFFFFCB
:10062B0003FFFF1FFC0000E003FFFFE0FF00001FC4
:10063B0000FF00FFFF00FF000000FFFFFFFF0000B7
:10064B000021436587000000FC4000000000000013
:10065B00002243CDABF0FFFFFF2043CDAB2143CDB9
:10066B00AB000000000000000000000000000000D4
:10067B00000000000000000000000000000000006F
:10068B00000000000000000000000000000000005F
:10069B00000000000000000000000000000000004F
:1006AB00000000000000000000000000000000003F
:1006BB00000000000000000000000000000000002F
:1006CB00000000000000000000000000000000001F
:1006DB00000000000000000000000000000000000F
:1006EB0000000000000000000000000000000000FF
:1006FB0000000000000000000000000000000000EF
:10070B0000000000000000000000000000000000DE
:10071B0000000000000000000000000000000000CE
:10072B0000000000000000000000000000000000BE
:10073B0000000000000000000000000000000000AE
:10074B00000000000000000000000000000000009E
:10075B00000000000000000000000000000000008E
:10076B000000000040000096450000164600009671
:10077B004600009647000061480000E04100000081
:10078B0040000080C3284E554C4C29003031323389
:10079B003435363738394142434445460000803FB3
:1007AB00000020410000C84200007A4400401C4673
:1007BB000050C347002474490100B0423BAAB83F24
:1007CB000000003F8C906339AA0CA33A00941E3CA6
:1007DB008042633DCFFE753E1572313F0000803F76
:1007EB00F304353F8096184B000080BF2292D43E15
:1007FB00DD9B2A3F04000040FFFF7F7FFFFF7FFF51
:10080B00010080341872313F12008A5458001200D4
:10081B008AFC160012008A5A170012008AFE170073
:10082B0012008A161A0012008ADC1A0012008AA023
:10083B001C0012008A2A200012008AA92100120033
:10084B008AE8230012008A68270012008AA8270072
:10085B0012008AB6280012008AD7280012008A706C
:10086B00290012008A2C2C0012008A942E001200F0
:10087B008AEB2E0012008A34310012008A9E32005D
:10088B0012008AF7320012008AC4340012008AF078
:10089B00590012008A37470012008ACB4900120018
:1008AB008A3B4A0012008A464A0012008A7E4A009E
:1008BB0012008AC84A0012008ACE4C0012008A6DC0
:1008CB00350012008A313A0012008A443E001200B1
:1008DB008AD2590012008A8B510012008A7B560073
:1008EB0012008A99570012008A6C540012008AF980
:1008FB00580012008A45590012008AA14D001200BF
:10090B008A8B590012008AB4590012008AFA5700D8
:10091B0012008AA95800E76670100809E766700A8A
:10092B000809E76670040809E76622E0667010089C
:10093B00A3E066700A08A3E066700408A3E06622D1
:10094B00C3E7960809E7960809E7960809E796A210
:10095B00D265D03322C008C3E096F50808A3E09611
:10096B00420808A3E096420808A3E0964208A2D2E8
:10097B0065D033E5087001D3D00822C3E09608A3F5
:10098B00E09608A3E09608A3E09622C008C3E09681
:10099B00F50808A3E096420808A3E096420808A3CE
:1009AB00E09645087001D3D00822080808E630E726
:1009BB00111211EF1209CD080808C64480C6181889
:1009CB001822181818E9799EC608CAC608CBC6089B
:1009DB00CCC6C370207996CACBCC7019798ECBCC90
:1009EB0070137986CC700EF9802ACA33CACB33CBFD
:1009FB00CC33CC331930E7F2CCCBCA335014700460
:100A0B00EA30E00DE4CA3ACACB3BCBCC3CCC50022B
:100A1B0009C3E913C6CC182313C6CB18C6CA18C60C
:100A2B00F922120A6D20F01430E72B74FFFCFBFA4D
:100A3B00747F8022E4FCFBFA7480801AB48008BCBB
:100A4B0000F2BB00EF800F50EBF9E4C39AFAE49B82
:100A5B00FBE49CFCE499C6CC18C6CB18C6CA18C6D6
:100A6B00F922E4C9C608CAC608CBC6D3330308CCDF
:100A7B00C63392F0C3947F402E94184019C9B9071E
:100A8B0004CACBCC225025C309CA33CACB33CBCC37
:100A9B0033CC33D9F422F4600DC9CCC313CB13CBB5
:100AAB00CA13CAD9F6CC22E4FCFBFA2214FCFBFADB
:100ABB0022E62618461846184622E72719471947F3
:100ACB00194722181818E60846087009E626087018
:100ADB0005E633F4220822191919E70947097009A9
:100AEB00E727097005E733F4220922E6084608C315
:100AFB00134608336002E633F422E7094709C313B0
:100B0B004709336002E733F422120AF66025120B11
:100B1B00056020120ABC7003020AC5080808E766C4
:100B2B0070101819E766700A1819E766700418191F
:100B3B00E76622F422120AF6601C120B05601712EC
:100B4B000ABC7007120AC57001D322C0D0120AC5A5
:100B5B007006D0D0B322C32233D0D0501430E0F67D
:100B6B00C3E7960809E7960809E7960809E796B3DD
:100B7B002220E0D5E6970809E6970809E6970809C9
:100B8B00E697B322120AF6601B120B056016120AC7
:100B9B00BC7007120AC5600CB322C0D0120AC57014
:100BAB0005D0D022C32233D0D0501330E0EBC3E7B3
:100BBB00960809E7960809E7960809E7962220E0C8
:100BCB00E4E6970809E6970809E6970809E69722ED
:100BDB0000120AF6604F120B056012E7548066F69E
:100BEB00120ACE7011120AC5703B090909F4F618E6
:100BFB00F618F618F622120AE27015120ABC08084B
:100C0B000860EAE6447FF618768018E4F618F622B8
:100C1B00120ABC6016120AC57012E4F608F608F642
:100C2B0008E65480F609090918181822EAC0E0EB07
:100C3B00C0E0ECC0E0EDC0E0E687F0A4FBACF00850
:100C4B00E687F0A42CFCE435F0FA1809E687F0A44B
:100C5B002C4B60027401CA35F0FCE433FB09E687C8
:100C6B00F0D2F7A42CCB35F0FC1908E687F0A42BB7
:100C7B00CC35F0FBE433FD0819E687F0D2E7A42C62
:100C8B004ACB35F0CD3400FC09E687F0D2E7A42D32
:100C9B00CC35F0FDE433FA0918E687F0D2F7A42C33
:100CAB00CD35F0CA3400FC08E687F0D2E7D2F7A4C2
:100CBB002ACC35F07A7E20E70B0ACB33CBCD33CD64
:100CCB00CC33CC33CB3350147004ED30E00ED2F177
:100CDB00E4CD3DCDCC3CCC3B5005DA05C2F1EB5419
:100CEB007FC63308E63392F0FBE73309E733C39A49
:100CFB00502D2B70190C0D4C4D70151806E608C3B2
:100D0B0033700D20F10AA2F013F6E418800B402487
:100D1B00E4F630F002768018F618F618F68024D335
:100D2B003B14501074FFA2F013F6187680E418F6FB
:100D3B0018F6800FA2F013F618E63303F618ECF64C
:100D4B0018EDF6D0E0FDD0E0FCD0E0FBD0E0FA22CD
:100D5B00120B056046120AF6603DE9687008F6183A
:100D6B00F618F618F622748067F7120D8F09090929
:100D7B00748067F722120AF6601D120B05700519B5
:100D8B001919801A120ACE701F120AE2C37003E6F9
:100D9B00673319191940071818182208080874FF27
:100DAB00F618F618F618F622120AE26017120AC5A0
:100DBB00702192F0120ABC7019501720F014080819
:100DCB0008090909E7F61819E7F61819E7F61819CB
:100DDB00E7F622120ABC60E6E869701F0808E624F1
:100DEB0080F608E436F618547FB47F0CE654806026
:100DFB0007F6E418F618F622181822E9C6CC08C62E
:100E0B00CD08C6CE08C6CFC0E0E8C0E0EAC0E0EB34
:100E1B00C0E009E9F809E7FA09E7FBE6F918E6F893
:100E2B00C3EC98ED99EE9AEBC2E7F5F0EFC2E795BC
:100E3B00F0500E600CEBCFFBEACEFAE9CDF9E8CC23
:100E4B00F8EAA2E7D2E7FAEB33FB13F5F0EEA2E7F1
:100E5B00D2E7FEEF33FFC5F013A2E730E601B31381
:100E6B00C5F0C3C0E0C0F07F00C39BFB605E94186D
:100E7B00600F401D14601AD0E023F9D0E0F8020F88
:100E8B00618AF0E9486003D2F0E4AFF0FAF9F88038
:100E9B003BEB30E40D89F0EA6003D2F0E4AFF0F9FC
:100EAB00CAF8EB30E30D88F0EF6002D2F0AFF0E45C
:100EBB00CAC9F8EB54076014FBC3EA13FAE913F938
:100ECB00E813F8EF135002D2E0FFDBEDD0E0C0E007
:100EDB0030E739C3E49FFFF5F0EC98FC42F0ED9955
:100EEB00FD42F0EE9AFE42F0D0E0F9D0E0F8E5F0EA
:100EFB00607AE923F9EE20E742D8028067C3EF332B
:100F0B00FFEC33FCED33FDEE33FE80EAEC28FCED19
:100F1B0039FDEE3AFED0E023F9D0E0F84002801B19
:100F2B00C3EE13FEED13FDEC13FCEF135002D2E0F6
:100F3B00FF08B800067F7F74FF802EEF3350178CAD
:100F4B00F020F00260100CBC000C0DBD00080EBEB2
:100F5B00000408E860DFE933E813FFEE2313FE4FCC
:100F6B004D4C8008E95480FFE4FEFDFCEE33EF337B
:100F7B00F47004FCFD7E80D0E0FBD0E0FAD0E0F80A
:100F8B00D0E0CFC618CEC618CDC618CCC6F92212E3
:100F9B000AF6700418181822120B05700D74FFF660
:100FAB001819F61819F61819F622E7548066F61276
:100FBB000ABC700F120AC570F014F608F608F60892
:100FCB00F680D1120AC5700CF608F608768008E692
:100FDB00447F80EC120AE5700C120AD160BFE65414
:100FEB0080F6E480BB120AD1700519191980A5E8A7
:100FFB0069700C763F18768018F618F6E8F922E639
:10100B00CDC0E018ECC0E0E633CD33CDD313F6E71B
:10101B0019FCE7191933CC33C3947F400ECD9D5087
:10102B002408E65480F6E418F6800FF4043D1450BF
:10103B001408E6447FF6187680E418F618F6D0E02C
:10104B00FCD0E0FD22CCD313CCFD18E4C6CBC0E022
:10105B0018E4C6CAC0E00808ED08C633E613F61854
:10106B00E433C675F003C3CA97CA09CB97CB199C57
:10107B0040047D08802EBD000302114316B6FF0508
:10108B000606081618C3CA33CACB33CB33CA27CAD2
:10109B0009CB37CB193CC37D08803E187D0820E770
:1010AB005CC633C6CA33CACB33CB33DDF1D5F0EBD9
:1010BB0030E77BCA97CA09CB974ACB199C406F4B39
:1010CB007025E620E0218066187D08C3CA97CA09FF
:1010DB00CB97CB199CD3C633C6CA33CACB33CB33CE
:1010EB0050C9DDE7D5F0E1D3E4C636C608C636C62F
:1010FB0008C636C608C636C61818188031C3CA9734
:10110B00CA09CB97CB199CB34097C633C6CA33CA0F
:10111B00CB33CB33DD34D5F02EC6A2E0C640C8CAE4
:10112B0027CA09CB37194A70BECB3CB480B9080823
:10113B00E63308E633601F181818D0E0FAD0E0FB4E
:10114B00D0E0FCD0E0FD22187D08CA27CA09CB37B6
:10115B00CB193CD3808013F618E4B67F11F618B682
:10116B00FF0EF618C60470D20808768080CAF618EF
:10117B00F618F680C5E4CFC0E0E4CEC0E0E4CDC005
:10118B00E0E4CCC0E075F020E626F608E633F6087E
:10119B00E633F608E633F6181818EC33FCED33FD9E
:1011AB00EE33FEEF33FFC3EC9709ED9709EE97098A
:1011BB00EF97191919400FFFEC97FC09ED97FD09F3
:1011CB00EE97FE191906D5F0BFECF709EDF709EE0E
:1011DB00F709EFF7191919D0E0FCD0E0FDD0E0FECC
:1011EB00D0E0FF22181818E4C396F608E496F60828
:1011FB00E496F608E496F6226016080808C6C313B0
:10120B00C618C613C618C613C618C613C6D5E0EA49
:10121B00227009080808226016181818C6C333C6AE
:10122B0008C633C608C633C608C633C6D5E0EA229D
:10123B00E026F608A3E036F608A3E036F608A3E0AE
:10124B0036F622E026F008A3E036F008A3E036F0ED
:10125B0008A3E036F022E056F608A3E056F608A302
:10126B00E056F608A3E056F622E647F60809E647ED
:10127B00F60809E647F60809E647F622E046F608BF
:10128B00A3E046F608A3E046F608A3E046F622E004
:10129B00F608A3E0F608A3E0F608A3E0F622E6F0D2
:1012AB0008A3E6F008A3E6F008A3E6F022E0FAA311
:1012BB00E0FBA3E0FCA3E0FD22EAF0A3EBF0A3EC40
:1012CB00F0A3EDF022E0FCA3E0FDA3E0FEA3E0FF22
:1012DB0022ECF0A3EDF0A3EEF0A3EFF022E0F8A3E5
:1012EB00E0F9A3E0FAA3E0FB22E8F0A3E9F0A3EA1C
:1012FB00F0A3EBF022CAC0E0E6F0A308DAFAD0E0E4
:10130B00FA22CAC0E0E0A3C582CCC582C583CDC595
:10131B0083F0A3C582CCC582C583CDC583DAE6D065
:10132B00E0CA22C3E498F8E499F912136F8026C33C
:10133B00E49AFAE49BFBE920E7E912136FE498F8CF
:10134B00E499F922C3E498F8E499F912136FE4983D
:10135B00F8E499F9C3E49AFAE49BFB22EB20E7CF7C
:10136B00E920E7E0B90010BB0008E88AF084F8AA8E
:10137B00F022E4FBC8FA22EB70227B10C833C8C9F9
:10138B0033C9335007C39AC3DBF280069A50012A44
:10139B00DBEAC833F4C8C933F4C9FA2275F008E4A0
:1013AB00C833C8C933C933C99AC99B5004C92AC9A0
:1013BB003BD5F0ECFBC833F4C8E4C9FA2270042225
:1013CB00600D18C6C333C608C633C6D5E0F4182261
:1013DB00251010AF08F510400C15118008F51040C2
:1013EB00021511D2AF2200C0D0251010AF08F51096
:1013FB00500C05118008F51050020511D2AFD0D05A
:10140B00222510F58210AF08F510400C151180083D
:10141B00F51040021511D2AF85118322C58225101C
:10142B00C582C583351110AF07F511858210800772
:10143B00F511858210D2AFC583222510F582E435D4
:10144B0011F583222510F8E43511F9222510FAE461
:10145B003511FB222510FCE43511FD22E473251018
:10146B00C582C0E0E51134FFC583C0E0E510C3952C
:10147B008224F810AF08858311858210800885833C
:10148B0011858210D2AFCEF0A3E520F0A37808E649
:10149B0008F0A3DEFAEFF0A3E58124FAF8E608F0F2
:1014AB00A3E608F0A3E608F0A30808E608F0A3E615
:1014BB0008F0A315811581D0E0FED0E0F815811559
:1014CB00811581E8C0E0EEC0E02285118385108292
:1014DB00E0A3FEE0A3F5207808E0A3F608DFFAE02E
:1014EB00A3FFE0A3C0E0E0A3C0E0E0A3C0E0E0A363
:1014FB00C0E0E0A3C0E010AF0885821085831180A7
:10150B0008858210858311D2AFD083D082020087E9
:10151B00C0D02510C582C0E0E51134FFC583C0E003
:10152B00E510C3958224F310AF08858311858210D3
:10153B008008858311858210D2AFC8F0A3E9F0A390
:10154B00EAF0A3EBF0A37908E709F0A3D8FAECF0E3
:10155B00A3EDF0A3EEF0A3EFF0A3D0E0F0A3D0E067
:10156B00F0A3D0E0F0A3E520F0A3E5F0F0A32285F3
:10157B001183851082E0C0E0A3E0F9A3E0FAA3E0B9
:10158B00FBA37808E0F608A3DFFAE0FCA3E0FDA3D9
:10159B00E0FEA3E0FFA3E0C0E0A3E0C0E0A3E0F522
:1015AB00D0A3E0F520A3E0A3F5F010AF08858311DD
:1015BB008582108008858311858210D2AFD082D0AE
:1015CB0083D0E0F8D0E0327404800474028000C051
:1015DB00E0F40412140CD0E0121300227404800403
:1015EB0074028000CCC0E0EDC0E0E510C39CCCAD34
:1015FB001150011D10AF068C108D1180068C108DB3
:10160B0011D2AF12130DD0E0FDD0E0FC2200202050
:10161B002020202020202028282828282020202097
:10162B002020202020202020202020202020881057
:10163B0010101010101010101010101010100404B7
:10164B0004040404040404041010101010101041BE
:10165B00414141414101010101010101010101012F
:10166B0001010101010101010110101010101042C4
:10167B0042424242420202020202020202020202FF
:10168B000202020202020202021010101020C0E03D
:10169B0074F212151BAC88E5C1C0E0900563E02421
:1016AB0061F8A3E03404F988828983D0E0F09005D7
:1016BB0063E02401F0A3E03400F0900563E0F8A3AD
:1016CB00E0F97A007B0112136F900563EAF0A3EB4C
:1016DB00F0C28B7F0102157AC0E074F212151BC2A7
:1016EB00AFAE88A9F9C28F1208C1D2AF7F01021524
:1016FB007A74F41214698A828B83E0FCA3E0FD7484
:10170B000C121445780812129A80098C828D83E092
:10171B00FCA3E0FDEC4D602EECFAEDFB8A828B8393
:10172B00A3A3A3A3A3A3780812099640067A007B70
:10173B000080178A828B83A3A3A3A3A3A378081289
:10174B00093670C780047A007B007F040214D574BD
:10175B00F4121469EAF8EBF9E8FAE9FB80098A82DA
:10176B008B83E0FAA3E0FB8A828B83E0F8A3E0F99A
:10177B00E84960578A828B83E0F8A3E0F9E8FEE939
:10178B00FF8E828F83A3A3A3A3A3A3780812129A1D
:10179B008C828D83A3A3A3A3A3A37808120936700D
:1017AB000A7AFF7BFF7CFF7DFF80438E828F83A3B2
:1017BB00A3A3A3A3A3780812129A8C828D83A3A34D
:1017CB00A3A3A3A3780812098650938A828B83E084
:1017DB00F8A3E0F98C828D83E8F0A3E9F08A828B81
:1017EB0083ECF0A3EDF07A007B007C007D007F049E
:1017FB000214D574F012146974F21213DB74021212
:10180B001445EAF0A3EBF07408121445ECF0A3EDC9
:10181B00F07C007D007E007F007404121445ECF018
:10182B00A3EDF0A3EEF0A3EFF07E007F0090030199
:10183B00E0F8A3E0F9851082851183E8F0A3E9F0C5
:10184B007402121445E0F8A3E0F5838882E0F50CEE
:10185B00E4F50DF50EF50F741A780C12121C741EAC
:10186B00121445780812129A7415780812121C7803
:10187B000C79081212747402121445E0F8A3E0F507
:10188B00838882E0F87900E82401F508E439F5094A
:10189B00E5093395E0F50AF50B741A780812121C5A
:1018AB00740A12144578081212A9801E85108285BD
:1018BB001183E0F8A3E0F5838882E0F8A3E0F985D3
:1018CB001082851183E8F0A3E9F0851082851183DE
:1018DB00E0F8A3E0F9E849601C851082851183E0EC
:1018EB00FEA3E0FF8E828F83A3A3A3A3A3A3780CF5
:1018FB0012099640B77422121445780812129A8076
:10190B001E851082851183E0F8A3E0F5838882E0C1
:10191B00F8A3E0F9851082851183E8F0A3E9F0853F
:10192B001082851183E0F8A3E0F9E8496026851061
:10193B0082851183E0FEA3E0FF8E828F83A3A3A396
:10194B00A3A3A3780C12129A740A121445780C12E2
:10195B000986501274041214451212B8740E121325
:10196B00F17F080214D5741E121445780C12129ACA
:10197B00780C1215D67404121445E0FCA3E0FD8E0E
:10198B00828F83A3A3E0FAA3E0FB1208F774021281
:10199B0013F18A0C8B0DE50C450D600302190C74C9
:1019AB0004121445780C12129AE50C75F002A4C5BA
:1019BB000CA8F075F000A428F875F002E50DA4282A
:1019CB00F50D7408121445E0250CF8A3E0350D88CD
:1019DB0082F583EEF0A3EFF07404121445780C1229
:1019EB00129A900B2A780C12123B7404121445783D
:1019FB000C1212A9780C790812094B400302190C2E
:101A0B007A007B007C007D0002196774F412146964
:101A1B00EAFEEBFFEE246CF582E43FF583E0F87908
:101A2B0000E875F032A4C8AAF075F000A42AFA7584
:101A3B00F032E9A42AF9EE28F8EF39F9E8246EF52B
:101A4B0008E439F509EE246CF582E43FF583E0F800
:101A5B007900E82401F85001097A047B001213671E
:101A6B00EAC0E0EE246CF582E43FF583D0E0F0EEC3
:101A7B00246CF582E43FF583E0C0E0EE246DF58243
:101A8B00E43FF583D0E0F0EE246BF582E43FF58381
:101A9B00E0F50A750B00780A1215D6EE2438FCE433
:101AAB003FFDAA08AB091208FD74021213F1EE24D4
:101ABB006BF582E43FF583E0F87900E50828F582C1
:101ACB00E50939F5837400F0AA08AB097F04021409
:101ADB00D574F212146974FF1213DBEAFEEBFF7577
:101AEB000800750900750A00750B00EE2406F50C4D
:101AFB00E43FF50D780C1215D67ADB7B051208D373
:101B0B0074021213F1740F1214451212E8E8494AC9
:101B1B004B7045EE246DF582E43FF583E0700B8549
:101B2B0010828511837403F08017EE246DF582E427
:101B3B003FF583E024FFC0E0851082851183D0E060
:101B4B00F0851082851183E0C0E0EE246DF582E410
:101B5B003FF583D0E0F08042EE246DF582E43FF553
:101B6B0083E0F8EE246CF582E43FF583E068602AAD
:101B7B00EE246DF582E43FF583E0F87900E824016B
:101B8B00F85001097A047B00121367EAC0E0EE24D7
:101B9B006DF582E43FF583D0E0F0EE246DF582E441
:101BAB003FF583E0F8EE246CF582E43FF583E068C3
:101BBB00606AEE246DF582E43FF583E0F87900E886
:101BCB0075F032A4C8AAF075F000A42AFA75F032A9
:101BDB00E9A42AF9EE28F8EF39F9E8246EFAE4398A
:101BEB00FB80328A828B83E0C0E085080C85090D6F
:101BFB00EE250CF8EF350DF9E82438F582E439F5CC
:101C0B0083D0E0F08A828B83A3AA82AB83900B2ACA
:101C1B00780812123B8A828B83E070C785080C858B
:101C2B00090DEE250CF8EF350DF9E82438F582E4B3
:101C3B0039F5837400F0A808A909E8C0E0EE246B1D
:101C4B00F582E43FF583D0E0F0A808A909E8C0E0ED
:101C5B00EE246AF582E43FF583D0E0F0E508450910
:101C6B00450A450B60259005A7E0F8A3E0F9E84984
:101C7B006019AC08AD09EE2438FAE43FFB9005A7D8
:101C8B00E0F8A3E0F583888212146774011213F154
:101C9B007F060214D574F012146974E61213DB85F7
:101CAB001082851183EAF0A3EBF0851082851183F6
:101CBB00E02438FAA3E03400FB851082851183E021
:101CCB00F8A3E0C8246BF582C83400F583E0FCE48C
:101CDB00FDFEFF7402121445ECF0A3EDF0A3EEF041
:101CEB00A3EFF0750800750900750A00750B0080ED
:101CFB001B900B2E780812129A7402121445780856
:101D0B0012124E8A828B83A3AA82AB838A828B8325
:101D1B00E0642060DC8A828B83E0600E7402121414
:101D2B00451212D0EC4D4E4F7003022020900B3217
:101D3B001215E774061214451215E7740E12145F90
:101D4B0012082574081213F18A088B098C0A8D0B63
:101D5B00E5084509450A450B7003022020851082D2
:101D6B00851183E0F8A3E0C8246AF582C83400F536
:101D7B0083E0F8851082851183E0F9A3E0C9246B19
:101D8B00F582C93400F583E0687003021E449005A8
:101D9B00A7E0F8A3E0F9E84960718510828511830B
:101DAB00E0F8A3E0C8246BF582C83400F583E0FAB1
:101DBB007B00851082851183E0F8A3E0C8246AF5C7
:101DCB0082C83400F583E0F87900EAC398FCEB99FC
:101DDB00FD851082851183E0F8A3E0C8246AF582A3
:101DEB00C83400F583E0F87900851082851183E013
:101DFB0028F8A3E039F9E82438FAE439FB9005A771
:101E0B00E0F8A3E0F58388821214678510828511B0
:101E1B0083E0F8A3E0C8246BF582C83400F583E0B7
:101E2B00C0E0851082851183E0F8A3E0C8246AF531
:101E3B0082C83400F583D0E0F0900B2A78081209A1
:101E4B0036705B7402121445780812129A740612DB
:101E5B001445E0F8A3E0F5838882A3A3E02508FEF0
:101E6B00A3E03509FF801D8E828F83E0F9851082F8
:101E7B00851183E0FAA3E0FB1208438E828F83A3C4
:101E8B00AE82AF838E828F83E070DC7920851082E7
:101E9B00851183E0FAA3E0FB1208430220207E00A9
:101EAB007F008046EEF8EFF9E875F002A4C8AAF0BF
:101EBB0075F000A42AFA75F002E9A42AF974061247
:101ECB001445E58228F582E58339F583E0F8A3E034
:101EDB00F5838882A3A31215EB7AE37B051208D353
:101EEB0074021213F10EEE70010F8E0CEFF50D3321
:101EFB0095E0F50EF50F7808790C12094B40A58586
:101F0B001082851183E02438F50CA3E03400F50D25
:101F1B00780C1215D67402121445E02406F50CA3A6
:101F2B00E03400F50D780C1215D67AE97B05120812
:101F3B00D374041213F180477402121445780C12F7
:101F4B00129A7406121445E0F8A3E0F5838882A375
:101F5B00A3E0250CF8A3E0350D8882F583E0F98525
:101F6B001082851183E0FAA3E0FB120843900B2A41
:101F7B00780C12129A7402121445780C12124E7AC3
:101F8B00017B0080050AEA70010B8A0CEBF50D331F
:101F9B0095E0F50EF50F7808790C12094B509974F2
:101FAB0002121445780C12129A7406121445E0F8BA
:101FBB00A3E0F5838882A3A3E0250CF8A3E0350DFD
:101FCB008882F583E0FC7402121445780C12129A85
:101FDB00EAF8EBF9E875F002A4C8ADF075F000A4CF
:101FEB002DFD75F002E9A42DF97406121445E58256
:101FFB0028F582E58339F583E0F8A3E0F583888241
:10200B00A3A3E0250CF8A3E0350D8882F583E06CE3
:10201B007003021F90741A1213F17F080214D57407
:10202B00F3121469749C1213DB9005F0AC10AD1114
:10203B00746412130D7401121445AC82AD83EA243F
:10204B006BF582E43BF583E0FE7F00EA246AF582C0
:10205B00E43BF583E0F87900EEC398F8EF99F9ECDF
:10206B0028F582ED39F583A3A882A983EA246AF5C2
:10207B0082E43BF583E0FE7F00EA2EFEEB3FFFEEB2
:10208B002438FE50010FEA246AF582E43BF583E025
:10209B0024FFF0EA246BF582E43BF583E0F5087549
:1020AB000900EA2508F508EB3509F509E508243898
:1020BB00F50AE43509F50BEA246BF582E43BF5836D
:1020CB00E024FFF0EE24FFF508EF34FFF509804D17
:1020DB008E828F83E0C0E08C828D83D0E0F08C8287
:1020EB008D83A3AC82AD83888289837408F0888248
:1020FB008983A3A882A9838E828F83E0C0E08508A1
:10210B0082850983D0E0F08E828F83A3AE82AF836A
:10211B00850882850983A3858208858309C3EE958B
:10212B000AEF950B40AA8510828511837408F08CF9
:10213B00828D837420F0888289837408F088828969
:10214B0083A3A882A983EA246BF582E43BF583E0A1
:10215B00FC7D00EA2CFAEB3DFBEA2438F582E43BEC
:10216B00F5837400F09005A7E0FAA3E0FBEA4B605F
:10217B0023AA10AB118A088B09E8C39508FCE995D3
:10218B0009FDAA10AB119005A7E0F8A3E0F5838831
:10219B008212146774641213F17F050214D574F361
:1021AB00121469749B1213DBE9C0E0851082851150
:1021BB0083D0E0F0EA246BF582E43BF583E0F87919
:1021CB0000E82401F8500109C3E89432E99400A215
:1021DB00D265D03340030223DEEA246BF582E43B65
:1021EB00F583E0F8EA246AF582E43BF583E0686066
:1021FB0003022289851082851183E0C0E0EA246AFC
:10220B00F582E43BF583E0F87900EA28F8EB39F93D
:10221B00E82438F582E439F583D0E0F0EA246AF556
:10222B0082E43BF583E02401F0EA246BF582E43B86
:10223B00F583E02401F8E8C0E0EA246BF582E43B87
:10224B00F583D0E0F07900EA28F8EB39F9E8243887
:10225B00F582E439F5837400F09005A7E0F8A3E06C
:10226B00F9E84960167C017D00AA10AB119005A717
:10227B00E0F8A3E0F58388821214670223DE900650
:10228B0054740112145F746412130DEA246BF582FB
:10229B00E43BF583E0F87900EA28F8EB39F9E82418
:1022AB0038FEE439FFEA246BF582E43BF583E02446
:1022BB0001F0EA246AF582E43BF583E0F87900EA61
:1022CB0028F8EB39F9E82438FCE439FDEA246AF5FF
:1022DB0082E43BF583E02401F0EEC39CF8EF9DF91B
:1022EB007401121445E58228F50AE58339F50B854F
:1022FB000A82850B83A3A882A983EE24FFF508EF3E
:10230B0034FFF5098052850882850983E0C0E0859A
:10231B000A82850B83D0E0F0E50A24FFF50AE50B72
:10232B0034FFF50B888289837408F088828983A334
:10233B00A882A983850882850983E0C0E08E828FFD
:10234B0083D0E0F0E50824FFF508E50934FFF50933
:10235B00EE24FFFEEF34FFFFC3E5089CE5099D501B
:10236B00A5851082851183E0C0E0850A82850B83E9
:10237B00D0E0F0851082851183E0C0E08C828D83E4
:10238B00D0E0F0EA246BF582E43BF583E0FC7D00C2
:10239B00EA2CFAEB3DFBEA2438F582E43BF5837437
:1023AB0000F09005A7E0FAA3E0FBEA4B602574016F
:1023BB001214578A088B09E8C39508FCE99509FDA7
:1023CB0074011214579005A7E0F8A3E0F5838882F7
:1023DB0012146774651213F17F050214D574F01291
:1023EB00146974E81213DB7416121445EAF0A3EBAC
:1023FB00F0851082851183ECF0A3EDF07C007D005D
:10240B007E007F007412121445ECF0A3EDF0A3EEE6
:10241B00F0A3EFF07C007D007E007F00740E1214A1
:10242B0045ECF0A3EDF0A3EEF0A3EFF07C007D0004
:10243B007E007F00740A121445ECF0A3EDF0A3EEBE
:10244B00F0A3EFF07C007D007E007F007406121479
:10245B0045ECF0A3EDF0A3EEF0A3EFF08510828531
:10246B001183E02438FAA3E03400FB80098A828BC5
:10247B0083A3AA82AB838A828B83E0642060EE8A7B
:10248B00828B83E070030227308A828B83E0F5080E
:10249B00E4F509F50AF50B7402121445780C1212C7
:1024AB009A900B36780C121261741A780812121C5F
:1024BB00780C79081212747402121445780C1212EB
:1024CB00A90225768A828B83E0F508E4F509F50AE3
:1024DB00F50B740E121445780812124E740A12146E
:1024EB0045780812129A8A828B83E0F87900E50806
:1024FB0068F8E50969F9745628F582740739F5838C
:10250B00E0FCE4FDFEFF740A121445ECF0A3EDF0C1
:10251B00A3EEF0A3EFF07406121445780812129A8A
:10252B008A828B83E0F87900E50868F8E50969F998
:10253B00745628F582740839F583E0FCE4FDFEFF40
:10254B007406121445ECF0A3EDF0A3EEF0A3EFF03C
:10255B008A828B83A3AA82AB83900B2A78081212F0
:10256B009A7412121445780812124E8A828B83E0E9
:10257B00600C8A828B83E0642060030224CF740298
:10258B00121445780812129A900B3A7808121261BD
:10259B007412121445780C12129A7415780C1212CC
:1025AB001C900B3E780C1212617808790C12127485
:1025BB00740212144578081212A974021214457889
:1025CB000812129A900B427808121261740E1214B0
:1025DB0045780C12129A7410780C12121C900B4640
:1025EB00780C1212617808790C121274740212149E
:1025FB004578081212A97402121445780812129A1F
:10260B00900B4A7808121261740A121445780C1256
:10261B00129A7408780C12121C900B4E780C121232
:10262B00617808790C12127474021214457808122E
:10263B0012A97402121445780812129A900B527850
:10264B00081212617406121445780C12129A900B30
:10265B0056780C1212617808790C121274740212EB
:10266B00144578081212A974021214451215E77456
:10267B001A121445E0FAA3E0FB12081974041213A2
:10268B00F18A088B09AC08AD09EC4D6076ECF8EDDE
:10269B00F9E8FAE9FB900B5A780812129AEA240C23
:1026AB00F582E43BF583780812093670328C828D03
:1026BB0083A3A3A3A31215EB8A828B83A3A3A3A348
:1026CB00A3A3A3A3A3A3E0FCA3E0FD7402121445F0
:1026DB00E0FAA3E0FB12088574021213F180468521
:1026EB001082851183E02438FAA3E03400FB8C823E
:1026FB008D83A3A3A3A3E0F8A3E0F5838882121430
:10270B00678022851082851183E02438F508A3E0C9
:10271B003400F50978081215D67AB87B061208D35F
:10272B0074021213F1851082851183E0F8A3E0C8BF
:10273B00246BF582C83400F5837400F08510828514
:10274B001183E0F8A3E0C8246AF582C83400F5834E
:10275B007400F074181213F17F080214D574F6127A
:10276B001469EA24C8F8EB34FFF9E82406F508E409
:10277B0039F50978081215D6E4F508F50978081229
:10278B0015D6E4F508F50978081215D67AC97B0633
:10279B001208D374061213F17F020214D574F012CF
:1027AB00146974FC1213DB7402121445EAF0A3EBE8
:1027BB00F0750C00750D00750E00750F0090030180
:1027CB00E0FEA3E0FF02287D851082851183EEF0E9
:1027DB00A3EFF0851082851183E0F8A3E0C82406EF
:1027EB00F582C83400F583780812129A900B5E7844
:1027FB0008121261780C7908120921604D8510823C
:10280B00851183E0F8A3E0C82406F582C83400F5EF
:10281B0083780C12129A900B5E780C121261850C55
:10282B0008850D09850E0A850F0B741A780812128C
:10283B0003900B62780812128778081215D27AD897
:10284B007B061208D374041213F185108285118351
:10285B00E0F8A3E0F5838882A3A31215EB7AE37B60
:10286B00051208D374021213F18E828F83E0FEA33C
:10287B00E0FFEE4F60030227D37402121445E024ED
:10288B00C8F8A3E034FFF9E82406F508E439F509A4
:10289B0078081215D67AE57B061208D37402121348
:1028AB00F174041213F17F080214D574F612146933
:1028BB007508F475090678081215D67AEC7B0612A2
:1028CB0008D374021213F17F020214D574F612149A
:1028DB006974FE1213DB750801750900780812156F
:1028EB00D6740212145F12086D74021213F18A0867
:1028FB008B09A808A909C3E89401E99400A2D26541
:10290B00D0334031851082851183E0F8A3E0F9E8DC
:10291B004970227C257D007A887B099005A7E0F819
:10292B00A3E0F58388821214679005A97400F0A3C5
:10293B007400F080267C1C7D007AAE7B099005A785
:10294B00E0F8A3E0F58388821214679005A7E0F8FE
:10295B00A3E0F99005A9E8F0A3E9F074021213F1D2
:10296B007F020214D574F012146974EC1213DB7429
:10297B0004121445EAF0A3EBF07406121445ECF0C4
:10298B00A3EDF07406121445E0FAA3E0FB75080002
:10299B00750900750A00750B007C007D007E007FB9
:1029AB00007408121445ECF0A3EDF0A3EEF0A3EFC6
:1029BB00F07C007D007E007F00740C121445ECF05F
:1029CB00A3EDF0A3EEF0A3EFF07C007D007E007F83
:1029DB00007410121445ECF0A3EDF0A3EEF0A3EF8E
:1029EB00F0022A808A828B83E0F50CE4F50DF50E5C
:1029FB00F50F740C121445780C12124E8A828B83CD
:102A0B00E0F87900E50868F8E50969F9745628F5E6
:102A1B0082740739F583E0F508E4F509F50AF50B3F
:102A2B007408121445780C12129A8A828B83E0F880
:102A3B007900E50C68F8E50D69F9745628F5827490
:102A4B000839F583E0FCE4FDFEFF7408121445EC35
:102A5B00F0A3EDF0A3EEF0A3EFF0900B2A780C129D
:102A6B00129A7410121445780C12124E8A828B83B0
:102A7B00A3AA82AB838A828B83E060030229EF8552
:102A8B001082851183780C12129A900B4A780C12D3
:102A9B0012617408780812121C900B4E78081212EF
:102AAB0061780C7908121274851082851183780C69
:102ABB001212A9851082851183780812129A900B35
:102ACB005278081212617408121445780C12129A7B
:102ADB00900B56780C1212617808790C12127485CF
:102AEB00108285118378081212A9851082851183B3
:102AFB00780812129A900B3A78081212617410121D
:102B0B001445780C12129A7415780C12121C900B37
:102B1B003E780C1212617808790C121274851082AF
:102B2B0085118378081212A9851082851183780884
:102B3B0012129A900B427808121261740C121445FF
:102B4B00780C12129A7410780C12121C900B467897
:102B5B000C1212617808790C12127485108285118F
:102B6B008378081212A97406121445E0F8A3E0F555
:102B7B00838882E0F508E4F509F50AF50B851082E8
:102B8B00851183780C12129A900B36780C12126105
:102B9B00741A780812121C780C79081212748510AA
:102BAB0082851183780C1212A985108285118312EC
:102BBB0012E87404121445E0FCA3E0CC2406F58261
:102BCB00CC3400F5831212F47406121445E0F8A30A
:102BDB00E0F97404121445E0FAA3E0F5838A82A3AA
:102BEB00A3E8F0A3E9F07424121445E0F8A3E0F98C
:102BFB007404121445E0FAA3E0F5838A82A3A3A31D
:102C0B00A3E8F0A3E9F07404121445E0FCA3E0FD83
:102C1B007A017B0312081F74141213F17F0802143C
:102C2B00D574F11214698C0A8D0B80098A828B83FF
:102C3B00A3AA82AB838A828B83E0642060EE8A82B4
:102C4B008B83E06420601B8A828B83E060148A8212
:102C5B008B83A3AA82AB8380E58A828B83A3AA8210
:102C6B00AB838A828B83E0642060EE8A828B83E065
:102C7B00643F70077AFF7BFF022E8F7E007F00740C
:102C8B000F121445E0F50CA3E0F50D80218A828B21
:102C9B0083A3AA82AB838A828B83E0642060EE0ECF
:102CAB00EE70010FE50A2402F50A5002050B8A8229
:102CBB008B83E07003022E8BC3EE950CEF950DA268
:102CCB00D265D0334003022E8B850A82850B837429
:102CDB0000F0A37400F08A828B83E06430600302FF
:102CEB002DBE8A828B83A3E064786003022DBEEA3B
:102CFB002402FA50330B8030850A82850B83E0F572
:102D0B0008A3E0F509740478081213C8E5084CF819
:102D1B00E5094DF9850A82850B83E8F0A3E9F08A72
:102D2B00828B83A3AA82AB838A828B83E0F87900A0
:102D3B00E824D0F8E934FFF9E8FCE9FDC3E8940A8C
:102D4B00E9940040B38A828B83E0F87900E824BFD2
:102D5B00F8E934FFF9E8FCE9FDC3E89406E99400CF
:102D6B00401D8A828B83E0F87900E8249FF8E934D0
:102D7B00FFF9E8FCE9FDC3E89406E99400503185BE
:102D8B000A82850B83E0F508A3E0F5097404780843
:102D9B001213C8E5082CF8E5093DF9E8240AF850A8
:102DAB000109850A82850B83E8F0A3E9F0022D2A3D
:102DBB00022E6F8A828B83E0642D7004D2F0800226
:102DCB00C2F0A2F0E433F87900E84960098A828BFB
:102DDB0083A3AA82AB838A828B83E0FC7D00EC24E5
:102DEB00D0FCED34FFFD8052850A82850B83E0F524
:102DFB0008A3E0F509E50875F00AA4C50885F00EEF
:102E0B0075F000A4250EF50E75F00AE509A4250E44
:102E1B00F509E5082CFCE5093DFD850A82850B8348
:102E2B00ECF0A3EDF08A828B83A3AA82AB83E0FC48
:102E3B007D00EC24D0FCED34FFFDC3EC940AED9443
:102E4B000040A5E849601D850A82850B83E0F8A345
:102E5B00E0F9C3E498F8E499F9850A82850B83E8D5
:102E6B00F0A3E9F08A828B83E07003022CA18A82A3
:102E7B008B83E064207003022CA17AFE7BFF80041D
:102E8B00EEFAEFFB7F070214D574F6121469EAFE13
:102E9B00EBFF8C088D099005A7E0F8A3E0F9E84952
:102EAB0060167C5E7D017ACB7B099005A7E0F8A3C9
:102EBB00E0F58388821214678E828F837479F0A376
:102ECB007408F0740A1214451215EBAC08AD09EE38
:102EDB00FAEFFB12087974021213F17F020214D578
:102EEB0074F0121469EAFEEBFF8C088D09750A0069
:102EFB00750B007410121445E0F8A3E0F9E50828EF
:102F0B00F50EE50939F50F8048EE246AF582E43FAA
:102F1B00F583E0602FEE246AF582E43FF583E0242D
:102F2B00FFF09005A7E0F8A3E0F9E84960167C01F3
:102F3B007D007A0A7B079005A7E0F8A3E0F583886C
:102F4B0082121467850882850983A385820885838D
:102F5B0009C3E508950EE509950F400302312FE5EE
:102F6B000A450B600302305E850882850983E0C346
:102F7B009420C3945F5011850882850983E0F9EE94
:102F8B00FAEFFB12084380BC850882850983E02495
:102F9B00FD606B24FB700302303E1470030230544F
:102FAB0024FC600D24F2604D249C700302303E80A3
:102FBB0093EE246BF582E43FF583E0601B7AFB7B99
:102FCB00061208D3EEFAEFFB12082BEEFCEFFD7A9C
:102FDB00017B03120849801AEE2406F50CE43FF539
:102FEB000D780C1215D67AFE7B061208D3740212DA
:102FFB0013F1022F4F750A01750B00022F4FEE24B0
:10300B006AF582E43FF5837400F0EE246BF582E4FD
:10301B003FF5837400F0EE2406F50CE43FF50D78D4
:10302B000C1215D67A037B071208D374021213F114
:10303B00022F4FEE246AF582E43FF583E06007EE42
:10304B00FAEFFB12083D022F4FEEFAEFFB12083797
:10305B00022F4F7401650A70047400650B701D8597
:10306B000882850983E0645B7009750A02750B00A1
:10307B00022F4F750A00750B00022F4F85088285B2
:10308B000983E024BF600F146021146033147003B4
:10309B00022F14022F4F900B661215E7EEFAEFFB7F
:1030AB0012083174041213F1022F4F900B2A1215D0
:1030BB00E7EEFAEFFB12083174041213F1022F4FF3
:1030CB00EE246BF582E43FF583E0F8EE246AF5829B
:1030DB00E43FF583E06860499005A7E0F8A3E0F9C9
:1030EB00E849603DEE246AF582E43FF583E0F8742D
:1030FB000128C0E0EE246AF582E43FF583D0E0F0CE
:10310B007C017D007900EE28F8EF39F9E82438FAD4
:10311B00E439FB9005A7E0F8A3E0F583888212144D
:10312B0067022F4F7F080214D574F412146974FED2
:10313B001213DB8A088B09ECFAEDFBE5082469FE18
:10314B00E43509FF8E828F83E070568A828B83E091
:10315B006459601E8A828B83E0647960158A828B46
:10316B0083E0644E600C8A828B83E0646E600302A2
:10317B0032948A828B83E0C0E08E828F83D0E0F022
:10318B009005A7E0F8A3E0F9E84960127C017D0007
:10319B009005A7E0F8A3E0F583888212146702324A
:1031AB00948A828B83E06408702C9005A7E0F8A3C7
:1031BB00E0F9E84960167C037D007A0C7B079005EB
:1031CB00A7E0F8A3E0F58388821214678E828F83C1
:1031DB007400F00232948A828B83E0640D600C8A57
:1031EB00828B83E0640A6003023294750A02750BCA
:1031FB0000780A1215D6E5082404FCE43509FD74A1
:10320B00021214571208FD74021213F18E828F836F
:10321B00E0F50A8E828F837400F08508828509831E
:10322B007479F0A37408F0850882850983A3A3A39E
:10323B00A37400F0A37400F09005A7E0F8A3E0F9E5
:10324B00E84960167C027D007AFB7B069005A7E0BF
:10325B00F8A3E0F58388821214677459650A600637
:10326B007479650A701CE5082438FAE43509FB8586
:10327B001082851183E0F8A3E0F58388821214672E
:10328B0080077A107B071208D374021213F17F04A4
:10329B000214D574F6121469EAFEEBFF8C088D0943
:1032AB0078081215D67A287B071208D374021213EA
:1032BB00F18E828F83747FF0A37408F0750802750A
:1032CB00090078081215D6740C12145FEE2404FA58
:1032DB00E43FFB1208FD74021213F1EE2469F58230
:1032EB00E43FF5837400F07F020214D574F01214DE
:1032FB006974FA1213DBECFEEDFF7C567D09740248
:10330B001214457473F0A37408F0741612144F85DD
:10331B001082851183E8F0A3E9F085108285118373
:10332B00E0F8A3E0F5838882E0F50CA3E0F50DE46B
:10333B00F50EF50F851082851183E02402F8A3E0CA
:10334B003400F9851082851183E8F0A3E9F002338C
:10335B00E5900B6A780C120936704B85108285113B
:10336B0083E0F8A3E0F5838882E0F8A3E0F9740426
:10337B00121445E8F0A3E9F0851082851183E0244F
:10338B0002F8A3E03400F9851082851183E8F0A3DD
:10339B00E9F07404121445E0F8A3E0F97402121476
:1033AB0045E8F0A3E9F0851082851183E0F8A3E0EE
:1033BB00F5838882E0F50CA3E0F50DE4F50EF50F2F
:1033CB00851082851183E02402F8A3E03400F9858F
:1033DB001082851183E8F0A3E9F0900B72C082C0D4
:1033EB0083850C08850D09850E0A850F0B900B6ED6
:1033FB007808121261D083D0827808120936703D9A
:10340B00900B76780C120936600302335C851082C0
:10341B00851183E0F8A3E0F5838882E0FCA3E0FD4F
:10342B00851082851183E02402F8A3E03400F9852E
:10343B001082851183E8F0A3E9F00233B1EA246B23
:10344B00F582E43BF5837400F0EA246AF582E43BF1
:10345B00F5837400F08A828B83A3A3EEF0A3EFF0C5
:10346B007402121445E0F8A3E0F98A828B83E8F02A
:10347B00A3E9F08A828B837479F0A37408F0EA24B1
:10348B006CF582E43BF5837400F0EA246DF582E47D
:10349B003BF5837400F08A828B83A3A3A3A37400F0
:1034AB00F0A37400F0EA2406FA50010B1209097418
:1034BB00061213F17F080214D574F6121469ECFE90
:1034CB00EDFFEA4B601B7508327509007808121581
:1034DB00D6EAFCEBFD7A567B09120915740212131E
:1034EB00F19005A7EEF0A3EFF09005A9EEF0A3EF96
:1034FB00F075085575090878081215D67C327D07CA
:10350B007A037B0312086774021213F175085B755B
:10351B00090878081215D67C377D077A0D7B0312C4
:10352B00086774021213F175084F750908780812B1
:10353B0015D67C457D077A177B0312086774021238
:10354B0013F175086175090878081215D67C4B7D47
:10355B00077A217B0312086774021213F17F0202B0
:10356B0014D574F012146974B11213DB85108285B3
:10357B001183EAF0A3EBF07406121445ECF0A3ED03
:10358B00F07467121445E0FAA3E0FBEA5420C0E0A4
:10359B007405121445D0E0F0EA5410600874FE5A1A
:1035AB00FA74FF5BFBEAA2E05004743080027420D3
:1035BB00C0E07408121445D0E0F074021214457484
:1035CB0000F0745F121445780812129AEA540260E4
:1035DB005F900B667808120960401D740212144547
:1035EB00742DF078081211F27463121445E024FF65
:1035FB00F0A3E034FFF08038EA5404601874021230
:10360B001445742BF07463121445E024FFF0A3E00F
:10361B0034FFF0801BEA54086016740212144574D0
:10362B0020F07463121445E024FFF0A3E034FFF0A4
:10363B00EA5440603E7406121445E064107004A313
:10364B00E0640070107463121445E024FEF0A3E0F4
:10365B0034FFF0801E7406121445E064087004A356
:10366B00E06400700E7463121445E024FFF0A3E0D5
:10367B0034FFF074031214457400F0A37400F0AC23
:10368B0008AD09E4FEFF74091214451212DC74052F
:10369B00121445E0FC7409121445780C12129A743A
:1036AB0006121445E0F508A3E0F509E5093395E0AA
:1036BB00F50AF50B780C790812118074A52508F51D
:1036CB0082740C3509F583E04CC0E0740312144589
:1036DB00740D12144F88088909E02508F8A3E0350A
:1036EB0009F988828983D0E0F07403121445E02431
:1036FB0001F0A3E03400F07409121445780C121297
:10370B009A7406121445E0F508A3E0F509E50933B0
:10371B0095E0F50AF50B780C7908121180740912F3
:10372B001445780C1212A974091214451212D0EC1C
:10373B004D4E4F60030236997465121445E0F8A3A1
:10374B00E0F97403121445E0FCA3E0FDC3E89CE927
:10375B009DA2D265D033500A7403121445E0F8A32E
:10376B00E0F97463121445C3E098F0A3E099F0EA12
:10377B005411704F8039851082851183E0FCA3E0D2
:10378B00F5838C827420F0851082851183E02401EF
:10379B00FCA3E03400FD851082851183ECF0A3EDD2
:1037AB00F07463121445E024FFF0A3E034FFF074CF
:1037BB0063121445C3E09401A3E09400A2D265D038
:1037CB003350B37402121445E06033740212144583
:1037DB00E0C0E0851082851183E0FCA3E0F5838CCB
:1037EB0082D0E0F0851082851183E02401FCA3E0F8
:1037FB003400FD851082851183ECF0A3EDF0EA54C3
:10380B004070030238BE7406121445E0640870045D
:10381B00A3E06400702D851082851183E0FCA3E08A
:10382B00F5838C827430F0851082851183E024013E
:10383B00FCA3E03400FD851082851183ECF0A3ED31
:10384B00F080707406121445E064107004A3E064F9
:10385B00007060851082851183E0FCA3E0F5838CFA
:10386B00827430F0851082851183E02401FCA3E083
:10387B003400FD851082851183ECF0A3EDF0740507
:10388B00121445E04458C0E0851082851183E0FC9A
:10389B00A3E0F5838C82D0E0F0851082851183E064
:1038AB002401FCA3E03400FD851082851183ECF02C
:1038BB00A3EDF0EA5410705780417408121445E0E0
:1038CB00C0E0851082851183E0FAA3E0F5838A823C
:1038DB00D0E0F0851082851183E02401FAA3E03457
:1038EB0000FB851082851183EAF0A3EBF074631261
:1038FB001445E024FFF0A3E034FFF0746312144589
:10390B00C3E09401A3E09400A2D265D03350AB7412
:10391B0003121445C3E098A3E099A2D265D03340BB
:10392B00030239B9851082851183E0FAA3E0F58390
:10393B008A827430F0851082851183E02401FAA30A
:10394B00E03400FB851082851183EAF0A3EBF0E8ED
:10395B0024FFF8E934FFF980B67403121445E02410
:10396B00FFF8A3E034FFF97403121445E8F0A3E960
:10397B00F0740D121445E58228F582E58339F58341
:10398B00E0C0E0851082851183E0F8A3E0F5838821
:10399B0082D0E0F0851082851183E02401F8A3E04A
:1039AB003400F9851082851183E8F0A3E9F07403E4
:1039BB00121445C3E09401A3E09400A2D265D03366
:1039CB0050977463121445C3E09401A3E09400A2D2
:1039DB00D265D033403B851082851183E0F8A3E09C
:1039EB00F58388827420F0851082851183E0240191
:1039FB00F8A3E03400F9851082851183E8F0A3E980
:103A0B00F07463121445E024FFF0A3E034FFF08060
:103A1B00B1851082851183E0FAA3E0FB744F12137A
:103A2B00F17F080214D574F012146974B61213DB0B
:103A3B007401121445EAF0A3EBF07406121445EC72
:103A4B00F0A3EDF07460121445E0FEA3E0FFEE541A
:103A5B0010600874FE5EFE74FF5FFFEEA2E0500B79
:103A6B008510828511837430F08009851082851151
:103A7B00837420F0851082851183E0C0E0740512F9
:103A8B001445D0E0F0745E121445E0C39400F8A323
:103A9B00E09400F9C3E89407E99400400C745E12BB
:103AAB0014457406F0A37400F0745A121445780888
:103ABB0012129A900B66780C12129A7808790C12E3
:103ACB000B8F501F851082851183742DF0C50BB29F
:103ADB00E7C50B7406121445E024FFF0A3E034FF96
:103AEB00F080098510828511837400F07403121421
:103AFB00457400F0A37400F085080C85090D850A48
:103B0B000E850B0F780C120A2DAC0CAD0D745E12DA
:103B1B001445E0F8A3E0F9E8497003023C298C0C4A
:103B2B008D0DE4F50EF50F780C1209D07808790C91
:103B3B00120D5B745E121445E0F8A3E0F9E875F022
:103B4B0004A4C8AAF075F000A42AFA75F004E9A43D
:103B5B002AF974B528F582740C39F583780C121296
:103B6B009A7808790C120BDB7808120A2D85080A53
:103B7B0085090B850A08850B09750C00750D0080EE
:103B8B0059A808A9097A0A7B0012136FEA2430C0DE
:103B9B00E07403121445740812144F880A890BE061
:103BAB00250AF8A3E0350BF988828983D0E0F074FD
:103BBB0003121445E02401F0A3E03400F0A808A997
:103BCB00097A0A7B0012136F880A890B850A08850C
:103BDB000B09050CE50C7002050D745E121445E023
:103BEB00F8A3E0F9C3E50C98E50D99A2D265D033A3
:103BFB00408F7403121445740812144F88088909F6
:103C0B00E02508F8A3E03509F988828983742EF042
:103C1B007403121445E02401F0A3E03400F0ECF837
:103C2B00EDF97A0A7B0012136FEA2430C0E07403BB
:103C3B00121445740812144F88088909E02508F8F6
:103C4B00A3E03509F988828983D0E0F0740312145C
:103C5B0045E02401F0A3E03400F0ECF8EDF97A0A2A
:103C6B007B0012136F88088909AC08AD09EC4D7005
:103C7B00AD7403121445E0F8A3E0F9740612144571
:103C8B00C3E098F0A3E099F0EE54106003023D3FBF
:103C9B007405121445E064306003023D2B851082DD
:103CAB00851183E0607A851082851183E0C0E07412
:103CBB0001121445E0F8A3E0F5838882D0E0F0749C
:103CCB0001121445E02401F8A3E03400F974011249
:103CDB001445E8F0A3E9F08510828511837400F098
:103CEB00803E7405121445E0C0E07401121445E0E7
:103CFB00F8A3E0F5838882D0E0F07401121445E05C
:103D0B002401F8A3E03400F97401121445E8F0A380
:103D1B00E9F07406121445E024FFF0A3E034FFF041
:103D2B007406121445C3E09401A3E09400A2D2657B
:103D3B00D03350AE851082851183E07003023DD0E5
:103D4B00851082851183E0C0E07401121445E0F800
:103D5B00A3E0F5838882D0E0F07401121445E024CF
:103D6B0001F8A3E03400F97401121445E8F0A3E95B
:103D7B00F080527403121445E024FFF8A3E034FFE3
:103D8B00F97403121445E8F0A3E9F0740812144512
:103D9B00E58228F582E58339F583E0C0E0740112F2
:103DAB001445E0F8A3E0F5838882D0E0F0740112AB
:103DBB001445E02401F8A3E03400F9740112144512
:103DCB00E8F0A3E9F07403121445C3E09401A3E0F7
:103DDB009400A2D265D033509A7406121445C3E0F6
:103DEB009401A3E09400A2D265D033403874011241
:103DFB001445E0F8A3E0F58388827420F074011277
:103E0B001445E02401F8A3E03400F97401121445C1
:103E1B00E8F0A3E9F07406121445E024FFF0A3E0E8
:103E2B0034FFF080B47401121445E0FAA3E0FB7484
:103E3B004A1213F17F080214D574F0121469749CA2
:103E4B001213DB9005A7E0F8A3E0F9E84970030231
:103E5B00472DEAFEEBFF851082851183EEF0A3EF71
:103E6B00F0747412144F7402121445E8F0A3E9F0C5
:103E7B00023F4A7402121445E0F8A3E0F5838882EE
:103E8B00E0FCA3E0FDED3395E0FEFF740812144552
:103E9B00ECF0A3EDF0A3EEF0A3EFF07402121445D7
:103EAB00E02402F8A3E03400F97402121445E8F0A0
:103EBB00A3E9F078081215D68A088B097808121531
:103ECB00D6780A1215D6740E1214451215E7740E15
:103EDB00121445E0FCA3E0FD74161214571208C728
:103EEB00740A1213F18A088B0985080E85090F7461
:103EFB000C12144F88088909E50EC39508FCE50FD1
:103F0B009509FD740C1214579005A7E0F8A3E0F582
:103F1B00838882121467851082851183E02401FE49
:103F2B00A3E03400FF851082851183E02401F8A300
:103F3B00E03400F9851082851183E8F0A3E9F08560
:103F4B001082851183E0F8A3E0F5838882E070038B
:103F5B000246F6851082851183E0F8A3E0F583888D
:103F6B0082E0642570BF740C12144F880889098590
:103F7B00080E85090F851082851183E0F8A3E0F9FF
:103F8B00EE687002EF69602F851082851183E0F86F
:103F9B00A3E0F9E8C39EFCE99FFDEEFAEFFB900569
:103FAB00A7E0F8A3E0F58388821214678510828559
:103FBB001183E0FEA3E0FF7508007509007404127D
:103FCB0014457400F0A37400F0851082851183E012
:103FDB002401F8A3E03400F9851082851183E8F001
:103FEB00A3E9F0851082851183E0F8A3E0F58388BF
:103FFB0082E024E0602E24FD603824F8601824FE53
:10400B00600624FD603A804674104508F50874007C
:10401B004509F509804474044508F5087400450901
:10402B00F509803674084508F50874004509F5094B
:10403B00802874404508F50874004509F509801A75
:10404B0074014508F50874004509F509800C7404E2
:10405B001214457401F0A37400F07404121445E0BB
:10406B00F8A3E0F9E8497003023FD485108285116B
:10407B0083E0F8A3E0F5838882E0F87900741928CF
:10408B00F582741639F583E493A2E2400302412DC5
:10409B00750A00750B00E50A75F00AA4C50AA8F0AD
:1040AB0075F000A428F875F00AE50BA428F50B852C
:1040BB001082851183E0F8A3E0F5838882E0F8791C
:1040CB0000E50A28F8E50B39F9E824D0F50AE934BC
:1040DB00FFF50B851082851183E02401F8A3E034F2
:1040EB0000F9851082851183E8F0A3E9F085108231
:1040FB00851183E0F8A3E0F5838882E0F8790074FA
:10410B001928F582741639F583E493A2E24087C32C
:10411B00E50A9459E50B9400400E750A58750B008F
:10412B008006750AFF750BFF851082851183E0F8F9
:10413B00A3E0F5838882E0642E60030241E97A00F4
:10414B007B00851082851183E02401F8A3E0340005
:10415B00F9851082851183E8F0A3E9F0804FEA75A9
:10416B00F00AA4CAA8F075F000A428F875F00AEBC1
:10417B00A428FB851082851183E0F8A3E0F58388E2
:10418B0082E0F87900EA28F8EB39F9E824D0FAE96B
:10419B0034FFFB851082851183E02401F8A3E03402
:1041AB0000F9851082851183E8F0A3E9F085108270
:1041BB00851183E0F8A3E0F5838882E0F879007439
:1041CB001928F582741639F583E493A2E2408FC364
:1041DB00EA9459EB9400400A7A587B0080047AFFEA
:1041EB007BFF851082851183E0F8A3E0F58388823D
:1041FB00E0646C702E851082851183E0F8A3E0F5E6
:10420B00838882E0FC7D00851082851183E0240188
:10421B00F8A3E03400F9851082851183E8F0A3E957
:10422B00F080047CFF7DFF7404121445740AF0A324
:10423B007400F0851082851183E0F8A3E0F5838884
:10424B0082E024A870030246DA24F5603914700367
:10425B000246E824FE70030245FA24FD7003024671
:10426B00E824FA700302468214700302454124FDD0
:10427B00700302437B24FE700302468E24FD700301
:10428B000246CE023F30E508541070348016850E7E
:10429B0082850F837420F0850E82850F83A3858220
:1042AB000E85830FE50A24FFF8E50B34FFF9880A26
:1042BB00890BC3E89401E99400A2D265D03350CEA8
:1042CB007402121445E0F8A3E0F5838882E0F8A3AA
:1042DB00E0F9E8C0E0850E82850F83D0E0F0740230
:1042EB00121445E02402F8A3E03400F9740212140E
:1042FB0045E8F0A3E9F0850E82850F83A385820E36
:10430B0085830F8016850E82850F837420F0850EB2
:10431B0082850F83A385820E85830FE50A24FFF820
:10432B00E50B34FFF9880A890BC3E89401E9940083
:10433B00A2D265D03350CE740C12144F8808890961
:10434B00E50EC39508FCE50F9509FD740C12145787
:10435B009005A7E0F8A3E0F5838882121467851017
:10436B0082851183E02401FEA3E03400FF023F307D
:10437B007402121445E0F8A3E0F5838882E0F8A3F9
:10438B00E0F97406121445E8F0A3E9F07402121474
:10439B0045E02402F8A3E03400F97402121445E856
:1043AB00F0A3E9F07406121445E0F8A3E0F9E8492C
:1043BB00700C7406121445749EF0A3740CF0740602
:1043CB00121445E0F50EA3E0F50FC3EA9401EB944C
:1043DB0000A2D265D0334028A80EA90F888289830A
:1043EB00A385820E85830F88828983E06028EA2467
:1043FB00FFF8EB34FFF9E8FAE9FBE84970DA8016CD
:10440B00A80EA90F88828983A385820E85830F88C6
:10441B00828983E070EA7406121445E0F8A3E0F990
:10442B00E50EC398FEE50F99FF740C12144F880C20
:10443B00890D850C0E850D0FE50854107065C3EEC4
:10444B00950AEF950BA2D265D0335057850E828516
:10445B000F837420F0850E82850F83A385820E85D2
:10446B00830FE50A24FFF8E50B34FFF9880A890B63
:10447B00C3EE98EF99A2D265D03340D0740C1214CE
:10448B004F88088909E50EC39508FCE50F9509FDD2
:10449B00740C1214579005A7E0F8A3E0F5838882FB
:1044AB00121467EEFCEFFD7406121445E0FAA3E05C
:1044BB00FB9005A7E0F8A3E0F5838882121467C38D
:1044CB00EE950AEF950BA2D265D0335057850E822D
:1044DB00850F837420F0850E82850F83A385820E52
:1044EB0085830FE50A24FFF8E50B34FFF9880A8969
:1044FB000BC3EE98EF99A2D265D03340D0740C1257
:10450B00144F88088909E50EC39508FCE50F95093A
:10451B00FD740C1214579005A7E0F8A3E0F58388FF
:10452B0082121467851082851183E02401FEA3E0BB
:10453B003400FF023F3074FF650A700474FF650B93
:10454B007012750A04750B0074014508F5087400A8
:10455B004509F5097402121445E0F8A3E0F9E8FCEB
:10456B00E9FDEC2402F8E43DF97402121445E8F07D
:10457B00A3E9F078081215D68A088B09780812156A
:10458B00D6780A1215D68C828D83E0F508A3E0F558
:10459B0009E4F50AF50B78081215D27C107D00742E
:1045AB00161214571208C7740A1213F18A088B09D2
:1045BB0085080E85090F740C12144F88088909E5BC
:1045CB000EC39508FCE50F9509FD740C121457905A
:1045DB0005A7E0F8A3E0F5838882121467851082A3
:1045EB00851183E02401FEA3E03400FF023F307409
:1045FB0002121445E0F8A3E0F9E8FCE9FDEC240411
:10460B00F8E43DF97402121445E8F0A3E9F07808D8
:10461B001215D68A088B0978081215D68C828D83D1
:10462B001215E7AC0AAD0B74141214571208CD74A3
:10463B00081213F18A088B0985080E85090F740C73
:10464B0012144F88088909E50EC39508FCE50F95F0
:10465B0009FD740C1214579005A7E0F8A3E0F5833D
:10466B008882121467851082851183E02401FEA3D2
:10467B00E03400FF023F3074041214457408F0A3B9
:10468B007400F0746C6C700374006D6003023E7EFA
:10469B007402121445E0F8A3E0F58388821212D05D
:1046AB0074081214451212DC7402121445E024042F
:1046BB00F8A3E03400F97402121445E8F0A3E9F012
:1046CB00023EBE74204508F50874004509F50974CF
:1046DB00041214457410F0A37400F080A674024504
:1046EB0008F50874004509F5098098851082851135
:1046FB0083E0F8A3E0F9EE687002EF69602485109F
:10470B0082851183E0F8A3E0F9E8C39EFCE99FFDE5
:10471B00EEFAEFFB9005A7E0F8A3E0F58388821291
:10472B00146774641213F17F080214D574F0121419
:10473B006974FA1213DB851082851183ECF0A3EDFB
:10474B00F0EAFEEBFF7A007B247CF47D4B740212C3
:10475B001445EAF0A3EBF0A3ECF0A3EDF08E828FFF
:10476B0083780C12129A900C7E780812129A780C9D
:10477B007908120B8F5014851082851183E0F8A3F2
:10478B00E0F58388827406F002490D8E828F837860
:10479B000C12129A900C7E780812129A780C7908E7
:1047AB00120B40502E8E828F83780C12129A900C23
:1047BB0082780812129A780C7908120B8F50148594
:1047CB001082851183E0F8A3E0F58388827407F0EB
:1047DB0002490D8E828F83780C12129A900C82787C
:1047EB000812129A780C7908120B40502E8E828F79
:1047FB0083780C12129A900C86780812129A780C05
:10480B007908120B8F5014851082851183E0F8A361
:10481B00E0F58388827408F002490D8E828F8378CD
:10482B000C12129A900C86780812129A780C79084E
:10483B00120B40502E8E828F83780C12129A900599
:10484B00D7780812129A780C7908120B8F501485AE
:10485B001082851183E0F8A3E0F58388827409F058
:10486B0002490D8E828F83780C12129A9005D7789D
:10487B000812129A780C7908120B40502D8E828FE9
:10488B0083780C12129A900C8A780812129A780C70
:10489B007908120B8F5013851082851183E0F8A3D2
:1048AB00E0F5838882740AF080588E828F83780CAF
:1048BB0012129A900C8A780812129A780C790812B4
:1048CB000B40502D8E828F83780C12129A900C8E87
:1048DB00780812129A780C7908120B8F50138510E6
:1048EB0082851183E0F8A3E0F5838882740BF08056
:1048FB0011851082851183E0F8A3E0F5838882741B
:10490B000CF0900C921215E7900C961212B812093B
:10491B000374041213F18A088B098C0A8D0B8E8297
:10492B008F83780C12129A780C7908120BDBC00C5F
:10493B00C00DC00EC00F7402121445780C12129ADF
:10494B00851082851183E0F8A3E0F5838882E0F57A
:10495B0008E4F509F50AF50B78081209D078081266
:10496B0015D2900C961212B812090374041213F19B
:10497B008A088B098C0A8D0B780C7908120BDBD00B
:10498B000BD00AD009D0087808790C120F9A900C2A
:10499B009A780C12129A7808790C120D80780812FA
:1049AB000A2DE508C0E07416121445E0F8A3E0F5F3
:1049BB00838882D0E0F074061213F17F080214D5BD
:1049CB0074F612146974FA1213DB7402121445EAAA
:1049DB00F0A3EBF0A3ECF0A3EDF043F30C53F1FEDB
:1049EB0053FDFB43FD0853FF3F7586C0A810A9116B
:1049FB008808890978081215D6740312145F740499
:104A0B0012145712089D74021213F17401121445FB
:104A1B00E0F5C5851082851183E0F5C243A90443F7
:104A2B00B904D2AAD2AF74061213F17F020214D5C5
:104A3B0089C1A2E950FCC2E902008774F61214691D
:104A4B00EAFEEBFF8C088D0980128E828F83E0F9D2
:104A5B001208A98E828F83A3AE82AF83A808A909FF
:104A6B00E824FFF508E934FFF509E84970DC7F021B
:104A7B000214D5C082C083900563E0F8A3E0F990DF
:104A8B000561E0FAA3E0FBC3E89AE99B40119005AE
:104A9B0061E0FAA3E0FBE8C39AFAE99BFB8017906D
:104AAB000561E0FAA3E0FB7400C39AFA74019BFB67
:104ABB00EA28FAEB39FBD083D08202008774F2121A
:104ACB0014697582FD7583FE121427900563E0F857
:104ADB00A3E0F9900561E0687003A3E0697003023D
:104AEB004CBC900B7A740312145F740012130D12EA
:104AFB0008B58A0A8B0B850A08850B09900561E0BE
:104B0B002508F8A3E03509F9C3E89401E9940140BD
:104B1B0060900561E0F8A3E0F97400C398F50C749C
:104B2B000199F50DE508C3950CF50AE509950DF509
:104B3B000B780C1215D6900561E02461FCA3E034D0
:104B4B0004FD74051214571208FD74021213F17848
:104B5B000A1215D67C617D047405121445E5822575
:104B6B000CFAE583350DFB1208FD74021213F1806C
:104B7B001E78081215D6900561E02461FCA3E03481
:104B8B0004FD74051214571208FD74021213F190F0
:104B9B000C7AAC10AD11740312130D8510828511B4
:104BAB0083741BF07401121445745BF0AC10AD11DF
:104BBB00740312145712091B8A0A8B0BE50A450B57
:104BCB007003024C54740312145712090F8A0A8B88
:104BDB000BC3E50A9403E50B94005003024CBC9005
:104BEB00032BE0F8A3E0F9E849604190032DE0F8CE
:104BFB00A3E0F99005A7E8F0A3E9F078081215D621
:104C0B00740512145F7A2B7B0390032BE0F8A3E05F
:104C1B00F583888212146774021213F19005A9E0D0
:104C2B00F8A3E0F99005A7E8F0A3E9F0900561E09F
:104C3B002508F8A3E03509F97A007B0112136F9070
:104C4B000561EAF0A3EBF0806890032BE0F8A3E09A
:104C5B00F9E849604190032DE0F8A3E0F99005A72E
:104C6B00E8F0A3E9F078081215D6740512145F7AF0
:104C7B002B7B0390032BE0F8A3E0F58388821214BF
:104C8B006774021213F19005A9E0F8A3E0F99005FF
:104C9B00A7E8F0A3E9F0900561E02508F8A3E0355B
:104CAB0009F97A007B0112136F900561EAF0A3EB0F
:104CBB00F092F0758203758301121427A2F07F0620
:104CCB000214D5C082C083900566E0A2E7500302B0
:104CDB004D9A900565E0A2E04003024D6990056690
:104CEB00E0547FC3944140129005667400F0900528
:104CFB00657400F0900C7D7440F0E9C0E09005669F
:104D0B00E0FA7B00EA547FFAEB5400FB74672AF558
:104D1B008274053BF583D0E0F0900566E02401F04A
:104D2B00900566E0547F6402700A900568E02404E5
:104D3B00900C7DF0900566E0547FF8900C7DE06858
:104D4B00704D900566E024FFF0900566E0D2E7F029
:104D5B009005657400F0900C7D7440F0803174AF59
:104D6B0069702C9005657401F0E9C0E0900566E070
:104D7B00FA7B00EA543FFAEB5400FB74672AF58286
:104D8B0074053BF583D0E0F0900566E02401F0D08C
:104D9B0083D08202008774F012146974E81213DB5B
:104DAB00851082851183EAF0A3EBF0A3ECF0A3ED61
:104DBB00F0740A121445E4F0A3F074281214457829
:104DCB000812129A900B66780C12129A7808790CCA
:104DDB00120B14700B7A007B007C807D3F025176A6
:104DEB00851082851183780812129A900B66780CC5
:104DFB0012129A7808790C120B14607A851082853E
:104E0B001183780812129AE50BC2E7F50B900D117E
:104E1B00780C12129A7808790C120B14700E9005FC
:104E2B00AB74221251801212B802517674281214EC
:104E3B0045780812129A900D11780C12129A780874
:104E4B00790C120B1470149005AB7422F0A3E4F0E0
:104E5B007AFF7BFF7C7F7D7F02517674281214458D
:104E6B00780812129A900D15780C12129A7808790C
:104E7B000C120B14700B7A007B007C007D0002512E
:104E8B0076851082851183780812129A900B6678BA
:104E9B000C12129A7808790C120B8F50747428121A
:104EAB001445780812129A7428121445780C1212B1
:104EBB009A780C120A2D780C1209B57808790C1215
:104ECB000D5B900D19780C12129A7808790C120B55
:104EDB0040500B9005AB7421F0A3E4F0809874283C
:104EEB00121445780812129A7808120A2DE5085404
:104EFB0001F8740A121445E8125180780812129ABC
:104F0B00E50BC2E7F50B8510828511837808121229
:104F1B00A9851082851183780812129AE50B5480AB
:104F2B00443FF50BE50AC2E7F50A740612144578FF
:104F3B00081212A9851082851183780812129AE53E
:104F4B000A33E50B332482F5083395E0F509F50AAE
:104F5B00F50B78081209B57428121445780C121247
:104F6B009A7808790C120BDB74101214457808121E
:104F7B0012A974101214451212B81208E58510828A
:104F8B008511831212C48510828511837808121241
:104F9B009A7808120A2D7404121445E508F0A3E55B
:104FAB0009F074061214451212B81208F174141297
:104FBB0014451212C47428121445780812129A74EC
:104FCB0004121445E0F50CA3E0F50D3395E0F50E56
:104FDB00F50F780C1209B57808790C120D5B741467
:104FEB00121445780C12129A7808790C120BDBC04C
:104FFB0008C009C00AC00B741012144578081212AD
:10500B009A851082851183780C12129A7808790C84
:10501B00120D5B900D1D780C12129A7808790C12F8
:10502B000BDBD00FD00ED00DD00C780C7908120DF5
:10503B0080AA0CAB0DAC0EAD0F1208DF740C121462
:10504B00451212C4851082851183E4F0A3F0A3747A
:10505B0080F0A3743FF07404121445E0FAA3E0FB54
:10506B001208D9EA4B702F02510D740612144578B1
:10507B000C12129A7406121445780812129A780CB4
:10508B007908120BDB7406121445780C1212A9EB7B
:10509B00C313FBEA13FAEAA2E050278510828511AD
:1050AB0083780C12129A7406121445780812129A0D
:1050BB00780C7908120BDB851082851183780C1222
:1050CB0012A974016A4B70A27404121445C3A3E0B5
:1050DB009400A2D265D0335029750800750900756C
:1050EB000A80750B3F851082851183780C12129AFA
:1050FB007808790C120F9A85108285118378081223
:10510B0012A9740C121445780812129A7404121412
:10511B0045E0F9851082851183780C12129AE9A269
:10512B00E713F9E413250EF50EE9350FF50F7808A3
:10513B00790C120BDB740C12144578081212A9743B
:10514B000A121445E0A2E0740C50101214457808B2
:10515B0012129AE50BB2E7F50B800812144578088A
:10516B0012129AAA08AB09AC0AAD0B74181213F100
:10517B007F080214D5F0A3E4F085108285118322F9
:10518B0074F012146974F81213DB85108285118385
:10519B00EAF0A3EBF0A3ECF0A3ED12546212129A17
:1051AB00900B66780C12129A7808790C120B14700B
:1051BB000B7A007B007C807D3F02545885108285E2
:1051CB001183780812129AEDC2E7F50B900CD17887
:1051DB000C12129A7808790C120B4050449005ABC4
:1051EB007422F0A3E412546212129A900B66780C9C
:1051FB0012129A7808790C120B8F500E75080075E5
:10520B000900750A00750B00800C7508FF7509FF06
:10521B00750A7F750B7FAA08AB09AC0AAD0B02545C
:10522B0058851082851183780812129A900CD578C4
:10523B000C12129A7808790C120BDB8510828511EF
:10524B008378081212A985108285118378081212AF
:10525B009AE50BC2E7F50B7808120A2DE508FA85DB
:10526B001082851183780C12129A900B66780812B3
:10527B00129A780C7908120B8F5039851082851190
:10528B0083780812129AEAF50C3395E0F50DF50EBA
:10529B00F50F780C1209B57808790C120D5B900B91
:1052AB0066780C12129A7808790C120B1460010AAA
:1052BB00EAF404FA851082851183780C12129AEAAB
:1052CB00F5083395E0F509F50AF50B78081209B5E1
:1052DB00780C7908120D5B7404121445780C1212B9
:1052EB00A97404121445780C12129A900CD97808F0
:1052FB0012129A780C7908120B8F5027740412141F
:10530B0045780C12129A900CD9780812129A780CD4
:10531B007908120D807404121445780C1212A97BB3
:10532B000180027B007404121445780812129A90C3
:10533B000CDD780C12129A7808790C120BDB900C9E
:10534B00E1780C12129A7808790C120D8074041201
:10535B001445780C12129A7808790C120BDB900C0E
:10536B00E5780C12129A7808790C120D80740412DD
:10537B001445780C12129A7808790C120BDB900CEE
:10538B00E9780C12129A7808790C120D80740412B9
:10539B001445780C12129A7808790C120BDB900CCE
:1053AB00ED780C12129A7808790C120D8074041295
:1053BB001445780C12129A7808790C120BDB900CAE
:1053CB00F1780C12129A7808790C120D8074041271
:1053DB001445780C12129A7808790C120BDB900C8E
:1053EB00F5780C12129A7808790C120D80851082C0
:1053FB00851183E508F0A3E509F0A3E50AF0A3E521
:10540B000BF0EBA2E05025851082851183780C12EE
:10541B00129A900CF9780812129A780C7908120BE0
:10542B00DB851082851183780C1212A9EAF985109D
:10543B0082851183780812129AAA08AB09AC0AADBF
:10544B000BE9A2E713F9E4132CFCE93DFD740812F8
:10545B0013F17F080214D5F085108285118378082B
:10546B002274F012146974F61213DB851082851105
:10547B0083EAF0A3EBF0A3ECF0A3EDF085108285AB
:10548B001183780812129A900B2A780C12129A78C0
:10549B0008790C120B8F5033851082851183780895
:1054AB0012129A900B66780C12129A7808790C12D9
:1054BB000B149005AB700A74221256707DFF0256C6
:1054CB006674211256707D7F025666740412144F57
:1054DB008808890978081215D6740212144512121D
:1054EB00B81208EB74021213F18510828511831226
:1054FB0012C4851082851183780812129A900CF9C8
:10550B00780C12129A7808790C120B8F5032851086
:10551B0082851183780812129A7401C31313250A1A
:10552B00F50AE4350BF50B8510828511837808128B
:10553B0012A97404121445E024FFF0A3E034FFF029
:10554B00851082851183780812129A900D01780CC0
:10555B0012129A7808790C120D80C008C009C00A83
:10556B00C00B851082851183780C12129A900CF562
:10557B00780812129A780C7908120D80D00BD00A89
:10558B00D009D0087808790C120F9A8510828511F2
:10559B008378081212A9851082851183780812125C
:1055AB009A851082851183780C12129A7808790CDF
:1055BB00120BDB740612144578081212A97404122C
:1055CB001445E0F5083395E0F509F50AF50B780875
:1055DB001209B5900D1D780C12129A7808790C12DD
:1055EB000BDBC008C009C00AC00B74061214457847
:1055FB000812129A900D05780C12129A7808790CF1
:10560B00120BDB900D09780C12129A7808790C1298
:10561B000D807406121445780C12129A7808790CC6
:10562B00120BDB900D0D780C12129A7808790C1274
:10563B000D80851082851183780C12129A78087967
:10564B000C120BDBD00FD00ED00DD00C780C7908D0
:10565B00120D80AA0CAB0DAC0EAD0F740A1213F128
:10566B007F080214D5F0A3E4F07AFF7BFF7C7F2246
:10567B0074F012146974F81213DB85108285118390
:10568B00EAF0A3EBF0A3ECF0A3EDF085108285110B
:10569B0083780812129AEDC2E7F50B900CFD780C8B
:1056AB0012129A7808790C120B408510828511839F
:1056BB0050061212B802578F780812129A900B6686
:1056CB00780C12129A7808790C120B8F8510828540
:1056DB001183780812129A400302577DEDC2E7F549
:1056EB000B85108285118378081212A9851082858B
:1056FB001183780812129A7808120A2D7808120969
:10570B00B5740412144578081212A98510828511FC
:10571B0083780812129A7404121445780C12129A98
:10572B007808790C120D5B900B66780C12129A7834
:10573B0008790C120B1460237404121445780812A8
:10574B00129A900CF5780C12129A7808790C120DAB
:10575B0080740412144578081212A97404121445AB
:10576B00780812129AAA08AB09AC0AE50BB2E7FD4E
:10577B0080127808120A2D78081209B5AA08AB090D
:10578B00AC0AAD0B74081213F17F080214D574F038
:10579B001214698A088B098C0A8D0B74101214452C
:1057AB00E0F8A3E0F9E8FAE9FB900B66780C12122B
:1057BB009A7808790C120B14700E8A828B83E4F0A2
:1057CB00A3F0FAFBFCFD8022EC33ED332482F8339B
:1057DB0095E0F98A828B83E8F0A3E9F0AA08AB097C
:1057EB00ED5480443FFDECC2E7FC7F080214D574F6
:1057FB00F6121469EAF8EBF9740A121445E0FEA3E9
:10580B00E0FF8E088F09E50824FF1EE50934FFFF32
:10581B00E5084509602A8C828D83E0F508A3AC82EC
:10582B00AD838A828B83F0A3AA82AB8370D4EE4FB5
:10583B00600EE4F0A3EE24FF1EEF34FFFF4E70F278
:10584B00E8FAE9FB7F020214D574F6121469120808
:10585B00979005D71212B81208A37CAF7D087AADCA
:10586B007B051208917CAF7D087A2B7B0312088B8A
:10587B00E4F508F50978081215D67C007D007A2B23
:10588B007B0312087374021213F17AB57B051208AD
:10589B00D37F020214D51208131208BB80FB74F6D7
:1058AB001214698C828D83E070317F020214D5A3B0
:1058BB00E060F70EEE70010FEC2EF8ED3FF9EA2EDB
:1058CB00F582EB3FF583E0F50888828983E0650874
:1058DB0060DD8A828B83A3AA82AB838A828B83E06F
:1058EB0060067E007F0080D07A007B0080BC74F75E
:1058FB001214697409121445E0FEA3E08015A3AAE3
:10590B0082AB838C828D83A3AC82AD83EE24FF1E8E
:10591B00EF34FFFFEE4F60198C828D83E0F88A82A3
:10592B008B83E0F9E86960D6E9C398FA95E0FB80D0
:10593B00047A007B007F010214D574F6121469EA15
:10594B00F8EBF9740A121445E0FEA3E0FF80188C03
:10595B00828D83E088828983F0A3A882A9838C82BD
:10596B008D83A3AC82AD838E088F09E50824FF1EBF
:10597B00E50934FFFFE508450970D47F020214D511
:10598B0074F7121469EAF8EBF98C828D83E0FEA3AD
:10599B00AC82AD838A828B83F0A3AA82AB8370E93E
:1059AB00E8FAE9FB7F010214D5C082C0838A828B9F
:1059BB00838001A3E070FCE582C39AFAE5839BFB2D
:1059CB00D083D082020087C3EB9400A2D265D03380
:1059DB004005EAF8EB8006C3E49AF8E49BF9E8FA91
:1059EB00E9FB02008753BEFBE59EA2E650FA53C6C5
:0759FB00B843BE040200875F
:040000050000006F88
:00000001FF
